:100000000C94D6000C94FE000C94FE000C94FE00A0
:100010000C94FE000C94FE000C94FE000C94FE0068
:100020000C94FE000C94D60A0C9416070C948507C9
:100030000C94FE000C94FE000C94FE000C94FE0048
:100040000C94FE000C94FE000C94FE000C94FE0038
:100050000C94FE000C94FE000C94FE000C94CC0654
:100060000C94FE000C94FE000C94FE000C94FE0018
:100070000C94FE000C94FE000C94FE000C94FE0008
:100080000C94FE000C94FE000C94FE000C94FE00F8
:100090000C94B7090C94FE000C94FE000C94FE0026
:1000A0000C94FE000C94FE000C94FE00080B000261
:1000B0000202000009040000010202000005240001
:1000C0001001052401010104240206052406000193
:1000D0000705810310004009040100020A00000026
:1000E00007050202400000070583024000000403E8
:1000F000090412010002EF02014041234680000181
:100100000102030141726475696E6F204C4C43001B
:100110004D696C6C656E6E69756D20426574610029
:1001200000000000240027002A002D0030000000FD
:10013000000200090F0000030401000C0000000091
:1001400000000000000000000000000000000000AF
:10015000002300260029002C002F000000000025AD
:100160000028002B002E00310004040404040304C2
:100170000502020202040302020202060606060645
:100180000604040202020404040802011040804034
:1001900010204080408008020401804020100201AD
:1001A00010801020404020004E0BE70F11241FBE8E
:1001B000CFEFDAE0DEBFCDBF12E0A0E0B1E0ECE2CD
:1001C000F0E202C005900D92AC34B107D9F724E0FB
:1001D000ACE4B2E001C01D92AA30B207E1F710E032
:1001E000C5EDD0E004C02197FE010E940310C43D7C
:1001F000D107C9F70E94E50B0C9409100C9400007C
:10020000FC0180918E03882311F13FB7F89482E0BE
:100210008093E9002091F200822F90E018161906D1
:1002200014F481E090E0882339F0289A44E6409362
:100230008D034091F1004083222339F02091F20098
:10024000211103C02BE62093E8003FBF08958FEFF4
:100250009FEF08952FB7F89483E08093E900909181
:10026000E800892F807295FF04C09091F20080E42D
:10027000891B2FBF08958091850381110DC082E0F5
:100280008093810384E08093820310928403109210
:10029000830381E08093850381E893E00895282F0C
:1002A00030E0F901E25DFE4F9491F901E857FE4F0D
:1002B000849127593E4FF9012491222309F430C03B
:1002C0009923E9F091509F30D0F4E92FF0E0E559FF
:1002D000FE4F0C94031099019D017A019101950143
:1002E0007F017F017F01A001A601AA01AE01B40137
:1002F0007F01B801909180009F7790938000E22F5A
:10030000F0E0EE0FFF1FE55AFE4FA591B4919FB7A5
:10031000F894EC91611132C080958E238C939FBF2D
:100320000895909180009F7DE8CF90918000977F05
:10033000E4CF94B59F7794BDE2CF94B59F7DFBCF7A
:10034000909190009F7790939000D9CF90919000DA
:100350009F7DF9CF90919000977FF5CF9091C0004D
:100360009F779093C000CBCF9091C0009F7DF9CF35
:100370009091C200977F9093C200C1CF8E2BCECFB9
:10038000CF93DF9390E0FC01E857FE4F249187590B
:100390009E4FFC0184918823D1F090E0880F991F33
:1003A000FC01E05EFE4FA591B491FC01E55AFE4FC1
:1003B000C591D49161110EC09FB7F8948C91E22F32
:1003C000E0958E238C932881E223E8839FBFDF9101
:1003D000CF9108958FB7F894EC91E22BEC938FBFF7
:1003E000F6CF3FB7F89480917D0390917E03A09162
:1003F0007F03B091800326B5A89B05C02F3F19F05D
:100400000196A11DB11D3FBFBA2FA92F982F882794
:10041000BC01CD01620F711D811D911D42E0660F6F
:10042000771F881F991F4A95D1F708958F929F9241
:10043000AF92BF92CF92DF92EF92FF924B015C019D
:100440000E94F1016B017C010E94F1016C197D0990
:100450008E099F09683E734081059105A8F321E04C
:10046000821A9108A108B10888EEC80E83E0D81E50
:10047000E11CF11C81149104A104B10429F7FF903F
:10048000EF90DF90CF90BF90AF909F908F900895A6
:100490002FB7F8946091790370917A0380917B0370
:1004A00090917C032FBF08950895CF93DF93AC0103
:1004B000E0912C03F0912D033097F1F090912B03F4
:1004C00080912A039817C0F090E0292F30E026177A
:1004D000370754F4D901A457BD4F240F351FE90144
:1004E00028812C939F5FF1CF10922B0360932A03F6
:1004F000CB01DF91CF910994DF91CF910895409185
:100500001E0350911F0320911C0330911D034217BD
:100510005307B4F49091E8009570E1F39091E800EE
:1005200092FD19C08093F10080911E0390911F03EA
:1005300001968F739927892B19F48EEF8093E80029
:1005400080911E0390911F03019690931F03809347
:100550001E0381E0089580E00895EF92FF920F93CB
:100560001F93CF93DF93F82E192FE62E042F81E0EF
:10057000860F880F0E947F0283E00E947F02CF2DAA
:10058000D12FEC0EFD2EF11CCE15DF05B9F007FFC3
:1005900013C0FE0184910E947F02182F80E00E9408
:1005A0007F02812321968111EFCFDF91CF911F919F
:1005B0000F91FF90EF9008958881EDCF81E0F5CF06
:1005C000DF92EF92FF920F931F93CF93DF93D82E7A
:1005D0008A01EB017B01E40EF51ECE15DF0559F013
:1005E000D7FE12C0FE0184910E947F0221968111E4
:1005F000F4CF0FEF1FEFC801DF91CF911F910F9143
:10060000FF90EF90DF9008958881EECF0F931F93B6
:10061000CF93DF931F92CDB7DEB782E0898342E4A8
:1006200050E06CEA70E080E80E94E0020E943B012A
:10063000DC0112960D911C910115110589F0D8016C
:10064000ED91FC910280F381E02DBE016F5F7F4F41
:10065000C801099597FD04C0F80100851185ECCF0C
:1006600089810F90DF91CF911F910F910895615073
:1006700030F02091F100FC0120830196F8CF289AF8
:1006800084E680938D030895AF92BF92CF92DF925C
:10069000EF92FF920F931F93CF93DF936C017B0137
:1006A0008B01040F151FEB015E01AE18BF08C017C8
:1006B000D10759F06991D601ED91FC910190F0813B
:1006C000E02DC6010995892B79F7C501DF91CF91FE
:1006D0001F910F91FF90EF90DF90CF90BF90AF9060
:1006E00008958F929F92AF92BF92CF92DF92EF9236
:1006F000FF920F931F93CF93DF936C017B018A01CD
:1007000080910B01882309F45CC080918E038823BB
:1007100009F457C08091220380FF05C08091E0005A
:1007200082608093E000E801B12C8AEFA82E93E06C
:10073000892E2AE3922E209711F4BB20D9F10E9432
:100740002A0181110AC0AA94AA20D9F161E070E0BF
:1007500080E090E00E941602EECF8C171D0611F08B
:100760000CF08C2F9FB7F8948092E9002091E8005C
:1007700025FD02C09FBFDFCF282F30E0C21BD30B67
:10078000F701815020F041914093F100FACFE20E41
:10079000F31EBB2021F09092E800B12CEBCF8091AA
:1007A000E80085FDE7CF9092E800BB24B394209742
:1007B00009F3F3CF5D9A84E68093210310161106A6
:1007C0003CF081E090E0F6019383828310E000E04A
:1007D000C801DF91CF911F910F91FF90EF90DF90B3
:1007E000CF90BF90AF909F908F900895CF93DF935D
:1007F0001F92CDB7DEB76983DC01ED91FC910280D9
:10080000F381E02D41E050E0BE016F5F7F4F09951D
:100810000F90DF91CF91089583E08093E90080915C
:10082000F200882319F08AE38093E80008950E947B
:100830002A0190E00895CF93DF931F92CDB7DEB7E2
:10084000FC018485958597FD08C02FEF3FEF358724
:1008500024870F90DF91CF910895CE0101960E94D9
:100860000001019719F4898190E0F3CF8FEF9FEF9A
:10087000F0CF0F931F93CF93DF931F92CDB7DEB7C7
:100880008C01FC018485958597FF0BC0CE010196F4
:100890000E940001019771F4898190E0F801958729
:1008A0008487F801848595850F90DF91CF911F9102
:1008B0000F9108958FEF9FEFF1CFFC01848595850F
:1008C00097FD0BC09FB7F89482E08093E900809178
:1008D000F2009FBF90E0019608959FB7F89482E0E0
:1008E0008093E9008091F2009FBF90E008952091ED
:1008F000D202260F3327331F21323105ECF4209129
:10090000F602FC0190E080E0243069F082E0089576
:10091000A091D2022191AC014E545D4FA40FB52F8E
:10092000B11D2C930196861798F38091D202680F1F
:100930006093D20280E0089581E008951092F6025B
:1009400081E08093F8021092F70261E082E00E9459
:100950004F0161E083E00E944F01E9EBF0E080810C
:100960008E7F808380818D7F808388E48093B80030
:1009700085E48093BC0008950895E0912B03809155
:100980002A03E81730F4F0E0E457FD4F808190E04F
:1009900008958FEF9FEF089590912B0380912A0384
:1009A0002FEF3FEF981748F4E92FF0E0E457FD4FA1
:1009B000208130E09F5F90932B03C90108958091BF
:1009C0002A0390912B03891B990B0895CF93DF93F2
:1009D000CB01EA01642F0E947704CE01DF91CF9111
:1009E0000895CF93DF931F92CDB7DEB7698361E09F
:1009F000CE0101960E94770481E090E00F90DF9194
:100A0000CF91089520913003309131032817390791
:100A100071F490912E0380912F03981741F0E0918B
:100A20002E03F0E0E45BFD4F808190E008958FEFAE
:100A30009FEF0895EF92FF920F931F93CF93DF9351
:100A4000DC015C96ED90FC905D97E114F10479F483
:100A500081E090E013969C938E93129790E080E053
:100A6000DF91CF911F910F91FF90EF9008955196D4
:100A7000ED91FC91529750968C915097982F9095AC
:100A80000FB75E962C915E97122F127021FD609524
:100A9000F8942081112319F1282B2083E701219755
:100AA000F1F728E0462F50E0308160FF1AC0382B64
:100AB0003083E7012197F1F7BA01759567952150C9
:100AC00089F7112381F08081892380830FBF5C9691
:100AD0008D919C910197F1F781E090E0C1CF29239E
:100AE000DCCF3923E5CF9081892BEFCF20913003E4
:100AF000309131032817390761F480912F03209139
:100B00002E0390E0805C9F4F821B91098F73992781
:100B1000089590E080E008952091300330913103F2
:100B200028173907B9F490912E0380912F03981755
:100B300089F0E0912E03F0E0E45BFD4F808120918D
:100B40002E0330E02F5F3F4F2F73332720932E0368
:100B500090E008958FEF9FEF089590E080E0089572
:100B60001F93CF93DF93182F60E080E00E944F0126
:100B700061E084E00E944F0160E081E10E944F014A
:100B8000612F617085E00E944F01C12FD0E0BE014E
:100B900075956795617086E00E944F01BE0175955D
:100BA000679575956795617087E00E944F01BE015A
:100BB00023E0759567952A95E1F7617088E00E94BA
:100BC0004F01BE0134E0759567953A95E1F7617084
:100BD00089E00E944F01BE0145E0759567954A95F1
:100BE000E1F761708AE00E944F0156E0D595C79504
:100BF0005A95E1F76C2F61708BE00E944F01612FD5
:100C0000661F6627661F8CE00E944F0160E084E04B
:100C10000E944F0161E070E080E090E00E941602C7
:100C200061E084E00E944F0161E081E10E944F0198
:100C300061E070E080E090E0DF91CF911F910C9433
:100C4000160261E08DE00E944F0162E070E080E0FA
:100C500090E00E94160260E08DE00E944F016AE081
:100C600070E080E090E00C94160290912A0380914D
:100C70002B039817C1F08FED93E00E94CC042091D4
:100C8000770330E02F5F3F4F2F7333279091760328
:100C9000921759F3E0917703F0E0EA5CFC4F808310
:100CA00020937703E2CF0895CF92DF92EF92FF92E5
:100CB0000E9448026B017C018FE893E00E945D0472
:100CC000892B89F40E9448026C197D098E099F09BD
:100CD000613D77408105910578F380E0FF90EF90CA
:100CE000DF90CF90089581E0F9CFCF93DF9385ED2A
:100CF0008093BC008091AE029091AF02A091B002AF
:100D0000B091B1020796A11DB11D23E0B695A7953C
:100D1000979587952A95D1F72091BC0024FD03C0B3
:100D20001092F60236C04091AE025091AF0260912F
:100D3000B0027091B102452B462B472B69F3009707
:100D4000A105B10541F02AE22A95F1F700C001970B
:100D5000A109B109E1CF8091AD0291E09093AC027D
:100D60008823B9F0C091B800D091BA008091BC003E
:100D70008A7B8093BC0060E082E00E944F0160E0CB
:100D800083E00E944F010E949E04D093BA00C0935A
:100D9000B800DF91CF9108951F920F920FB60F9276
:100DA00011242F933F938F939F93AF93BF93809181
:100DB000790390917A03A0917B03B0917C033091E9
:100DC000780323E0230F2D3758F50196A11DB11D9F
:100DD000209378038093790390937A03A0937B0305
:100DE000B0937C0380917D0390917E03A0917F035B
:100DF000B09180030196A11DB11D80937D03909356
:100E00007E03A0937F03B0938003BF91AF919F9126
:100E10008F913F912F910F900FBE0F901F901895BB
:100E200026E8230F0296A11DB11DD2CF1F920F926B
:100E30000FB60F9211248F939F938091E1009091B0
:100E4000E100937F9093E10083FF0FC01092E900CF
:100E500091E09093EB001092EC0092E39093ED0000
:100E600010928E0398E09093F00082FF22C093E0EE
:100E70009093E9009091F200992319F09AE39093EE
:100E8000E80090912103992341F090912103915022
:100E900090932103911101C05D9890918D03992346
:100EA00041F090918D03915090938D03911101C069
:100EB000289884FF18C08091E2008E7E8160809324
:100EC000E2008091E1008F7E8093E1008091220317
:100ED0008E7E8061809322039F918F910F900FBE31
:100EE0000F901F90189580FFF7CF8091E2008E7EC3
:100EF00080618093E2008091E1008E7E8093E1002A
:100F0000809122038E7E8160E5CF1F920F920FB6F3
:100F10000F921124CF92DF92EF92FF920F931F93C3
:100F20002F933F934F935F936F937F938F939F93F1
:100F3000AF93BF93EF93FF93CF93DF93CDB7DEB71C
:100F40006C97DEBFCDBF1092E9008091E80083FF6F
:100F500025C068E0CE0145960E94370382EF80935A
:100F6000E8008D8987FF39C09091E80090FFFCCFA1
:100F7000982F907609F034C19E894F89588D2F891A
:100F8000F88C911131C0803861F5809123038093F2
:100F9000F1001092F1008EEF8093E8006C960FB68E
:100FA000F894DEBF0FBECDBFDF91CF91FF91EF91DF
:100FB000BF91AF919F918F917F916F915F914F9171
:100FC0003F912F911F910F91FF90EF90DF90CF9065
:100FD0000F900FBE0F901F9018959EEF9093E80012
:100FE000C7CF1092F100D5CF913059F48111D3CFF2
:100FF0004130510581F6809123038D7F8093230337
:10100000CACF933049F48111C6CF4130510519F64A
:10101000809123038260F2CF953041F48091E80003
:1010200080FFFCCF20682093E300B5CF963009F015
:10103000A9C00B8D1C8D22E01092E90010921F03B5
:1010400010921E03F2122EC010921D0310921C0368
:101050000E9406031F8299E09983FA8291E09E83A1
:1010600090EA98879AEF998720911E0330911F0389
:10107000275F3F4F3C832B838D831092E9001092B2
:101080001F0310921E0310931D0300931C0349E0DD
:1010900050E0BE016F5F7F4F80E00E94E0020E943F
:1010A000060379CF10931D0300931C030E943B019C
:1010B000DC0112960D911C910115110509F451C125
:1010C000D801ED91FC910480F581E02DBE016B5EAD
:1010D0007F4FC8010995009709F03EC1F8010085CE
:1010E0001185EACFF3E0FF120EC08F89882309F43F
:1010F00040C0823061F440E86FE080E191E00E94FE
:10110000AD02811148CF81E28093EB0047CF81305F
:1011100029F440E86BE084E091E0F1CF833099F767
:101120000E943B01DC011296ED90FC908E010F5F56
:101130001F4F6801E114F10479F0D701ED91FC91A2
:101140000680F781E02DB801C7010995080F111D30
:10115000F701E084F184EECFD8011C92F6010190F2
:101160000020E9F73197BF016C197D0940E0C60105
:10117000C6CF6EEE70E0FB01449150E080E80E9423
:10118000E00209CF973009F4BECF983021F481E016
:101190008093F10000CF993009F0FDCE837009F003
:1011A000B2CFEDE0F1E081E031E096E3219122233E
:1011B00071F08093E9003093EB00DF0111972C91DF
:1011C0002093EC009093ED008F5F873079F78EE7E6
:1011D0008093EA001092EA008F8980938E03DBCE21
:1011E0008B8D9C8D1092E90010921F0310921E03AC
:1011F00090931D0380931C03898D811192C08E8969
:101200009D89913A49F4813209F07DCF47E050E061
:1012100064E071E080E0B3CF913209F074CF8332A3
:1012200069F48F89988DB0E0A0E0809300019093DD
:101230000101A0930201B0930301ADCE803269F4A5
:101240008091E80082FFFCCF67E084E091E00E949B
:1012500037038BEF8093E8009ECE823209F09BCE5D
:101260008F8980930B01EEEFFFE7859194918B3F7F
:101270009C4D51F1E0E0F8E080910401909105016E
:10128000A0910601B0910701803B9440A105B105F2
:10129000F1F480910B0180FD1AC0EE3F8AE0F8075F
:1012A00089F587E797E79183808380916000809339
:1012B000200388E19BE00FB6F894A8958093600026
:1012C0000FBE9093600067CEEEEFFAE0D5CF80813D
:1012D00091818737974709F05ECEA895809160008D
:1012E0008861809360008091200380936000EE3FCE
:1012F0002AE0F20789F08091FE0A9091FF0A91831B
:10130000808349CE808191818737980751F29093ED
:10131000FF0A8093FE0AC5CF1092FF0A1092FE0AC0
:101320003ACE0E943B01DC0112960D911C910115F1
:10133000110509F4E8CED801ED91FC910190F081FE
:10134000E02DBE016B5E7F4FC8010995811123CE50
:10135000F80100851185EBCF181619060CF41BCE89
:10136000D2CEF1E0FF12BECE62EF70E004CF1F924A
:101370000F920FB60F9211242F933F934F935F93C9
:101380006F937F938F939F93AF93BF93EF93FF934D
:101390008091B900887F803609F44AC0F0F5883220
:1013A00009F4A7C018F5803109F49BC0B8F488236C
:1013B00009F4F9C0883009F494C0FF91EF91BF910E
:1013C000AF919F918F917F916F915F914F913F91DD
:1013D0002F910F900FBE0F901F901895883109F430
:1013E00088C0803251F78093F50214C0803409F42C
:1013F0009DC040F48033B9F38833F9F68093F50249
:1014000085ECB0C0803509F485C0883509F496C0F4
:10141000883499F60E947506D0CF883909F48CC0BB
:1014200038F5883729F050F4883611F0803729F6DE
:1014300083E08093F6021092F40257C0883809F4D2
:101440007BC0803919F0803809F0B7CF8091F40261
:10145000803208F071C0E091F40281E08E0F809339
:10146000F4028091BB00F0E0EC52FD4F80833DC060
:10147000803B39F0E0F4803A09F479C0883A09F009
:101480009CCF84E08093F6021092D3021092D20295
:10149000E0912603F091270309958091D2028111F2
:1014A0000FC081E08093D2021092B20209C0803C4A
:1014B00009F4A6CF883C09F4A3CF883B09F07DCF7F
:1014C000E091D30281E08E0F8093D302F0E0EE54DE
:1014D000FD4F80818093BB009091D3028091D20216
:1014E00029C080911B038093BB0085EC8093BC00D6
:1014F00064CF90911A0380911903981758F5E091E1
:101500001A0381E08E0F80931A03F0E0E750FD4F3D
:101510008081E9CFE0911A0381E08E0F80931A0356
:101520008091BB00F0E0E750FD4F808390911A035B
:10153000809119039817C8F285E8D8CFE0911A0373
:1015400081E08E0F80931A038091BB00F0E0E7509A
:10155000FD4F80838091F80281115CCF81E0809300
:10156000F70284EA8093BC001092F60226CF85EC45
:101570008093BC001092F6028091F402803230F425
:10158000E091F402F0E0EC52FD4F10826091F40221
:1015900070E0E0912403F091250384ED92E0099539
:1015A0001092F4020ACF1092F50234CF1F920F92DC
:1015B0000FB60F9211242F933F934F935F936F9326
:1015C0007F938F939F93AF93BF93EF93FF93E0919C
:1015D0003003F0913103309749F0A685B7858585B2
:1015E000968D91FF14C09C918923A1F4FF91EF91F6
:1015F000BF91AF919F918F917F916F915F914F912B
:101600003F912F910F900FBE0F901F9018959C91B6
:10161000892361F7A389B4899C9185898095892361
:101620008C93868997890197F1F7608D718DA685D6
:10163000B785558538E020E0CB010197F1F7822F7F
:1016400090E095958795282F4C91452309F02068C7
:10165000315091F7868D81FD209580912F0390E088
:1016600001968F73992730912E03381799F0A09126
:101670002F03B0E0A45BBD4F2C9380932F03828D8A
:10168000938D0197F1F7A389B4898C919589892B62
:101690008C93ACCF868D8160868FF1CF10929203B0
:1016A0001092910388EE93E0A0E0B0E08093930362
:1016B00090939403A0939503B093960327E132E0AF
:1016C0003093900320938F032FEF3FEF30939C03D1
:1016D00020939B031092E2031092E1038093E303B3
:1016E0009093E403A093E503B093E60329E232E08C
:1016F0003093E0032093DF031092EE031092ED038A
:101700008093EF039093F003A093F103B093F2035F
:101710008BE392E09093EC038093EB03109202042E
:101720001092010410920404109203041092060413
:1017300010920504109208041092070460910904A5
:101740006E7F6D7F609309046695617081E0682704
:1017500087E10E944F0161E087E10E94C001EFE94B
:10176000F1E0E491E093FB03E0E8F1E0E491F0E0E4
:10177000EE0FFF1FE55AFE4F859194919093FD0364
:101780008093FC0360E08EE00E94C0018091090418
:1017900081FD04C061E08EE00E944F018EE08093E5
:1017A000F703E6E9F1E0E491E093F803E7E7F1E01D
:1017B000E491F0E0EE0FFF1FE35BFE4F8591949103
:1017C0009093FA038093F9030895CF93DF93CDB7F5
:1017D000DEB7C456D1090FB6F894DEBF0FBECDBF39
:1017E000789484B5826084BD84B5816084BD85B5FC
:1017F000826085BD85B5816085BD80916E00816008
:1018000080936E00109281008091810082608093AD
:1018100081008091810081608093810080918000AF
:10182000816080938000809191008260809391001C
:1018300080919100816080939100809190008160FF
:10184000809390008091C10084608093C10080915A
:10185000C10082608093C1008091C100816080934B
:10186000C1008091C30081608093C3008091C0005B
:1018700082608093C0008091C20081608093C2002A
:1018800080917A00846080937A0080917A008260EF
:1018900080937A0080917A00816080937A008091B1
:1018A0007A00806880937A0010928E03109223034E
:1018B000109222038091D70081608093D70080EA44
:1018C0008093D80089B5806189BD89B5826089BD62
:1018D00009B400FEFDCF61E070E080E090E00E947E
:1018E00016028091D8008F7C80618093D80080910F
:1018F000E000807F8093E0008091E1008E7E809305
:10190000E1008DE08093E200559A209A5D98289836
:101910008FEF9FEF90939C0380939B0310922B0378
:1019200010922A0310922903109228030E949E0409
:1019300084E592E0909327038093260385E592E067
:10194000909325038093240380E18093BA0085E37C
:1019500096E090932D0380932C0361E08FE00E942A
:10196000C00160E08EE00E94C00161E08FE00E9453
:101970004F01109206041092050410920404109274
:101980000304109202041092010487E09AE19093FC
:101990000804809307048091F70328EF280F243070
:1019A00048F092EF980F943028F096EE980F93300D
:1019B00008F057C042EF5CE05093020440930104EA
:1019C00045E05AE150930404409303044BE753E18C
:1019D0005093060440930504243050F092EF980F82
:1019E000943030F096EE980FF0E0E0E0933010F491
:1019F000E8E6F0E09081243048F022EF280F243010
:101A000028F08A51F0E0E0E0833010F4E8E6F0E0FE
:101A1000916090832091F70338EF320F343048F013
:101A200082EF820F843028F086EE820F833008F038
:101A3000F2C08BE690E09093FF038093FE03343076
:101A400008F0ECC02450330B81E001C0880F2A95C8
:101A5000EAF78093000480910704909108040197AD
:101A6000F1F78091050490910604892B49F1E091EA
:101A70003003F091310323E0EB3EF20709F1309798
:101A800039F0A389B4899C918589809589238C93A9
:101A9000809109048E7F8093090410922F03109285
:101AA0002E038BEE93E09093310380933003E0910B
:101AB000FE03F091FF03808190910004892B8083C5
:101AC00061E085E00E94C00161E086E00E94C00103
:101AD00061E087E00E94C00161E088E00E94C001EF
:101AE00061E089E00E94C00161E08AE00E94C001DB
:101AF00061E08BE00E94C00161E08CE00E94C001C7
:101B000061E084E00E94C00161E080E00E94C001C9
:101B100061E081E00E94C00161E081E10E94C001BA
:101B200061E080E10E94C00161E08DE00E94C0019F
:101B300061E085E00E944F0161E086E00E944F0174
:101B400061E087E00E944F0161E088E00E944F0160
:101B500061E089E00E944F0161E08AE00E944F014C
:101B600061E08BE00E944F0161E08CE00E944F0138
:101B700061E084E00E944F0160E080E00E944F013C
:101B800061E081E00E944F0161E081E10E944F012C
:101B900061E080E10E944F0160E08DE00E944F0112
:101BA0000E94210664E670E080E090E00E94160248
:101BB00084E10E94B00585E10E94B00588E198E2C9
:101BC0000FB6F894A895809360000FBE90936000C4
:101BD0008E010F5F1F4F90E0E92E90E0F92EA8953F
:101BE000F894D0907703789480917603D81649F1D1
:101BF000E0917603F0E0EA5CFC4F60818FE893E0CF
:101C00000E94F6038091760390E001968F739927E6
:101C100080937603E9CF90E080E00DCF88E02E300E
:101C200009F417CF82E02F3009F413CF84E020317C
:101C300009F40FCF81E0213109F40BCF2651330B8A
:101C400003CF8FE893E00E945D04892B09F491C0D3
:101C50008FE893E00E941B04D82E32E0831366C005
:101C600069E58FE893E00E94F6030E945406811113
:101C70000CC068E58FE893E00E94F603E114F104DC
:101C800009F4ADCF0E940000AACF8FE893E00E9434
:101C90001B046C016CE48FE893E00E94F6036C2D4A
:101CA0008FE893E00E94F60344E64C15A0F058013B
:101CB000DD24C501801B910B8C159D0574F40E94D9
:101CC00054068823B1F28FE893E00E941B04F501CB
:101CD00081935F01EECF6AE5CDCF62E58FE893E0B7
:101CE0000E94F6030E94210664E670E080E090E026
:101CF0000E94160284E10E94B00582E10E94B005B4
:101D00005801C501801B910B8C159D054CF4F50104
:101D100081915F018A3009F48DE00E94B005F1CF16
:101D200067E58FE893E00E94F60323C0F3E08F138A
:101D300067C00E945406882309F4A0CF8FE893E07F
:101D40000E941B04803409F051C060E08FE00E94C3
:101D50004F0168EE73E080E090E00E94160261E0BF
:101D60008FE00E944F0168EE73E080E090E00E94F7
:101D700016028BEE93E00E947605892B79F08BEEAC
:101D800093E00E948C05D82E66E58FE893E00E94D0
:101D9000F6036D2D8FE893E00E94F6030E9448023F
:101DA0004B015C018091320390913303A091340385
:101DB000B0913503A5019401281B390B4A0B5B0B2D
:101DC000DA01C90180319742A105B10508F456CF67
:101DD00060E58FE893E00E94F603809232039092D0
:101DE0003303A0923403B092350348CF682F8BEEB3
:101DF00093E00E941A0564E670E080E090E0B7CFBF
:101E000024E082135DC041E050E069E472E08FE8B5
:101E100093E00E94710383E1A82E81E0B82ED12CBB
:101E2000C12CA89565E48BEE93E00E941A0564E14D
:101E300070E080E090E00E94160261E48BEE93E097
:101E40000E941A0564E170E080E090E00E941602B2
:101E500060E58BEE93E00E941A0564E170E080E09B
:101E600090E00E94160267E78BEE93E00E941A054D
:101E700064E170E080E090E00E9416026C2D8BEE31
:101E800093E00E941A0564E170E080E090E00E9417
:101E90001602F50161915F018BEE93E00E941A0535
:101EA00064E170E080E090E00E941602FFEFCF1A3C
:101EB000DF0AC11421E0D20609F0B3CF62E431CFCA
:101EC00035E0831379C064E48FE893E00E94F60361
:101ED000D12CC12CA8958BEE93E00E947605892B1E
:101EE00029F08BEE93E00E948C05F5CF61E78BEE35
:101EF00093E00E941A0564E170E080E090E00E94A7
:101F0000160261E08BEE93E00E941A0564E170E036
:101F100080E090E00E9416027C2C6C2D8BEE93E00A
:101F20000E941A0564E170E080E090E00E941602D1
:101F30000E9448024B015C018BEE93E00E94760503
:101F4000892B59F40E944802681979098A099B096A
:101F5000613D77408105910578F38BEE93E00E9417
:101F60007605892BF9F08BEE93E00E948C05A82E64
:101F7000F601ED5EFE4FB0808B15A1F065E48FE8B1
:101F800093E00E94F603672D8FE893E00E94F6032A
:101F90006A2D8FE893E00E94F6036B2D8FE893E0A3
:101FA0000E94F6035FEFC51AD50AC11481E0D80676
:101FB00009F090CF66E4B5CEE6E08E1709F4D9CEED
:101FC0006FE38FE893E00E94F6036D2DAACE8BE3BA
:101FD00092E09093EC038093EB0380913003909117
:101FE00031038B5E934071F4E091FE03F091FF03A7
:101FF0009081809100048095892380831092310321
:10200000109230030895EE0FFF1F0590F491E02D1C
:10201000099410E0C5EDD0E004C0FE010E94031059
:0C2020002196C63DD107C9F7F894FFCF08
:10202C00FFFFFFFF00E100000000000000C1808105
:10203C0000000003D905FF00F8016E0A000508072F
:10204C00040003F005CC2800C0000C28B412328028
:10205C0064FF002D593EEC28C8506F254B234832A5
:10206C009226CF421E2786353B3BB82F914AB20EA3
:10207C00CF2F183D672B8B4E32358E2B5143AB2710
:10208C000B4A2D4C14A28D3157250744632808A602
:10209C009D12172C8F32621409A38A141928473AFF
:1020AC00DE3F910000000000000000000000000076
:1020BC000000000000000000000000000000000014
:1020CC000000000000000000000000000000000004
:1020DC0000000000000000000000000000000000F4
:1020EC0000000000000000000000000000000000E4
:1020FC00000000A34536C727034205424497C43964
:10210C004316C359051EC300000000000000000068
:10211C0000000000000000000000000000000000B3
:10212C000000000000000000000000000000003172
:10213C0030323000000000F603710317040C045D0C
:10214C00041B04390400000000F104E604AD05BCD6
:10215C0004DF04CC04BD04000000001A054403ADE8
:0C216C0005BC0476058C0502054100004E
:00000001FF
