:100000000C94D6000C94FE000C94FE000C94FE00A0
:100010000C94FE000C94FE000C94FE000C94FE0068
:100020000C94FE000C94870A0C94C7060C943607B7
:100030000C94FE000C94FE000C94FE000C94FE0048
:100040000C94FE000C94FE000C94FE000C94FE0038
:100050000C94FE000C94FE000C94FE000C947D06A3
:100060000C94FE000C94FE000C94FE000C94FE0018
:100070000C94FE000C94FE000C94FE000C94FE0008
:100080000C94FE000C94FE000C94FE000C94FE00F8
:100090000C9468090C94FE000C94FE000C94FE0075
:1000A0000C94FE000C94FE000C94FE00080B000261
:1000B0000202000009040000010202000005240001
:1000C0001001052401010104240206052406000193
:1000D0000705810310004009040100020A00000026
:1000E00007050202400000070583024000000403E8
:1000F000090412010002EF02014041234680000181
:100100000102030141726475696E6F204C4C43001B
:100110004D696C6C656E6E69756D20426574610029
:1001200000000000240027002A002D0030000000FD
:10013000000200090F0000030401000C0000000091
:1001400000000000000000000000000000000000AF
:10015000002300260029002C002F000000000025AD
:100160000028002B002E00310004040404040304C2
:100170000502020202040302020202060606060645
:100180000604040202020404040802011040804034
:1001900010204080408008020401804020100201AD
:1001A0001080102040402000FF0A590F11241FBE6C
:1001B000CFEFDAE0DEBFCDBF12E0A0E0B1E0E0E1DA
:1001C000FFE102C005900D92AE34B107D9F723E0EC
:1001D000AEE4B2E001C01D92A63CB207E1F710E028
:1001E000C5EDD0E004C02197FE010E94750FC43D0B
:1001F000D107C9F70E94960B0C947B0F0C9400005A
:10020000FC0180914A03882311F13FB7F89482E002
:100210008093E9002091F200822F90E018161906D1
:1002200014F481E090E0882339F0289A44E6409362
:1002300049034091F1004083222339F02091F200DC
:10024000211103C02BE62093E8003FBF08958FEFF4
:100250009FEF08952FB7F89483E08093E900909181
:10026000E800892F807295FF04C09091F20080E42D
:10027000891B2FBF08958091410381110DC082E039
:1002800080933D0384E080933E03109240031092DC
:100290003F0381E0809341038DE393E00895282F8D
:1002A00030E0F901E25DFE4F9491F901E857FE4F0D
:1002B000849127593E4FF9012491222309F430C03B
:1002C0009923E9F091509F30D0F4E92FF0E0E559FF
:1002D000FE4F0C94750F99019D017A0191019501D2
:1002E0007F017F017F01A001A601AA01AE01B40137
:1002F0007F01B801909180009F7790938000E22F5A
:10030000F0E0EE0FFF1FE55AFE4FA591B4919FB7A5
:10031000F894EC91611132C080958E238C939FBF2D
:100320000895909180009F7DE8CF90918000977F05
:10033000E4CF94B59F7794BDE2CF94B59F7DFBCF7A
:10034000909190009F7790939000D9CF90919000DA
:100350009F7DF9CF90919000977FF5CF9091C0004D
:100360009F779093C000CBCF9091C0009F7DF9CF35
:100370009091C200977F9093C200C1CF8E2BCECFB9
:10038000CF93DF9390E0FC01E857FE4F249187590B
:100390009E4FFC0184918823D1F090E0880F991F33
:1003A000FC01E05EFE4FA591B491FC01E55AFE4FC1
:1003B000C591D49161110EC09FB7F8948C91E22F32
:1003C000E0958E238C932881E223E8839FBFDF9101
:1003D000CF9108958FB7F894EC91E22BEC938FBFF7
:1003E000F6CF3FB7F8948091390390913A03A091EA
:1003F0003B03B0913C0326B5A89B05C02F3F19F0E5
:100400000196A11DB11D3FBFBA2FA92F982F882794
:10041000BC01CD01620F711D811D911D42E0660F6F
:10042000771F881F991F4A95D1F708958F929F9241
:10043000AF92BF92CF92DF92EF92FF924B015C019D
:100440000E94F1016B017C010E94F1016C197D0990
:100450008E099F09683E734081059105A8F321E04C
:10046000821A9108A108B10888EEC80E83E0D81E50
:10047000E11CF11C81149104A104B10429F7FF903F
:10048000EF90DF90CF90BF90AF909F908F900895A6
:100490000895CF93DF93AC01E0912E03F0912F03E9
:1004A0003097F1F090912D0380912C039817C0F0B4
:1004B00090E0292F30E02617370754F4D901A257CE
:1004C000BD4F240F351FE90128812C939F5FF1CF89
:1004D00010922D0360932C03CB01DF91CF910994EF
:1004E000DF91CF91089540912003509121032091F5
:1004F0001E0330911F0342175307B4F49091E80094
:100500009570E1F39091E80092FD19C08093F1009D
:10051000809120039091210301968F739927892B55
:1005200019F48EEF8093E8008091200390912103CD
:100530000196909321038093200381E0089580E049
:100540000895EF92FF920F931F93CF93DF93F82EAE
:10055000192FE62E042F81E0860F880F0E94730268
:1005600083E00E947302CF2DD12FEC0EFD2EF11CE3
:10057000CE15DF05B9F007FF13C0FE0184910E947C
:100580007302182F80E00E9473028123219681114B
:10059000EFCFDF91CF911F910F91FF90EF900895D2
:1005A0008881EDCF81E0F5CFDF92EF92FF920F933C
:1005B0001F93CF93DF93D82E8A01EB017B01E40ECA
:1005C000F51ECE15DF0559F0D7FE12C0FE0184914D
:1005D0000E94730221968111F4CF0FEF1FEFC80123
:1005E000DF91CF911F910F91FF90EF90DF900895D1
:1005F0008881EECF0F931F93CF93DF931F92CDB7D8
:10060000DEB782E0898342E450E06CEA70E080E883
:100610000E94D4020E943B01DC0112960D911C91B4
:100620000115110589F0D801ED91FC910280F3814B
:10063000E02DBE016F5F7F4FC801099597FD04C093
:10064000F80100851185ECCF89810F90DF91CF9162
:100650001F910F910895615030F02091F100FC013D
:1006600020830196F8CF289A84E680934903089561
:10067000AF92BF92CF92DF92EF92FF920F931F93B0
:10068000CF93DF936C017B018B01040F151FEB01EE
:100690005E01AE18BF08C017D10759F06991D601A5
:1006A000ED91FC910190F081E02DC6010995892B17
:1006B00079F7C501DF91CF911F910F91FF90EF90D6
:1006C000DF90CF90BF90AF9008958F929F92AF929E
:1006D000BF92CF92DF92EF92FF920F931F93CF932F
:1006E000DF936C017B018A0180910B01882309F45F
:1006F0005CC080914A03882309F457C08091240389
:1007000080FF05C08091E00082608093E000E801F6
:10071000B12C8AEFA82E93E0892E2AE3922E2097FF
:1007200011F4BB20D9F10E942A0181110AC0AA94B8
:10073000AA20D9F161E070E080E090E00E9416020A
:10074000EECF8C171D0611F00CF08C2F9FB7F8948C
:100750008092E9002091E80025FD02C09FBFDFCF15
:10076000282F30E0C21BD30BF701815020F04191BC
:100770004093F100FACFE20EF31EBB2021F09092DD
:10078000E800B12CEBCF8091E80085FDE7CF909297
:10079000E800BB24B394209709F3F3CF5D9A84E675
:1007A00080932303101611063CF081E090E0F601DF
:1007B0009383828310E000E0C801DF91CF911F9105
:1007C0000F91FF90EF90DF90CF90BF90AF909F90F0
:1007D0008F900895CF93DF931F92CDB7DEB76983D3
:1007E000DC01ED91FC910280F381E02D41E050E0CD
:1007F000BE016F5F7F4F09950F90DF91CF910895F4
:1008000083E08093E9008091F200882319F08AE365
:100810008093E80008950E942A0190E00895CF9304
:10082000DF931F92CDB7DEB7FC018485958597FDD8
:1008300008C02FEF3FEF358724870F90DF91CF91CE
:100840000895CE0101960E940001019719F4898153
:1008500090E0F3CF8FEF9FEFF0CF0F931F93CF93E5
:10086000DF931F92CDB7DEB78C01FC01848595859F
:1008700097FF0BC0CE0101960E940001019771F411
:10088000898190E0F80195878487F80184859585B2
:100890000F90DF91CF911F910F9108958FEF9FEFF0
:1008A000F1CFFC018485958597FD0BC09FB7F89427
:1008B00082E08093E9008091F2009FBF90E0019672
:1008C00008959FB7F89482E08093E9008091F20048
:1008D0009FBF90E008952091D402260F3327331F45
:1008E00021323105ECF42091F802FC0190E080E027
:1008F000243069F082E00895A091D4022191AC01E6
:100900004C545D4FA40FB52FB11D2C930196861743
:1009100098F38091D402680F6093D40280E0089528
:1009200081E008951092F80281E08093FA0210921B
:10093000F90261E082E00E944F0161E083E00E94E1
:100940004F01E9EBF0E080818E7F808380818D7F95
:10095000808388E48093B80085E48093BC00089588
:100960000895E0912D0380912C03E81730F4F0E016
:10097000E257FD4F808190E008958FEF9FEF08953B
:1009800090912D0380912C032FEF3FEF981748F49F
:10099000E92FF0E0E257FD4F208130E09F5F909318
:1009A0002D03C901089580912C0390912D03891B7B
:1009B000990B0895CF93DF93CB01EA01642F0E9436
:1009C0006B04CE01DF91CF910895CF93DF931F92F7
:1009D000CDB7DEB7698361E0CE0101960E946B045A
:1009E00081E090E00F90DF91CF9108952091320344
:1009F000309133032817390771F4909130038091B7
:100A00003103981741F0E0913003F0E0E25BFD4FD5
:100A1000808190E008958FEF9FEF0895EF92FF920D
:100A20000F931F93CF93DF93DC015C96ED90FC90C6
:100A30005D97E114F10479F481E090E013969C93C2
:100A40008E93129790E080E0DF91CF911F910F91EC
:100A5000FF90EF9008955196ED91FC91529750962A
:100A60008C915097982F90950FB75E962C915E972A
:100A7000122F127021FD6095F8942081112319F135
:100A8000282B2083E7012197F1F728E0462F50E03B
:100A9000308160FF1AC0382B3083E7012197F1F7CE
:100AA000BA0175956795215089F7112381F08081EE
:100AB000892380830FBF5C968D919C910197F1F7FC
:100AC00081E090E0C1CF2923DCCF3923E5CF9081AD
:100AD000892BEFCF20913203309133032817390748
:100AE00061F4809131032091300390E0805C9F4F4E
:100AF000821B91098F739927089590E080E00895F3
:100B0000209132033091330328173907B9F49091BB
:100B1000300380913103981789F0E0913003F0E0C1
:100B2000E25BFD4F80812091300330E02F5F3F4F2B
:100B30002F7333272093300390E008958FEF9FEFBA
:100B4000089590E080E008951F93CF93DF93182FCE
:100B500060E080E00E944F0161E084E00E944F016C
:100B600060E081E10E944F01612F617085E00E9489
:100B70004F01C12FD0E0BE0175956795617086E089
:100B80000E944F01BE0175956795759567956170D7
:100B900087E00E944F01BE0123E0759567952A9575
:100BA000E1F7617088E00E944F01BE0134E0759565
:100BB00067953A95E1F7617089E00E944F01BE01A7
:100BC00045E0759567954A95E1F761708AE00E9466
:100BD0004F0156E0D595C7955A95E1F76C2F617096
:100BE0008BE00E944F01612F661F6627661F8CE015
:100BF0000E944F0160E084E00E944F0161E070E0DC
:100C000080E090E00E94160261E084E00E944F01C3
:100C100061E081E10E944F0161E070E080E090E0DE
:100C2000DF91CF911F910C94160290912C0380912B
:100C30002D03981751F08BE993E00E94C004682FB0
:100C40008BE493E00E94EA03F0CF0895CF93DF9303
:100C500085ED8093BC008091B0029091B102A0918B
:100C6000B202B091B3020796A11DB11D23E0B69563
:100C7000A795979587952A95D1F72091BC0024FDDB
:100C800003C01092F80236C04091B0025091B102F8
:100C90006091B2027091B302452B462B472B69F34A
:100CA0000097A105B10541F02AE22A95F1F700C0AD
:100CB0000197A109B109E1CF8091AF0291E0909332
:100CC000AE028823B9F0C091B800D091BA008091EB
:100CD000BC008A7B8093BC0060E082E00E944F01F0
:100CE00060E083E00E944F010E949204D093BA001A
:100CF000C093B800DF91CF9108951F920F920FB665
:100D00000F9211242F933F938F939F93AF93BF9391
:100D10008091350390913603A0913703B091380349
:100D20003091340323E0230F2D3758F50196A11D90
:100D3000B11D209334038093350390933603A09321
:100D40003703B09338038091390390913A03A0910F
:100D50003B03B0913C030196A11DB11D8093390363
:100D600090933A03A0933B03B0933C03BF91AF91A0
:100D70009F918F913F912F910F900FBE0F901F90D9
:100D8000189526E8230F0296A11DB11DD2CF1F9200
:100D90000F920FB60F9211248F939F938091E100D1
:100DA0009091E100937F9093E10083FF0FC0109238
:100DB000E90091E09093EB001092EC0092E39093A5
:100DC000ED0010924A0398E09093F00082FF22C059
:100DD00093E09093E9009091F200992319F09AE33F
:100DE0009093E80090912303992341F0909123037D
:100DF000915090932303911101C05D989091490304
:100E0000992341F090914903915090934903911196
:100E100001C0289884FF18C08091E2008E7E816016
:100E20008093E2008091E1008F7E8093E1008091C9
:100E300024038E7E8061809324039F918F910F9075
:100E40000FBE0F901F90189580FFF7CF8091E200A2
:100E50008E7E80618093E2008091E1008E7E80939F
:100E6000E100809124038E7E8160E5CF1F920F9276
:100E70000FB60F921124CF92DF92EF92FF920F9351
:100E80001F932F933F934F935F936F937F938F9312
:100E90009F93AF93BF93EF93FF93CF93DF93CDB720
:100EA000DEB76C97DEBFCDBF1092E9008091E800FD
:100EB00083FF25C068E0CE0145960E942B0382EF98
:100EC0008093E8008D8987FF39C09091E80090FFFA
:100ED000FCCF982F907609F034C19E894F89588DA8
:100EE0002F89F88C911131C0803861F580912503EC
:100EF0008093F1001092F1008EEF8093E8006C96E1
:100F00000FB6F894DEBF0FBECDBFDF91CF91FF913A
:100F1000EF91BF91AF919F918F917F916F915F9171
:100F20004F913F912F911F910F91FF90EF90DF9084
:100F3000CF900F900FBE0F901F9018959EEF90933B
:100F4000E800C7CF1092F100D5CF913059F481114C
:100F5000D3CF4130510581F6809125038D7F809359
:100F60002503CACF933049F48111C6CF41305105D2
:100F700019F6809125038260F2CF953041F480917B
:100F8000E80080FFFCCF20682093E300B5CF9630C7
:100F900009F0A9C00B8D1C8D22E01092E90010927F
:100FA000210310922003F2122EC010921F03109200
:100FB0001E030E94FA021F8299E09983FA8291E04F
:100FC0009E8390EA98879AEF998720912003309129
:100FD0002103275F3F4F3C832B838D831092E900D1
:100FE000109221031092200310931F0300931E03FD
:100FF00049E050E0BE016F5F7F4F80E00E94D40265
:101000000E94FA0279CF10931F0300931E030E94DF
:101010003B01DC0112960D911C910115110509F49B
:1010200051C1D801ED91FC910480F581E02DBE0104
:101030006B5E7F4FC8010995009709F03EC1F8012A
:1010400000851185EACFF3E0FF120EC08F89882357
:1010500009F440C0823061F440E86FE080E191E043
:101060000E94A102811148CF81E28093EB0047CF1B
:10107000813029F440E86BE084E091E0F1CF8330E7
:1010800099F70E943B01DC011296ED90FC908E01D5
:101090000F5F1F4F6801E114F10479F0D701ED9162
:1010A000FC910680F781E02DB801C7010995080F72
:1010B000111DF701E084F184EECFD8011C92F601F6
:1010C00001900020E9F73197BF016C197D0940E0DC
:1010D000C601C6CF6EEE70E0FB01449150E080E89F
:1010E0000E94D40209CF973009F4BECF983021F482
:1010F00081E08093F10000CF993009F0FDCE83703C
:1011000009F0B2CFEDE0F1E081E031E096E321912A
:10111000222371F08093E9003093EB00DF011197F7
:101120002C912093EC009093ED008F5F873079F73E
:101130008EE78093EA001092EA008F8980934A0339
:10114000DBCE8B8D9C8D1092E900109221031092C2
:10115000200390931F0380931E03898D811192C0F9
:101160008E899D89913A49F4813209F07DCF47E01B
:1011700050E064E071E080E0B3CF913209F074CFC9
:10118000833269F48F89988DB0E0A0E080930001EC
:1011900090930101A0930201B0930301ADCE803280
:1011A00069F48091E80082FFFCCF67E084E091E081
:1011B0000E942B038BEF8093E8009ECE823209F0D1
:1011C0009BCE8F8980930B01EEEFFFE78591949181
:1011D0008B3F9C4D51F1E0E0F8E08091040190914B
:1011E0000501A0910601B0910701803B9440A10543
:1011F000B105F1F480910B0180FD1AC0EE3F8AE049
:10120000F80789F587E797E79183808380916000ED
:101210008093220388E19BE00FB6F894A895809311
:1012200060000FBE9093600067CEEEEFFAE0D5CF7E
:10123000808191818737974709F05ECEA89580918C
:101240006000886180936000809122038093600039
:10125000EE3F2AE0F20789F08091FE0A9091FF0AA2
:101260009183808349CE808191818737980751F29D
:101270009093FF0A8093FE0AC5CF1092FF0A109246
:10128000FE0A3ACE0E943B01DC0112960D911C91A0
:101290000115110509F4E8CED801ED91FC910190FA
:1012A000F081E02DBE016B5E7F4FC8010995811171
:1012B00023CEF80100851185EBCF181619060CF422
:1012C0001BCED2CEF1E0FF12BECE62EF70E004CFB3
:1012D0001F920F920FB60F9211242F933F934F93AB
:1012E0005F936F937F938F939F93AF93BF93EF938E
:1012F000FF938091B900887F803609F44AC0F0F5E9
:10130000883209F4A7C018F5803109F49BC0B8F4FD
:10131000882309F4F9C0883009F494C0FF91EF9153
:10132000BF91AF919F918F917F916F915F914F91FD
:101330003F912F910F900FBE0F901F9018958831FD
:1013400009F488C0803251F78093F70214C08034CA
:1013500009F49DC040F48033B9F38833F9F68093E3
:10136000F70285ECB0C0803509F485C0883509F4F2
:1013700096C0883499F60E942606D0CF883909F4A1
:101380008CC038F5883729F050F4883611F0803752
:1013900029F683E08093F8021092F60257C088384D
:1013A00009F47BC0803919F0803809F0B7CF8091FB
:1013B000F602803208F071C0E091F60281E08E0FF3
:1013C0008093F6028091BB00F0E0EA52FD4F8083EB
:1013D0003DC0803B39F0E0F4803A09F479C0883AA6
:1013E00009F09CCF84E08093F8021092D50210920D
:1013F000D402E0912803F091290309958091D40249
:1014000081110FC081E08093D4021092B40209C010
:10141000803C09F4A6CF883C09F4A3CF883B09F0AF
:101420007DCFE091D50281E08E0F8093D502F0E070
:10143000EC54FD4F80818093BB009091D502809148
:10144000D40229C080911D038093BB0085EC80935A
:10145000BC0064CF90911C0380911B03981758F532
:10146000E0911C0381E08E0F80931C03F0E0E550B7
:10147000FD4F8081E9CFE0911C0381E08E0F8093C6
:101480001C038091BB00F0E0E550FD4F80839091FC
:101490001C0380911B039817C8F285E8D8CFE09110
:1014A0001C0381E08E0F80931C038091BB00F0E051
:1014B000E550FD4F80838091FA0281115CCF81E07D
:1014C0008093F90284EA8093BC001092F80226CF40
:1014D00085EC8093BC001092F8028091F602803275
:1014E00030F4E091F602F0E0EA52FD4F1082609194
:1014F000F60270E0E0912603F091270386ED92E07A
:1015000009951092F6020ACF1092F70234CF1F927B
:101510000F920FB60F9211242F933F934F935F9327
:101520006F937F938F939F93AF93BF93EF93FF93AB
:10153000E0913203F0913303309749F0A685B785E7
:101540008585968D91FF14C09C918923A1F4FF910C
:10155000EF91BF91AF919F918F917F916F915F912B
:101560004F913F912F910F900FBE0F901F901895A4
:101570009C91892361F7A389B4899C918589809581
:1015800089238C93868997890197F1F7608D718DF6
:10159000A685B785558538E020E0CB010197F1F7A6
:1015A000822F90E095958795282F4C91452309F03F
:1015B0002068315091F7868D81FD2095809131030F
:1015C00090E001968F73992730913003381799F086
:1015D000A0913103B0E0A25BBD4F2C938093310307
:1015E000828D938D0197F1F7A389B4898C919589A8
:1015F000892B8C93ACCF868D8160868FF1CF109232
:101600004E0310924D0388EE93E0A0E0B0E080938B
:101610004F0390935003A0935103B093520327E1DB
:1016200032E030934C0320934B032FEF3FEF309386
:1016300058032093570310929E0310929D038093AA
:101640009F039093A003A093A103B093A20329E268
:1016500032E030939C0320939B031092AA031092D4
:10166000A9038093AB039093AC03A093AD03B09315
:10167000AE038BE392E09093A8038093A7031092AC
:10168000BE031092BD031092C0031092BF031092CC
:10169000C2031092C1031092C4031092C30360915D
:1016A000C5036E7F6D7F6093C5036695617081E0B1
:1016B000682787E10E944F0161E087E10E94C00135
:1016C000EFE9F1E0E491E093B703E0E8F1E0E491C1
:1016D000F0E0EE0FFF1FE55AFE4F85919491909335
:1016E000B9038093B80360E08EE00E94C00180914E
:1016F000C50381FD04C061E08EE00E944F018EE0D1
:101700008093B303E6E9F1E0E491E093B403E7E703
:10171000F1E0E491F0E0EE0FFF1FE35BFE4F8591F7
:1017200094919093B6038093B5030895CF93DF937C
:10173000CDB7DEB7C456D1090FB6F894DEBF0FBEE1
:10174000CDBF789484B5826084BD84B5816084BD4A
:1017500085B5826085BD85B5816085BD80916E004F
:10176000816080936E001092810080918100826080
:1017700080938100809181008160809381008091BD
:1017800080008160809380008091910082608093CE
:1017900091008091910081608093910080919000F0
:1017A0008160809390008091C10084608093C1002B
:1017B0008091C10082608093C1008091C1008160EE
:1017C0008093C1008091C30081608093C3008091A9
:1017D000C00082608093C0008091C20081608093CD
:1017E000C20080917A00846080937A0080917A00B0
:1017F000826080937A0080917A00816080937A0081
:1018000080917A00806880937A0010924A03109247
:101810002503109224038091D70081608093D70024
:1018200080EA8093D80089B5806189BD89B58260DE
:1018300089BD09B400FEFDCF61E070E080E090E07A
:101840000E9416028091D8008F7C80618093D8001E
:101850008091E000807F8093E0008091E1008E7EA7
:101860008093E1008DE08093E200559A209A5D9884
:1018700028988FEF9FEF909358038093570310920F
:101880002D0310922C0310922B0310922A030E9416
:10189000920488E492E0909329038093280389E4DA
:1018A00092E090932703809326031092BA0085E17B
:1018B00096E090932F0380932E0361E08FE00E94C7
:1018C000C00160E08EE00E94C00161E08FE00E94F4
:1018D0004F011092C2031092C1031092C0031092E4
:1018E000BF031092BE031092BD0387E09AE190936C
:1018F000C4038093C3038091B30328EF280F2430DF
:1019000048F092EF980F943028F096EE980F9330AD
:1019100008F057C042EF5CE05093BE034093BD0314
:1019200045E05AE15093C0034093BF034BE753E1B6
:101930005093C2034093C103243050F092EF980FAC
:10194000943030F096EE980FF0E0E0E0933010F431
:10195000E8E6F0E09081243048F022EF280F2430B0
:1019600028F08A51F0E0E0E0833010F4E8E6F0E09F
:10197000916090832091B30338EF320F343048F0F8
:1019800082EF820F843028F086EE820F833008F0D9
:101990000DC18BE690E09093BB038093BA03343083
:1019A00008F007C12450330B81E001C0880F2A954D
:1019B000EAF78093BC038091C3039091C40301971D
:1019C000F1F78091C1039091C203892B49F1E09115
:1019D0003203F091330383E0E73AF80709F13097D7
:1019E00039F0A389B4899C918589809589238C934A
:1019F0008091C5038E7F8093C503109231031092AE
:101A0000300387EA93E09093330380933203E091AD
:101A1000BA03F091BB0380819091BC03892B808332
:101A200061E085E00E94C00161E086E00E94C001A3
:101A300061E087E00E94C00161E088E00E94C0018F
:101A400061E089E00E94C00161E08AE00E94C0017B
:101A500061E08BE00E94C00161E08CE00E94C00167
:101A600061E084E00E94C00161E080E00E94C0016A
:101A700061E081E00E94C00161E081E10E94C0015B
:101A800061E080E10E94C00161E08DE00E94C00140
:101A900061E085E00E944F0161E086E00E944F0115
:101AA00061E087E00E944F0161E088E00E944F0101
:101AB00061E089E00E944F0161E08AE00E944F01ED
:101AC00061E08BE00E944F0161E08CE00E944F01D9
:101AD00061E084E00E944F0160E080E00E944F01DD
:101AE00061E081E00E944F0161E081E10E944F01CD
:101AF00061E080E10E944F0160E08DE00E944F01B3
:101B000061E08DE00E944F0162E070E080E090E0D3
:101B10000E94160260E08DE00E944F016AE070E0D2
:101B200080E090E00E94160264E670E080E090E0C1
:101B30000E94160284E10E94A40585E10E94A4058A
:101B4000FE0131967F0120E0C22E20E0D22E8BE4F0
:101B500093E00E945104892B09F4B8C08BE493E010
:101B60000E940F04823009F08EC08BE493E00E9443
:101B70005104892BD1F38BE493E00E940F045701A9
:101B80008C011127C5018E199F098017910724F533
:101B90008BE493E00E945104892BD1F38BE493E012
:101BA0000E940F04F50181935F01ECCF90E080E08B
:101BB000F2CE88E02E3009F4FCCE82E02F3009F41A
:101BC000F8CE84E0203109F4F4CE81E0213109F42B
:101BD000F0CE2651330BE8CE64E670E080E090E072
:101BE0000E94160261E080E00E944F0161E084E003
:101BF0000E944F0160E081E10E944F0160E085E0BA
:101C00000E944F0160E086E00E944F0160E087E0A3
:101C10000E944F0160E088E00E944F0160E089E08F
:101C20000E944F0160E08AE00E944F0160E08BE07B
:101C30000E944F0160E08CE00E944F0160E084E070
:101C40000E944F0161E070E080E090E00E94160287
:101C500061E084E00E944F0161E081E10E944F0158
:101C600061E070E080E090E00E9416025701C5013B
:101C70008E199F09801791074CF5F50181915F013D
:101C80000E94A405F4CF833009F049C08BE493E0AF
:101C90000E945104892BD1F38BE493E00E940F043E
:101CA000803499F560E08FE00E944F0168EE73E0A8
:101CB00080E090E00E94160261E08FE00E944F01F8
:101CC00068EE73E080E090E00E94160287EA93E0FD
:101CD0000E946A05892B91F087EA93E00E948005B3
:101CE000182F41E050E06BE472E08BE493E00E9437
:101CF0006503612F8BE493E00E94EA03C114D104D1
:101D000009F425CF0E94000022CF682F87EA93E0D4
:101D10000E940E0564E670E080E090E0D5CF84304C
:101D200009F05FC041E050E069E472E08BE493E0C9
:101D30000E94650393E1A92E91E0B92E10E000E026
:101D400065E487EA93E00E940E0564E170E080E0BC
:101D500090E00E94160261E487EA93E00E940E057B
:101D600064E170E080E090E00E94160260E587EA9E
:101D700093E00E940E0564E170E080E090E00E9434
:101D8000160267E787EA93E00E940E0564E170E0BF
:101D900080E090E00E941602602F87EA93E00E94A4
:101DA0000E0564E170E080E090E00E941602F5010B
:101DB00061915F0187EA93E00E940E0564E170E0A3
:101DC00080E090E00E9416020F5F1F4F0115F1E0C6
:101DD0001F0709F0B5CF62E48BE493E00E94EA03A9
:101DE00075CF853009F072CF64E48BE493E00E94F4
:101DF000EA0383E1A82E81E0B82E10E000E087EA34
:101E000093E00E946A05892B29F087EA93E00E94FB
:101E10008005F5CF61E787EA93E00E940E0564E153
:101E200070E080E090E00E94160261E087EA93E0B3
:101E30000E940E0564E170E080E090E00E941602CE
:101E4000702E602F87EA93E00E940E0564E170E037
:101E500080E090E00E94160287EA93E00E946A0503
:101E6000892BD1F387EA93E00E948005882EF50143
:101E700091905F018915A1F065E48BE493E00E94E5
:101E8000EA03672D8BE493E00E94EA03682D8BE45C
:101E900093E00E94EA03692D8BE493E00E94EA0339
:101EA0000F5F1F4F0115F1E01F0709F0A8CF66E48F
:101EB00093CF8BE392E09093A8038093A703809144
:101EC000320390913303875A934071F4E091BA033F
:101ED000F091BB0390818091BC038095892380831E
:101EE00010923303109232030895EE0FFF1F0590F6
:101EF000F491E02D099410E0C5EDD0E004C0FE019E
:101F00000E94750F2196C63DD107C9F7F894FFCFFF
:101F1000FFFFFFFF00E100000000000000C1808122
:101F200000000003D905FF00F8016E0A000508074C
:101F3000040003F005CC2800C0000C28B412328045
:101F400064FF002D593EEC28C8506F254B234832C2
:101F50009226CF421E2786353B3BB82F914AB20EC0
:101F6000CF2F183D672B8B4E32358E2B5143AB272D
:101F70000B4A2D4C14A28D3157250744632808A61F
:101F80009D12172C8F32621409A38A141928473A1C
:101F9000DE3F910000000000000000000000000093
:101FA0000000000000000000000000000000000031
:101FB0000000000000000000000000000000000021
:101FC0000000000000000000000000000000000011
:101FD0000000000000000000000000000000000001
:101FE000000000A34536C727034205424497C43981
:101FF0004316C359051EC300000000000000000086
:1020000000000000000000000000000000000000D0
:10201000000000000000000000000000000000318F
:1020200030323000000000EA0365030B0400045165
:10203000040F042D0400000000E504DA04A105B03B
:1020400004D304C004B104000000000E053803A14D
:0E20500005B0046A058005F604410056000044
:00000001FF
