:100000000C9404010C942C010C942C010C942C01E4
:100010000C942C010C942C010C942C010C942C01AC
:100020000C942C010C94F20B0C9432080C94A10843
:100030000C942C010C942C010C942C010C942C018C
:100040000C942C010C942C010C942C010C942C017C
:100050000C942C010C942C010C942C010C94E807AA
:100060000C942C010C942C010C942C010C942C015C
:100070000C942C010C942C010C942C010C942C014C
:100080000C942C010C942C010C942C010C942C013C
:100090000C94D30A0C942C010C942C010C942C017C
:1000A0000C942C010C942C010C942C01726573653A
:1000B000745F63617573653D004D494C4C454E4E10
:1000C00049554D20726F6C653D646973706C617940
:1000D0002076657273696F6E3D302E342E3020703D
:1000E000726F746F636F6C3D32206275696C643D32
:1000F0006130313435623165306632342073656C7D
:1001000066746573743D6F6B00080B000202020099
:10011000000904000001020200000524001001058E
:1001200024010101042402060524060001070581BB
:100130000310004009040100020A00000007050244
:100140000240000007058302400000040309041276
:10015000010002EF02014041234680000101020339
:100160000141726475696E6F204C4C43004D696C9F
:100170006C656E6E69756D204265746100000000EB
:1001800000240027002A002D00300000000002009B
:10019000090F0000030401000C0000000000000033
:1001A000000000000000000000000000000023002C
:1001B000260029002C002F00000000002500280048
:1001C0002B002E0031000404040404030405020281
:1001D00002020403020202020606060606060404E0
:1001E0000202020404040802011040804010204072
:1001F000804080080204018040201002011080101D
:10020000204040206A0C511411241FBECFEFDAE0C9
:10021000DEBFCDBF12E0A0E0B1E0EEE7F9E202C040
:1002200005900D92A035B107D9F725E0A0E5B2E021
:1002300001C01D92AD3CB207E1F711E0C3E0D1E08F
:1002400004C02197FE010E94A314C230D107C9F750
:100250000E94050D0C94B2140C9400002FB7F89472
:1002600083E08093E9009091E800892F807295FFE8
:1002700004C09091F20080E4891B2FBF0895FC0117
:100280008091E404882311F13FB7F89482E08093D1
:10029000E9002091F200822F90E01816190614F45C
:1002A00081E090E0882339F0289A44E64093E30403
:1002B0004091F1004083222339F02091F200211176
:1002C00003C02BE62093E8003FBF08958FEF9FEF18
:1002D00008958091DB0481110DC082E08093D704E2
:1002E00084E08093D8041092DA041092D90481E05B
:1002F0008093DB0487ED94E00895282F30E0F90126
:10030000E557FE4F9491F901EB51FE4F84912A532A
:100310003E4FF9012491222309F430C09923E9F0DA
:1003200091509F30D0F4E92FF0E0E756FE4F0C9447
:10033000A314C701CB01A801BF01C301AD01AD01E9
:10034000AD01CE01D401D801DC01E201AD01E6012D
:10035000909180009F7790938000E22FF0E0EE0F65
:10036000FF1FE854FE4FA591B4919FB7F894EC910C
:10037000611132C080958E238C939FBF0895909118
:1003800080009F7DE8CF90918000977FE4CF94B567
:100390009F7794BDE2CF94B59F7DFBCF9091900065
:1003A0009F7790939000D9CF909190009F7DF9CF47
:1003B00090919000977FF5CF9091C0009F77909398
:1003C000C000CBCF9091C0009F7DF9CF9091C2002B
:1003D000977F9093C200C1CF8E2BCECFCF93DF9368
:1003E00090E0FC01EB51FE4F24918A539E4FFC019B
:1003F00084918823D1F090E0880F991FFC01E35885
:10040000FE4FA591B491FC01E854FE4FC591D491E3
:1004100061110EC09FB7F8948C91E22FE0958E2366
:100420008C932881E223E8839FBFDF91CF910895C9
:100430008FB7F894EC91E22BEC938FBFF6CF3FB7D8
:10044000F8948091D3049091D404A091D504B091F4
:10045000D60426B5A89B05C02F3F19F00196A11D13
:10046000B11D3FBFBA2FA92F982F8827BC01CD01FE
:10047000620F711D811D911D42E0660F771F881F5D
:10048000991F4A95D1F708958F929F92AF92BF928C
:10049000CF92DF92EF92FF924B015C010E941F020C
:1004A0006B017C010E941F026C197D098E099F0956
:1004B000683E734081059105A8F321E0821A9108F6
:1004C000A108B10888EEC80E83E0D81EE11CF11C1B
:1004D00081149104A104B10429F7FF90EF90DF90FB
:1004E000CF90BF90AF909F908F9008952FB7F894C2
:1004F0006091CF047091D0048091D1049091D20486
:100500002FBF08950895CF93DF93AC01E09131039D
:10051000F09132033097F1F09091300380912F03E6
:100520009817C0F090E0292F30E02617370754F4D1
:10053000D901AF56BD4F240F351FE90128812C93F7
:100540009F5FF1CF1092300360932F03CB01DF91B7
:10055000CF910994DF91CF91089540912303509159
:100560002403209121033091220342175307B4F44E
:100570009091E8009570E1F39091E80092FD19C028
:100580008093F100809123039091240301968F734F
:100590009927892B19F48EEF8093E800809123032B
:1005A000909124030196909324038093230381E088
:1005B000089580E00895EF92FF920F931F93CF93D9
:1005C000DF93F82E192FE62E042F81E0860F880F77
:1005D0000E94AD0283E00E94AD02CF2DD12FEC0E20
:1005E000FD2EF11CCE15DF05B9F007FF13C0FE018B
:1005F00084910E94AD02182F80E00E94AD028123F9
:1006000021968111EFCFDF91CF911F910F91FF9034
:10061000EF9008958881EDCF81E0F5CFDF92EF92E2
:10062000FF920F931F93CF93DF93D82E8A01EB0194
:100630007B01E40EF51ECE15DF0559F0D7FE12C082
:10064000FE0184910E94AD0221968111F4CF0FEF3B
:100650001FEFC801DF91CF911F910F91FF90EF9095
:10066000DF9008958881EECF0F931F93CF93DF9390
:100670001F92CDB7DEB782E0898342E450E069E0A3
:1006800071E080E80E940E030E946901DC0112966D
:100690000D911C910115110589F0D801ED91FC9186
:1006A0000280F381E02DBE016F5F7F4FC801099585
:1006B00097FD04C0F80100851185ECCF89810F906A
:1006C000DF91CF911F910F910895615030F02091EB
:1006D000F100FC0120830196F8CF289A84E68093EC
:1006E000E3040895AF92BF92CF92DF92EF92FF9210
:1006F0000F931F93CF93DF936C017B018B01040F4A
:10070000151FEB015E01AE18BF08C017D10759F0E5
:100710006991D601ED91FC910190F081E02DC60127
:100720000995892B79F7C501DF91CF911F910F9121
:10073000FF90EF90DF90CF90BF90AF9008958F9291
:100740009F92AF92BF92CF92DF92EF92FF920F9360
:100750001F93CF93DF936C017B018A0180910B0182
:10076000882309F45CC08091E404882309F457C00D
:100770008091270380FF05C08091E0008260809314
:10078000E000E801B12C8AEFA82E93E0892E2AE33D
:10079000922E209711F4BB20D9F10E942E018111D5
:1007A0000AC0AA94AA20D9F161E070E080E090E04C
:1007B0000E944402EECF8C171D0611F00CF08C2F16
:1007C0009FB7F8948092E9002091E80025FD02C0CF
:1007D0009FBFDFCF282F30E0C21BD30BF701815022
:1007E00020F041914093F100FACFE20EF31EBB20BE
:1007F00021F09092E800B12CEBCF8091E80085FDCC
:10080000E7CF9092E800BB24B394209709F3F3CF8D
:100810005D9A84E680932603101611063CF081E071
:1008200090E0F6019383828310E000E0C801DF913D
:10083000CF911F910F91FF90EF90DF90CF90BF90DD
:10084000AF909F908F900895CF93DF931F92CDB775
:10085000DEB76983DC01ED91FC910280F381E02D2C
:1008600041E050E0BE016F5F7F4F09950F90DF912F
:10087000CF9108950F931F93CF93DF938C01D0E016
:10088000C0E0F801EC0FFD1F6491662341F085EE96
:1008900094E00E942404892B11F02196F2CFCE011E
:1008A000DF91CF911F910F91089583E08093E9002C
:1008B0008091F200882319F08AE38093E80008957C
:1008C0000E942E0190E00895CF93DF931F92CDB741
:1008D000DEB7FC018485958597FD08C02FEF3FEFBB
:1008E000358724870F90DF91CF910895CE0101962F
:1008F0000E943F01019719F4898190E0F3CF8FEFB7
:100900009FEFF0CF0F931F93CF93DF931F92CDB73D
:10091000DEB78C01FC018485958597FF0BC0CE0165
:1009200001960E943F01019771F4898190E0F801DE
:1009300095878487F801848595850F90DF91CF9105
:100940001F910F9108958FEF9FEFF1CFFC018485E8
:10095000958597FD0BC09FB7F89482E08093E900DE
:100960008091F2009FBF90E0019608959FB7F894A0
:1009700082E08093E9008091F2009FBF90E00895AB
:100980002091D702260F3327331F21323105ECF493
:100990002091FB02FC0190E080E0243069F082E0CD
:1009A0000895A091D7022191AC0149545D4FA40F45
:1009B000B52FB11D2C930196861798F38091D7021D
:1009C000680F6093D70280E0089581E00895109247
:1009D000FB0281E08093FD021092FC0261E082E064
:1009E0000E947D0161E083E00E947D01E9EBF0E07F
:1009F00080818E7F808380818D7F808388E4809357
:100A0000B80085E48093BC0008950895E091300318
:100A100080912F03E81730F4F0E0EF56FD4F80810E
:100A200090E008958FEF9FEF0895909130038091AB
:100A30002F032FEF3FEF981748F4E92FF0E0EF5620
:100A4000FD4F208130E09F5F90933003C9010895EE
:100A500080912F0390913003891B990B0895CF93B8
:100A6000DF93CB01EA01642F0E94C004CE01DF9125
:100A7000CF910895CF93DF931F92CDB7DEB76983EF
:100A800061E0CE0101960E94C00481E090E00F90E9
:100A9000DF91CF91089520913503309136032817C7
:100AA000390771F49091330380913403981741F022
:100AB000E0913303F0E0EF5AFD4F808190E008951C
:100AC0008FEF9FEF0895EF92FF920F931F93CF93B5
:100AD000DF93DC015C96ED90FC905D97E114F104EE
:100AE00079F481E090E013969C938E93129790E0B6
:100AF00080E0DF91CF911F910F91FF90EF900895CB
:100B00005196ED91FC91529750968C915097982F59
:100B100090950FB75E962C915E97122F127021FD63
:100B20006095F8942081112319F1282B2083E70187
:100B30002197F1F728E0462F50E0308160FF1AC07E
:100B4000382B3083E7012197F1F7BA017595679546
:100B5000215089F7112381F08081892380830FBF81
:100B60005C968D919C910197F1F781E090E0C1CF67
:100B70002923DCCF3923E5CF9081892BEFCF20913A
:100B80003503309136032817390761F48091340317
:100B90002091330390E0805C9F4F821B91098F73FB
:100BA0009927089590E080E00895209135033091D1
:100BB000360328173907B9F4909133038091340331
:100BC000981789F0E0913303F0E0EF5AFD4F8081F0
:100BD0002091330330E02F5F3F4F2F733327209353
:100BE000330390E008958FEF9FEF089590E080E049
:100BF00008951F93CF93DF93182F60E080E00E9449
:100C00007D0161E084E00E947D0160E081E10E945D
:100C10007D01612F617085E00E947D01C12FD0E0D0
:100C2000BE0175956795617086E00E947D01BE01E9
:100C30007595679575956795617087E00E947D0150
:100C4000BE0123E0759567952A95E1F7617088E00C
:100C50000E947D01BE0134E0759567953A95E1F7F4
:100C6000617089E00E947D01BE0145E07595679540
:100C70004A95E1F761708AE00E947D0156E0D595C2
:100C8000C7955A95E1F76C2F61708BE00E947D014A
:100C9000612F661F6627661F8CE00E947D0160E061
:100CA00084E00E947D0161E070E080E090E00E94BD
:100CB000440261E084E00E947D0161E081E10E94E4
:100CC0007D0161E070E080E090E0DF91CF911F91C5
:100CD0000C94440290912F03809130039817F1F007
:100CE00085E395E00E9415059091CD049F5F2091CA
:100CF000CC04291749F0E091CD04F0E0E453FC4F17
:100D000080839093CD04E6CF8091CA039091CB036A
:100D100001969093CB038093CA03DCCF0895FC0126
:100D2000680F791F8FEF9FEFE617F70789F0219182
:100D3000AC01522728E0CA01880F991F57FF04C051
:100D400031E2832730E193272150AC01A1F7ECCFAA
:100D5000089542E050E06DE472E085EE94E00C947A
:100D60009F03CF92DF92EF92FF920F931F93CF9347
:100D7000DF93CDB7DEB7A1970FB6F894DEBF0FBEF5
:100D8000CDBF89EB90E00E943A040E94A9068CEA4C
:100D900090E00E943A042091CD0530E050E040E020
:100DA00019A28E010F5D1F4F8AE0C82ED12CE12CB5
:100DB000F12CCA01B901A70196010E948114605D5E
:100DC000F80162938F01211531054105510589F71D
:100DD000309761F001900020E9F73197AF01401B97
:100DE000510BB80185EE94E00E949F030E94A90672
:100DF000A1960FB6F894DEBF0FBECDBFDF91CF91A5
:100E00001F910F91FF90EF90DF90CF900895EF9298
:100E1000FF920F931F93CF93DF93CDB7DEB7CB56DF
:100E2000D1090FB6F894DEBF0FBECDBF909150022E
:100E300021E0290F20935002453698F5042F10E049
:100E4000780127E0E20EF11C442319F061157105C9
:100E500041F12EE7298322E02A834B838C839D83F3
:100E6000442329F0A801CE0106960E94A914B801D6
:100E70006C5F7F4FCE0102960E948F06E6E0F0E0A5
:100E8000EC0FFD1FE00FF11F9083FE01E00FF11F3B
:100E90008783A701BE016F5F7F4F85EE94E00E94BC
:100EA0009F03C559DF4F0FB6F894DEBF0FBECDBF0D
:100EB000DF91CF911F910F91FF90EF9008951F93B5
:100EC000CF93DF9300D000D01F92CDB7DEB7962F1F
:100ED000BA01122F89839A83222331F0422F50E0E6
:100EE000CE0103960E94A91442E0410FBE016F5F3C
:100EF0007F4F86E20E9407070F900F900F900F9090
:100F00000F90DF91CF911F91089520E050E040E0D5
:100F10006091AE030E945F071092BF031092BE0360
:100F20000895CF93DF9385ED8093BC008091B30249
:100F30009091B402A091B502B091B6020796A11D9E
:100F4000B11D23E0B695A795979587952A95D1F77A
:100F50002091BC0024FD03C01092FB0236C04091DA
:100F6000B3025091B4026091B5027091B602452B64
:100F7000462B472B69F30097A105B10541F02AE202
:100F80002A95F1F700C00197A109B109E1CF80913D
:100F9000B20291E09093B1028823B9F0C091B800F9
:100FA000D091BA008091BC008A7B8093BC0060E045
:100FB00082E00E947D0160E083E00E947D010E944A
:100FC000E704D093BA00C093B800DF91CF910895A1
:100FD0001F920F920FB60F9211242F933F938F936E
:100FE0009F93AF93BF938091CF049091D004A09131
:100FF000D104B091D2043091CE0423E0230F2D37D9
:1010000058F50196A11DB11D2093CE048093CF0405
:101010009093D004A093D104B093D2048091D304D0
:101020009091D404A091D504B091D6040196A11D4D
:10103000B11D8093D3049093D404A093D504B093AE
:10104000D604BF91AF919F918F913F912F910F90B7
:101050000FBE0F901F90189526E8230F0296A11D32
:10106000B11DD2CF1F920F920FB60F9211248F9302
:101070009F938091E1009091E100937F9093E10034
:1010800083FF0FC01092E90091E09093EB00109263
:10109000EC0092E39093ED001092E40498E09093BA
:1010A000F00082FF22C093E09093E9009091F2005B
:1010B000992319F09AE39093E800909126039923DD
:1010C00041F090912603915090932603911101C015
:1010D0005D989091E304992341F09091E30491503D
:1010E0009093E304911101C0289884FF18C0809167
:1010F000E2008E7E81608093E2008091E1008F7E2D
:101100008093E100809127038E7E80618093270386
:101110009F918F910F900FBE0F901F90189580FF99
:10112000F7CF8091E2008E7E80618093E200809113
:10113000E1008E7E8093E100809127038E7E8160A6
:10114000E5CF1F920F920FB60F921124CF92DF922C
:10115000EF92FF920F931F932F933F934F935F93C1
:101160006F937F938F939F93AF93BF93EF93FF936F
:10117000CF93DF93CDB7DEB76C97DEBFCDBF1092B4
:10118000E9008091E80083FF25C068E0CE01459624
:101190000E94650382EF8093E8008D8987FF39C044
:1011A0009091E80090FFFCCF982F907609F034C121
:1011B0009E894F89588D2F89F88C911131C08038C4
:1011C00061F5809128038093F1001092F1008EEF79
:1011D0008093E8006C960FB6F894DEBF0FBECDBFCB
:1011E000DF91CF91FF91EF91BF91AF919F918F913F
:1011F0007F916F915F914F913F912F911F910F912F
:10120000FF90EF90DF90CF900F900FBE0F901F9048
:1012100018959EEF9093E800C7CF1092F100D5CFBC
:10122000913059F48111D3CF4130510581F680912D
:1012300028038D7F80932803CACF933049F481110E
:10124000C6CF4130510519F6809128038260F2CF54
:10125000953041F48091E80080FFFCCF2068209316
:10126000E300B5CF963009F0A9C00B8D1C8D22E0AC
:101270001092E9001092240310922303F2122EC060
:1012800010922203109221030E9434031F8299E0DE
:101290009983FA8291E09E8390EA98879AEF9987E2
:1012A0002091230330912403275F3F4F3C832B83FE
:1012B0008D831092E900109224031092230310935F
:1012C00022030093210349E050E0BE016F5F7F4F8E
:1012D00080E00E940E030E94340379CF1093220312
:1012E000009321030E946901DC0112960D911C916B
:1012F0000115110509F451C1D801ED91FC9104804B
:10130000F581E02DBE016B5E7F4FC8010995009706
:1013100009F03EC1F80100851185EACFF3E0FF1224
:101320000EC08F89882309F440C0823061F440E800
:101330006FE08DE691E00E94DB02811148CF81E2EF
:101340008093EB0047CF813029F440E86BE081E6E1
:1013500091E0F1CF833099F70E946901DC01129688
:10136000ED90FC908E010F5F1F4F6801E114F104B6
:1013700079F0D701ED91FC910680F781E02DB8015D
:10138000C7010995080F111DF701E084F184EECF24
:10139000D8011C92F60101900020E9F73197BF01B6
:1013A0006C197D0940E0C601C6CF6BE471E0FB011A
:1013B000449150E080E80E940E0309CF973009F471
:1013C000BECF983021F481E08093F10000CF9930B6
:1013D00009F0FDCE837009F0B2CFEDE0F1E081E0DD
:1013E00031E096E32191222371F08093E90030935C
:1013F000EB00DF0111972C912093EC009093ED000E
:101400008F5F873079F78EE78093EA001092EA00C9
:101410008F898093E404DBCE8B8D9C8D1092E90044
:1014200010922403109223039093220380932103AC
:10143000898D811192C08E899D89913A49F48132BA
:1014400009F07DCF47E050E064E071E080E0B3CF89
:10145000913209F074CF833269F48F89988DB0E0AE
:10146000A0E08093000190930101A0930201B0934A
:101470000301ADCE803269F48091E80082FFFCCF99
:1014800067E084E091E00E9465038BEF8093E800C1
:101490009ECE823209F09BCE8F8980930B01EEEFB6
:1014A000FFE7859194918B3F9C4D51F1E0E0F8E08E
:1014B0008091040190910501A0910601B09107016E
:1014C000803B9440A105B105F1F480910B0180FDB2
:1014D0001AC0EE3F8AE0F80789F587E797E791831E
:1014E0008083809160008093250388E19BE00FB6A4
:1014F000F894A895809360000FBE9093600067CE2B
:10150000EEEFFAE0D5CF808191818737974709F0D8
:101510005ECEA89580916000886180936000809184
:10152000250380936000EE3F2AE0F20789F0809166
:10153000FE0A9091FF0A9183808349CE8081918138
:101540008737980751F29093FF0A8093FE0AC5CF20
:101550001092FF0A1092FE0A3ACE0E946901DC0145
:1015600012960D911C910115110509F4E8CED801D0
:10157000ED91FC910190F081E02DBE016B5E7F4FFB
:10158000C8010995811123CEF80100851185EBCFA3
:10159000181619060CF41BCED2CEF1E0FF12BECE07
:1015A0006FE471E004CF1F920F920FB60F921124D7
:1015B0002F933F934F935F936F937F938F939F935B
:1015C000AF93BF93EF93FF938091B900887F8036EC
:1015D00009F44AC0F0F5883209F4A7C018F5803143
:1015E00009F49BC0B8F4882309F4F9C0883009F4E1
:1015F00094C0FF91EF91BF91AF919F918F917F9197
:101600006F915F914F913F912F910F900FBE0F906F
:101610001F901895883109F488C0803251F7809363
:10162000FA0214C0803409F49DC040F48033B9F349
:101630008833F9F68093FA0285ECB0C0803509F45E
:1016400085C0883509F496C0883499F60E949107C0
:10165000D0CF883909F48CC038F5883729F050F498
:10166000883611F0803729F683E08093FB021092D0
:10167000F90257C0883809F47BC0803919F08038E6
:1016800009F0B7CF8091F902803208F071C0E09183
:10169000F90281E08E0F8093F9028091BB00F0E0A7
:1016A000E752FD4F80833DC0803B39F0E0F4803A43
:1016B00009F479C0883A09F09CCF84E08093FB025A
:1016C0001092D8021092D702E0912B03F0912C03D4
:1016D00009958091D70281110FC081E08093D702D4
:1016E0001092B70209C0803C09F4A6CF883C09F4E7
:1016F000A3CF883B09F07DCFE091D80281E08E0F27
:101700008093D802F0E0E954FD4F80818093BB00C4
:101710009091D8028091D70229C0809120038093B4
:10172000BB0085EC8093BC0064CF90911F03809137
:101730001E03981758F5E0911F0381E08E0F8093E8
:101740001F03F0E0E250FD4F8081E9CFE0911F03DD
:1017500081E08E0F80931F038091BB00F0E0E25088
:10176000FD4F808390911F0380911E039817C8F24C
:1017700085E8D8CFE0911F0381E08E0F80931F038F
:101780008091BB00F0E0E250FD4F80838091FD022C
:1017900081115CCF81E08093FC0284EA8093BC00DD
:1017A0001092FB0226CF85EC8093BC001092FB02C6
:1017B0008091F902803230F4E091F902F0E0E752D2
:1017C000FD4F10826091F90270E0E0912903F091E1
:1017D0002A0389ED92E009951092F9020ACF10923E
:1017E000FA0234CF1F920F920FB60F9211242F934B
:1017F0003F934F935F936F937F938F939F93AF9399
:10180000BF93EF93FF93E0913503F0913603309748
:1018100049F0A685B7858585968D91FF14C09C916A
:101820008923A1F4FF91EF91BF91AF919F918F9187
:101830007F916F915F914F913F912F910F900FBECC
:101840000F901F9018959C91892361F7A389B48903
:101850009C918589809589238C93868997890197A6
:10186000F1F7608D718DA685B785558538E020E04C
:10187000CB010197F1F7822F90E095958795282F5E
:101880004C91452309F02068315091F7868D81FDF8
:1018900020958091340390E001968F7399273091C1
:1018A0003303381799F0A0913403B0E0AF5ABD4F1D
:1018B0002C9380933403828D938D0197F1F7A38944
:1018C000B4898C919589892B8C93ACCF868D81605E
:1018D000868FF1CF1092E8041092E70488EE93E02F
:1018E000A0E0B0E08093E9049093EA04A093EB04B5
:1018F000B093EC042BE132E03093E6042093E5044E
:101900002FEF3FEF3093F2042093F104109238054B
:10191000109237058093390590933A05A0933B05C3
:10192000B0933C052DE232E0309336052093350527
:101930001092B1051092B0058093B2059093B30553
:10194000A093B405B093B5058FE392E09093AF05F3
:101950008093AE051092C5051092C4051092C7057C
:101960001092C6051092C9051092C8051092CB05B9
:101970001092CA056091CC056E7F6D7F6093CC0597
:101980006695617081E0682787E10E947D0161E0D2
:1019900087E10E94EE01ECEFF1E0E491E093BE05F7
:1019A000EDEDF1E0E491F0E0EE0FFF1FE854FE4FA3
:1019B000859194919093C0058093BF0560E08EE07F
:1019C0000E94EE018091CC0581FD04C061E08EE0B3
:1019D0000E947D018EE08093BA05E3EFF1E0E4918F
:1019E000E093BB05E4EDF1E0E491F0E0EE0FFF1FC2
:1019F000E655FE4F859194919093BD058093BC056B
:101A00001092AC051092AD050895CF93DF93CDB73A
:101A1000DEB7CD56D1090FB6F894DEBF0FBECDBFED
:101A2000789484B5826084BD84B5816084BD85B5B9
:101A3000826085BD85B5816085BD80916E008160C5
:101A400080936E001092810080918100826080936B
:101A5000810080918100816080938100809180006D
:101A600081608093800080919100826080939100DA
:101A700080919100816080939100809190008160BD
:101A8000809390008091C10084608093C100809118
:101A9000C10082608093C1008091C1008160809309
:101AA000C1008091C30081608093C3008091C00019
:101AB00082608093C0008091C20081608093C200E8
:101AC00080917A00846080937A0080917A008260AD
:101AD00080937A0080917A00816080937A0080916F
:101AE0007A00806880937A001092E40410922803B0
:101AF000109227038091D70081608093D70080EAFD
:101B00008093D80089B5806189BD89B5826089BD1F
:101B100009B400FEFDCF61E070E080E090E00E943B
:101B200044028091D8008F7C80618093D80080919E
:101B3000E000807F8093E0008091E1008E7E8093C2
:101B4000E1008DE08093E200559A209A5D982898F4
:101B50008FEF9FEF9093F2048093F1041092300383
:101B600010922F0310922E0310922D030E94E7046F
:101B700082E892E090932C0380932B0383E892E019
:101B800090932A038093290380E18093BA008AE628
:101B900096E0909332038093310361E08FE00E94DE
:101BA000EE0160E08EE00E94EE0161E08FE00E94B5
:101BB0007D011092C9051092C8051092C7051092B8
:101BC000C6051092C5051092C40587E09AE190936E
:101BD000CB058093CA058091BA0528EF280F2430E1
:101BE00048F092EF980F943028F096EE980F9330CB
:101BF00008F057C042EF5CE05093C5054093C40520
:101C000045E05AE15093C7054093C6054BE753E1C1
:101C10005093C9054093C805243050F092EF980FB7
:101C2000943030F096EE980FF0E0E0E0933010F44E
:101C3000E8E6F0E09081243048F022EF280F2430CD
:101C400028F08A51F0E0E0E0833010F4E8E6F0E0BC
:101C5000916090832091BA0538EF320F343048F00C
:101C600082EF820F843028F086EE820F833008F0F6
:101C700001C18BE690E09093C2058093C10534309A
:101C800008F0FBC02450330B81E001C0880F2A9577
:101C9000EAF78093C3058091CA059091CB0501971F
:101CA000F1F78091C8059091C905892B49F1E09120
:101CB0003503F091360325E0EE3AF20709F130974B
:101CC00039F0A389B4899C918589809589238C9367
:101CD0008091CC058E7F8093CC05109234031092B6
:101CE00033038EEA95E09093360380933503E091B9
:101CF000C105F091C20580819091C305892B808335
:101D000061E085E00E94EE0161E086E00E94EE0164
:101D100061E087E00E94EE0161E088E00E94EE0150
:101D200061E089E00E94EE0161E08AE00E94EE013C
:101D300061E08BE00E94EE0161E08CE00E94EE0128
:101D400061E084E00E94EE0161E080E00E94EE012B
:101D500061E081E00E94EE0161E081E10E94EE011C
:101D600061E080E10E94EE0161E08DE00E94EE0101
:101D700061E085E00E947D0161E086E00E947D01D6
:101D800061E087E00E947D0161E088E00E947D01C2
:101D900061E089E00E947D0161E08AE00E947D01AE
:101DA00061E08BE00E947D0161E08CE00E947D019A
:101DB00061E084E00E947D0160E080E00E947D019E
:101DC00061E081E00E947D0161E081E10E947D018E
:101DD00061E080E10E947D0160E08DE00E947D0174
:101DE00061E08DE00E947D0162E070E080E090E0C3
:101DF0000E94440260E08DE00E947D016AE070E094
:101E000080E090E00E94440264E670E080E090E0B0
:101E10000E94440284E10E94F90585E10E94F905CF
:101E200088E198E20FB6F894A895809360000FBE01
:101E30009093600024E6622E712C35E0A32EB12C25
:101E40000AE010E0F894F090CD0478948091CC04EE
:101E5000F81631F1E091CC04F0E0E453FC4F6081DE
:101E600085EE94E00E9424048091CC048F5F8093DF
:101E7000CC04ECCF90E080E0FECE88E02E3009F478
:101E800008CF82E02F3009F404CF84E0203109F438
:101E900000CF81E0213109F4FCCE2651330BF4CE82
:101EA000F894E090CA03F090CB0378940E947602F5
:101EB0001B012C018091C8039091C903E816F90613
:101EC000C9F48091C4039091C503A091C603B09159
:101ED000C7030097A105B10569F0A2019101281B74
:101EE000390B4A0B5B0BDA01C90180339547A10519
:101EF000B10598F13E2D2F2D48EEE41643E0F4068F
:101F000010F037EE23E082E48983832F922FB30110
:101F10000E946D14605D6A83832F922FB8010E9426
:101F20006D14282FCB01B8010E946D14805D8B8346
:101F3000205D2C8344E0BE016F5F7F4F84E20E94EE
:101F40000707F092C903E092C8032092C4033092BD
:101F5000C5034092C6035092C70383E0482E512C1C
:101F600088248394912C85EE94E00E94A604892B0A
:101F700009F4E4C185EE94E00E946404873039F4EA
:101F80009091AC05911103C00E94B106ECCFE09195
:101F9000AC05E11108C08E3731F791E09093AC05A4
:101FA00080934105E0CFEB3628F01092AC051092FB
:101FB000AD05D9CF91E09E0F9093AC05F0E0EF5BBB
:101FC000FA4F8083933059F480914205823069F74B
:101FD00080914305853648F7895F8093AD058091F0
:101FE000AD05882309F4BFCF981708F4BCCF309013
:101FF0004305E32CF12CF701EF5BFA4FC580868196
:10200000DC2CC82EB7016C5F7F4F82E495E00E9404
:102010008F06C816D90649F63B82D0904405D9826E
:10202000C0904505CA82332039F0A70166E475E007
:10203000CE0104960E94A9141092AC051092AD0531
:1020400052E0D5123CC0AD96DFAEAD97AE96DFAE96
:10205000AE9742E0BE0164597F4F82E00E940707BD
:102060008091370381117FCF2091CD0530E084E44A
:10207000A9968FAFA997C901B3010E946D14605D45
:10208000AA966FAFAA97C901B8010E946D14282FB4
:10209000CB01B8010E946D14805DAB968FAFAB97FA
:1020A000205DAC962FAFAC9744E0BE0168597F4FDE
:1020B00084E20E94070781E08093370354CF80EFCA
:1020C0008D0D843008F055C080E1D81216C0809183
:1020D0003B03882351F180913A03C81226C0A99688
:1020E000CFAEA997AA961FAEAA9742E0BE01685943
:1020F0007F4F81E00E94070736CF80913903882304
:1021000021F080913803C81651F38FEE8D0D833086
:10211000F0F48091BE039091BF03892B61F4C092CB
:10212000380381E08093390317C08091AC0390910C
:10213000AD03892B51F3A996CFAEA99781E0AA965A
:102140008FAFAA9742E0BE0168597F4FD3CFC092AC
:102150003A0381E080933B03A996CFAEA997AA9654
:102160001FAEAA9742E0BE0168597F4F81E00E94EE
:10217000070789818031B9F54B814093A00350E076
:10218000BE016C5F7F4F8CE393E00E94A914109214
:10219000A1031092A2038A818093A7030E94760272
:1021A00068577C4E8F4F9F4F6093A8037093A9038D
:1021B0008093AA039093AB0361E08DE00E947D01C0
:1021C0000E9476026E5F7F4F8F4F9F4F6093A303F5
:1021D0007093A4038093A5039093A6039092AD03FC
:1021E0008092AC03C0CE813109F046C08B81813032
:1021F00009F0B9CE8A818093AE030E9476026857B7
:102200007C4E8F4F9F4F6093BA037093BB038093B4
:10221000BC039093BD036C816034B9F460E08FE03F
:102220000E947D010E94760268517C4F8F4F9F4F24
:102230006093B6037093B7038093B8039093B90388
:102240009092BF038092BE038ECE8EEA95E00E94EC
:1022500063050E9476026C597F4F8F4F9F4F6093AA
:10226000B6037093B7038093B8039093B903509269
:10227000BF034092BE0377CE823179F5FA80F092A7
:10228000AE031092B4031092B3031092B5030E94F0
:1022900076026093B6037093B7038093B80390936C
:1022A000B9030E947602685370458F4F9F4F609329
:1022B000BA037093BB038093BC039093BD03E4E027
:1022C000F0E0F093BF03E093BE0320E050E040E075
:1022D0006F2D81E40E945F0746CE833159F5FA8065
:1022E000F092AE031092B4031092B3031092B503B0
:1022F0000E9476026093B6037093B7038093B8038D
:102300009093B9030E9476026054784D864F9F4F98
:102310006093BA037093BB038093BC039093BD0397
:10232000B092BF03A092BE0320E050E040E06F2DCA
:1023300084E4D0CF853109F016CE26CEE090AC03F0
:10234000F090AD03E114F10409F44AC02090A80311
:102350003090A9034090AA035090AB030E947602EC
:10236000621973098409950997FD0DC020E050E0BA
:1023700040E06091A70388E50E945F071092AD03DB
:102380001092AC032DC02090A3033090A403409082
:10239000A5035090A6030E9476026219730984096E
:1023A000950997FD1DC0F1E0EF16F10409F074C026
:1023B00060E08DE00E947D010E947602665F7F4FA3
:1023C0008F4F9F4F6093A3037093A4038093A50343
:1023D0009093A60382E090E09093AD038093AC03CA
:1023E000E090BE03F090BF03E114F10499F0209057
:1023F000BA033090BB034090BC035090BD030E94D1
:102400007602621973098409950997FDB5C088E5BC
:102410000E9485078EEA95E00E94BF05892B61F036
:102420008EEA95E00E94D505898341E0BE016F5F89
:102430007F4F83E20E9407070E9476026B017C01B6
:102440008091C0039091C103A091C203B091C303D6
:10245000A7019601281B390B4A0B5B0BDA01C90156
:1024600080319742A105B10570F040E070E060E076
:1024700085E20E940707C092C003D092C103E09298
:10248000C203F092C303A89580E090E0892B09F481
:10249000D9CC0E940000D4CC22E0E216F10489F4E9
:1024A0000E9476026C597F4F8F4F9F4F6093A3031A
:1024B0007093A4038093A5039093A60383E090E018
:1024C0008BCF33E0E316F10429F41092A20384E0E9
:1024D00090E082CF44E0E416F10401F58091A2037C
:1024E000FF24F394F80EF092A203811115C084E149
:1024F0000E94F90551E05F1520F4B092AD03A0925F
:10250000AC030E9476026093A3037093A4038093AC
:10251000A5039093A60364CF82E1EACF85E0E81695
:10252000F10409F05DCFE091A103F090A003EF1555
:10253000B8F481E08E0F8093A103F0E0E45CFC4FDF
:1025400080818A3009F48DE00E94F9050E947602AC
:102550006093A3037093A4038093A5039093A603B1
:102560008091A1038F1508F43BCF20E050E040E0BC
:102570006091A70382E500CF91E0E916F10449F5E7
:102580002090B6033090B7034090B8035090B90341
:102590000E947602621973098409950997FD19C092
:1025A00061E08FE00E947D010E94760268517C4FBD
:1025B0008F4F9F4F6093B6037093B7038093B80318
:1025C0009093B90382E090E09093BF038093BE03A1
:1025D00021CFC7010297029790F42090B603309064
:1025E000B7034090B8035090B9030E947602621975
:1025F00073098409950997FD78C082E509CFE4E065
:10260000EE16F104D9F4C090B603D090B703E09071
:10261000B803F090B9030E9476026C197D098E0907
:102620009F0997FDF7CEF090B50323E02F1538F101
:10263000EF2DF0E0ED5EFD4F608128C0F5E0EF1674
:10264000F10409F052C0C090B603D090B703E090F7
:10265000B803F090B9030E9476026C197D098E09C7
:102660009F0997FDD7CE8EEA95E00E94BF05892B82
:1026700009F48FC08EEA95E00E94D505F4CF6091F1
:10268000B3037091B40334E0F3122BC08EEA95E0EB
:102690000E946305F394F092B5030E9476026C5E8B
:1026A0007F4F8F4F9F4F6093B6037093B703809314
:1026B000B8039093B903F5E0FF1508F0ABCE109284
:1026C000B5038091B3039091B40301969093B40342
:1026D0008093B3038F3F910509F008F49BCE82E409
:1026E00097CE6D5E7E4FFB01A7CF26E0E216F10488
:1026F00009F090CE8EEA95E00E94BF05892B09F47F
:102700007FC08EEA95E00E94D505E090B303F0907B
:10271000B403F701ED5EFE4F9081891761F0E98205
:102720008A839B8323E0AE014F5F5F4F6091AE03CE
:1027300085E40E945F075FEFE51AF50AF092B403A3
:10274000E092B3031092B5030E9476026093B60341
:102750007093B7038093B8039093B9038FEFE81693
:10276000F10409F008F449C090E080E09093BF03C1
:102770008093BE039FEFE916F10409F008F44ACEF6
:1027800020E050E040E06091AE0386E40E945F07E5
:1027900041CEF090B50361E7FF2029F031E061E020
:1027A000F3126091B3038EEA95E00E946305F394FF
:1027B000F092B5030E9476026C5E7F4F8F4F9F4F61
:1027C0006093B6037093B7038093B8039093B903F3
:1027D00042E04F1508F01ECE0E9476026053784FFB
:1027E0008F4F9F4F6093AF037093B0038093B103FB
:1027F0009093B20386E090E0E7CE85E090E0B6CF1C
:10280000C090AF03D090B003E090B103F090B2035A
:102810000E9476026C197D098E099F0997FDFACDF9
:102820008FEF8A83E090B303F090B403E982F7015D
:10283000ED5EFE4F80818B83D090AE0323E0AE012E
:102840004F5F5F4F6D2D85E40E945F07EFEFEE1A3B
:10285000FE0AF092B403E092B3031092B5030E9413
:1028600076026093B6037093B7038093B803909396
:10287000B90390E080E0FFEFEF16F10409F010F4E7
:1028800085E090E09093BF038093BE032FEFE216A4
:10289000F10409F008F4BECD20E050E040E06D2DD9
:1028A00074CF8FE392E09093AF058093AE05809153
:1028B0003503909136038E5A954071F4E091C1052D
:1028C000F091C20590818091C30580958923808312
:1028D00010923603109235030895AA1BBB1B51E1D9
:1028E00007C0AA1FBB1FA617B70710F0A61BB70B80
:1028F000881F991F5A95A9F780959095BC01CD0125
:102900000895A1E21A2EAA1BBB1BFD010DC0AA1F30
:10291000BB1FEE1FFF1FA217B307E407F50720F048
:10292000A21BB30BE40BF50B661F771F881F991FC3
:102930001A9469F760957095809590959B01AC010C
:10294000BD01CF010895EE0FFF1F0590F491E02D1A
:102950000994FB01DC0102C001900D9241505040EE
:10296000D8F7089511E0C3E0D1E004C0FE010E9451
:0E297000A3142196C430D107C9F7F894FFCF05
:10297E00FFFFFFFF00E100000000000000C18081AA
:10298E0000000003D905FF00F8016E0A00050807D4
:10299E00040003F005CC2800C0000C28B4123280CD
:1029AE0064FF002D593EEC28C8506F254B2348324A
:1029BE009226CF421E2786353B3BB82F914AB20E48
:1029CE00CF2F183D672B8B4E32358E2B5143AB27B5
:1029DE000B4A2D4C14A28D3157250744632808A6A7
:1029EE009D12172C8F32621409A38A141928473AA4
:1029FE00DE3F91000000000000000000000000001B
:102A0E0000000000000000000000000000000000B8
:102A1E0000000000000000000000000000000000A8
:102A2E000000000000000000000000000000000098
:102A3E000000000000000000000000000000000088
:102A4E00000000A34536C727034205424497C43908
:102A5E004316C359051EC30000000000000000000D
:102A6E000000000000000000000000000000000058
:102A7E000000000000000000000000000000003117
:102A8E00303230454150770000000024049F03602F
:102A9E00045504A60464048204000000003A052FC5
:102AAE0005F6050505280515050605000000006359
:102ABE00057203F6050505BF05D5054B050D0A0084
:00000001FF
