:100000000C94F8000C94EC090C94C5090C949E090E
:100010000C9477090C9420010C9420010C94500945
:100020000C9420010C9420010C94130A0C94820A65
:100030000C9420010C9420010C9420010C942001BC
:100040000C9420010C9420010C9420010C942001AC
:100050000C9420010C9420010C9420010C940609AE
:100060000C9420010C9420010C9420010C9420018C
:100070000C9420010C9420010C9420010C9420017C
:100080000C9420010C9420010C9420010C9420016C
:100090000C94B40C0C9420010C9420010C942001BD
:1000A0000C9420010C9420010C942001080B0002F8
:1000B0000202000009040000010202000005240001
:1000C0001001052401010104240206052406000193
:1000D0000705810310004009040100020A00000026
:1000E00007050202400000070583024000000403E8
:1000F000090412010002EF02014041234580000182
:100100000102030141726475696E6F204C4C43001B
:100110004D696C6C656E6E69756D20416C706861BF
:1001200000444F574E00555000206932635F64729F
:100130006F70733D006E6F007965730020686F6F9C
:100140006B3D00444F574E0055500020626F6F7456
:100150005F7265706F727465643D00626F6F745F8B
:10016000686F6F6B3D0000000000240027002A002C
:100170002D00300000000000250028002B002E007C
:100180003100000000002300260029002C002F0071
:10019000040404040403040502020202040302022C
:1001A000020206060606060604040202020404040D
:1001B0000802011040804010204080408008020466
:1001C00001804020100201108010204040200000DB
:1001D000000200090F0000030401000C00000000F1
:1001E0000000000000000000000000000000D30D2F
:1001F00011241FBECFEFDAE0DEBFCDBF11E0A0E0DB
:10020000B1E0E8E3F6E202C005900D92AC37B10729
:10021000D9F723E0ACE7B1E001C01D92A639B207DF
:10022000E1F710E0C8EFD0E004C02197FE010E9482
:10023000F712C73FD107C9F70E945B0E0C941A133F
:100240000C940000FC018091C302882311F13FB798
:10025000F89482E08093E9002091F200822F90E0F0
:100260001816190614F481E090E0882339F0289AD2
:1002700044E64093C2024091F1004083222339F0CA
:100280002091F200211103C02BE62093E8003FBF2C
:1002900008958FEF9FEF089596E0899FD001112474
:1002A000A95DBC4F90967C936E935F9791E0919679
:1002B0009C939197E0919403F0919503909193030F
:1002C000992339F0309751F0811108C08091430390
:1002D0000994309719F05C968C91FACF08952FB756
:1002E000F89483E08093E9009091E800892F807270
:1002F00095FF04C09091F20080E4891B2FBF089500
:100300008091B80281110DC082E08093B40284E034
:100310008093B5021092B7021092B60281E08093EA
:10032000B80284EB92E0089581508F3008F047C006
:10033000E82FF0E0E256FE4F0C94F712BB01BF012C
:10034000AD01B301B701DF01DF01DF01C201C80167
:10035000CC01D001D601DF01DA01809180008F77D6
:10036000809380000895809180008F7DF9CF8091E7
:100370008000877FF5CF84B58F7784BD089584B5DD
:100380008F7DFBCF809190008F77809390000895B0
:10039000809190008F7DF9CF80919000877FF5CF7D
:1003A0008091C0008F778093C00008958091C00035
:1003B0008F7DF9CF8091C200877F8093C20008951E
:1003C000CF93DF93282F30E0F901E253FE4F849161
:1003D000F901E155FE4FD491F901E057FE4FC49168
:1003E000CC23A1F081110E949401EC2FF0E0EE0FDC
:1003F000FF1FEE57FE4FA591B491EC91ED2381E0E4
:1004000090E009F480E0DF91CF91089580E090E0E2
:10041000FACF1F93CF93DF93282F30E0F901E253F7
:10042000FE4F8491F901E155FE4FD491F901E05757
:10043000FE4FC491CC23A9F0162F81110E94940184
:10044000EC2FF0E0EE0FFF1FEC58FE4FA591B4919A
:100450008FB7F894EC91111108C0D095DE23DC938E
:100460008FBFDF91CF911F910895DE2BF8CFCF93EF
:10047000DF9390E0FC01E155FE4F249180579E4FA1
:10048000FC0184918823C9F090E0880F991FFC013A
:10049000EA59FE4FA591B491FC01EC58FE4FC5916D
:1004A000D49161110DC09FB7F8948C91209582234F
:1004B0008C938881282328839FBFDF91CF91089553
:1004C000623051F49FB7F8943C91822F809583233A
:1004D0008C93E8812E2BEFCF8FB7F894EC912E2BD5
:1004E0002C938FBFEACF3FB7F8948091B0029091E0
:1004F000B102A091B202B091B30226B5A89B05C08B
:100500002F3F19F00196A11DB11D3FBFBA2FA92F92
:10051000982F8827BC01CD01620F711D811D911D8F
:1005200042E0660F771F881F991F4A95D1F70895FB
:100530008F929F92AF92BF92CF92DF92EF92FF92F3
:100540004B015C010E9473026B017C010E947302EB
:100550006C197D098E099F09683E734081059105DC
:10056000A8F321E0821A9108A108B10888EEC80E0C
:1005700083E0D81EE11CF11C81149104A104B10494
:1005800029F7FF90EF90DF90CF90BF90AF909F90B2
:100590008F9008952FB7F8946091AC027091AD02DE
:1005A0008091AE029091AF022FBF08950F931F93D9
:1005B000CF93DF93C82FD62F86E0C89FF001112478
:1005C000E95DFC4F11A2878D90A181309105F1F07A
:1005D00058F082309105F1F1039709F440C0DF91A2
:1005E000CF911F910F9108956623C9F361E070E0E8
:1005F0008C2F0E944C010E94CA0260937F0370936B
:1006000080038093810390938203E9CF0E94CA0202
:1006100000917F0310918003209181033091820328
:10062000AB01BC01401B510B620B730B809191031A
:1006300090919203B0E0A0E084179507A607B70752
:1006400048F462E070E08C2FDF91CF911F910F9101
:100650000C944C0163E070E0D111C1CFF4CF70E095
:1006600060E0F1CF862F642F0C943702862F642F21
:100670000C940902862F0C94E0010895089580914E
:10068000A60291E089278093A6020895E82FF0E062
:10069000EE0FFF1FE45FFE4F718360838230F9F03D
:1006A00028F4882341F0813071F00895833021F1DE
:1006B000843079F10895809169008C7F482B4093B4
:1006C0006900E89A089580916900837F440F551F5F
:1006D000440F551F482B40936900E99A0895809173
:1006E00069008F7C34E0440F551F3A95E1F7482BA1
:1006F00040936900EA9A0895809169008F7326E01B
:10070000440F551F2A95E1F7482B40936900EB9A57
:10071000089580916A008F7C94E0440F551F9A954C
:10072000E1F7482B40936A00EE9A089508954091AE
:1007300094025091950220919202309193024217B7
:100740005307B4F49091E8009570E1F39091E800BC
:1007500092FD19C08093F1008091940290919502CE
:1007600001968F739927892B19F48EEF8093E800F7
:1007700080919402909195020196909395028093B6
:10078000940281E0089580E00895EF92FF920F9324
:100790001F93CF93DF93F82E192FE62E042F81E0BD
:1007A000860F880F0E94970383E00E949703CF2D46
:1007B000D12FEC0EFD2EF11CCE15DF05B9F007FF91
:1007C00013C0FE0184910E949703182F80E00E94BD
:1007D0009703812321968111EFCFDF91CF911F9154
:1007E0000F91FF90EF9008958881EDCF81E0F5CFD4
:1007F000DF92EF92FF920F931F93CF93DF93D82E48
:100800008A01EB017B01E40EF51ECE15DF0559F0E0
:10081000D7FE12C0FE0184910E9497032196811198
:10082000F4CF0FEF1FEFC801DF91CF911F910F9110
:10083000FF90EF90DF9008958881EECF0F931F9384
:10084000CF93DF931F92CDB7DEB782E0898342E476
:1008500050E06CEA70E080E80E94F8030E9480019A
:10086000DC0112960D911C910115110589F0D8013A
:10087000ED91FC910280F381E02DBE016F5F7F4F0F
:10088000C801099597FD04C0F80100851185ECCFDA
:1008900089810F90DF91CF911F910F910895615041
:1008A00030F02091F100FC0120830196F8CF289AC6
:1008B00084E68093C20208958F929F92AF92BF9276
:1008C000CF92DF92EF92FF920F931F93CF93DF931C
:1008D0006C017B018A0180910B01882309F45CC0C3
:1008E0008091C302882309F457C08091980280FF49
:1008F00005C08091E00082608093E000E801B12CA7
:100900008AEFA82E93E0892E2AE3922E209711F4E5
:10091000BB20D9F10E946F0181110AC0AA94AA20BC
:10092000D9F161E070E080E090E00E949802EECFA3
:100930008C171D0611F00CF08C2F9FB7F894809245
:10094000E9002091E80025FD02C09FBFDFCF282FDE
:1009500030E0C21BD30BF701815020F0419140934E
:10096000F100FACFE20EF31EBB2021F09092E800D6
:10097000B12CEBCF8091E80085FDE7CF9092E800A5
:10098000BB24B394209709F3F3CF5D9A84E6809358
:100990009702101611063CF081E090E0F601938377
:1009A000828310E000E0C801DF91CF911F910F9189
:1009B000FF90EF90DF90CF90BF90AF909F908F907F
:1009C0000895CF93DF931F92CDB7DEB76983DC0123
:1009D000ED91FC910280F381E02D41E050E0BE01F9
:1009E0006F5F7F4F09950F90DF91CF9108950F931F
:1009F0001F93CF93DF938C01D0E0C0E0F801EC0FA0
:100A0000FD1F6491662341F084EC92E00E94E104B2
:100A1000892B11F02196F2CFCE01DF91CF911F915A
:100A20000F91089583E08093E9008091F20088237C
:100A300019F08AE38093E80008950E946F0190E026
:100A40000895CF93DF931F92CDB7DEB7FC01848565
:100A5000958597FD08C02FEF3FEF358724870F90CE
:100A6000DF91CF910895CE0101960E942201019756
:100A700019F4898190E0F3CF8FEF9FEFF0CF0F93C0
:100A80001F93CF93DF931F92CDB7DEB78C01FC018C
:100A90008485958597FF0BC0CE0101960E942201A7
:100AA000019771F4898190E0F80195878487F801B6
:100AB000848595850F90DF91CF911F910F910895B7
:100AC0008FEF9FEFF1CFFC018485958597FD0BC0DB
:100AD0009FB7F89482E08093E9008091F2009FBF75
:100AE00090E0019608959FB7F89482E08093E90022
:100AF0008091F2009FBF90E0089520914802260F58
:100B00003327331F21323105ECF420916C02FC01B4
:100B100090E080E0243069F082E00895A0914802DE
:100B20002191AC01485D5D4FA40FB52FB11D2C93F1
:100B30000196861798F380914802680F60934802E7
:100B400080E0089581E0089510926C0281E0809326
:100B50006E0210926D0261E082E00E94090261E083
:100B600083E00E940902E9EBF0E080818E7F8083C0
:100B700080818D7F808388E48093B80085E48093B2
:100B8000BC000895CF93DF9391E0909327028823D0
:100B9000B9F0C091B800D091BA008091BC008A7BB6
:100BA0008093BC0060E082E00E94090260E083E084
:100BB0000E9409020E94A405D093BA00C093B80015
:100BC000DF91CF9108950895E091A1028091A00254
:100BD000E81730F4F0E0EE5FFD4F808190E008957B
:100BE0008FEF9FEF08959091A1028091A0022FEFC7
:100BF0003FEF981748F4E92FF0E0EE5FFD4F2081BA
:100C000030E09F5F9093A102C90108958091A002F6
:100C10009091A102891B990B0895CF92DF92EF92D8
:100C2000FF920F931F93CF93DF937C01CB018A0137
:100C300020910102222389F0EB016B01C40ED51E25
:100C4000CC15DD0569F06991D701ED91FC9101901A
:100C5000F081E02DC7010995F3CF642F0E947D0537
:100C6000C801DF91CF911F910F91FF90EF90DF901E
:100C7000CF900895CF93DF931F92CDB7DEB76983EE
:100C8000209101022223F9F020919E02203258F097
:100C900021E030E0FC013383228390E080E00F907C
:100CA000DF91CF91089580919F02E82FF0E0EF51FE
:100CB000FE4F998190838F5F80939F0280939E0265
:100CC00081E090E0ECCF61E0CE0101960E947D05CD
:100CD000F7CF90E080E008959C0197FF02C0295F64
:100CE0003F4F43E0359527954A95E1F7F901E358E1
:100CF000FE4F208130E068E070E00E94C112A9013F
:100D000002C0559547958A95E2F7CA01817008950A
:100D10004F925F926F927F928F929F92AF92BF920B
:100D2000CF92DF92EF92FF920F931F93CF93DF93B7
:100D30007C018091230397E0692E05E4813019F04E
:100D400085E0682E0BE0D0E0C0E010E0A62CB12CCE
:100D5000650121E0C21AD1088091C0029091C102C0
:100D6000C817D9070CF09CC0CE010E946C060C2C51
:100D700001C0880F0A94EAF71695182B011354C086
:100D8000CC19DD09D7FD8CC081E090E00C2C01C0AE
:100D9000880F0A94EAF7782E709410E000E0912C06
:100DA000812CCE01880D991D2091C0023091C10285
:100DB00082179307ECF50E946C060C2C01C0880F7B
:100DC0000A94EAF71695182B8FEF881A980AC4012F
:100DD000B5010E94C112892B21F70C3608F060C0C2
:100DE000112331F190E080E020E0612F70E0AB0151
:100DF000082E02C0559547950A94E2F74170240FDA
:100E000001968830910599F720FF4AC017218091FB
:100E10002303813059F080E3F701E00FF11D180F33
:100E200010830F5F10E0BDCF219696CF80E2F4CF04
:100E3000802F90E0E80EF91EF7011082F2E0EF1A21
:100E4000F108F70120812F3359F5502E492E069DC8
:100E5000300111248091230305E0813009F407E07B
:100E6000F12CE12C10E05801F1E0AF1AB108EA14BE
:100E7000FB04D4F46701912C812CC614D70454F4DC
:100E8000C6018C0F9D1F0E946C06880E911CC00E1F
:100E9000D11EF3CF80FC04C02FEFE21AF20AE7CF95
:100EA00055245A9444244A94852D942DDF91CF9152
:100EB0001F910F91FF90EF90DF90CF90BF90AF9078
:100EC0009F908F907F906F905F904F900895462FE6
:100ED000FC0197FD379623E0F595E7952A95E1F714
:100EE00068E070E00E94C11221E030E0B90102C068
:100EF000660F771F8A95E2F7CB01E358FE4F90818A
:100F0000442319F0892B8083089580958923FBCF92
:100F10008091C0029091C102803293408CF4609124
:100F2000A6028091C0029091C1020E946707809141
:100F3000C0029091C10201969093C1028093C002B9
:100F400008953F924F925F926F927F928F929F92FD
:100F5000AF92BF92CF92DF92EF92FF920F931F93C7
:100F6000CF93DF937C01C8E0D1E088E0982E062F74
:100F700010E092E0A92EDD24DA9425EEC22E35ECA5
:100F8000B32ED093010290927C0110929F02109296
:100F90009E02A801B70184E193E00E940D06309003
:100FA0009E0280E2831508F4EFC080907C010E94CD
:100FB00073022B013C0180916C02811167C0A092E9
:100FC0006C02D0936E02D0926B021092900230921B
:100FD0008F02A1EEB1E0EFE6F2E03812ACC0109261
:100FE000910280919102880C882A809291028091CE
:100FF0006D02813009F0A3C010926D020E9473024D
:101000002B013C01809191028093BB0080912302CF
:1010100090912402A0912502B0912602892B8A2B5F
:101020008B2BA1F00E9473022091230230912402A5
:101030004091250250912602641975098609970985
:10104000261737074807590708F441C08091BC00AC
:1010500083FDD8CFB092BC000E9473022B013C01EB
:1010600080916C02823009F46DC080916B028F3FD9
:1010700009F48CC080916B02803209F489C08091A0
:101080006B02803309F486C084E026C0809123027D
:1010900090912402A0912502B0912602892B8A2BDF
:1010A0008B2B09F488CF0E94730220912302309188
:1010B000240240912502509126026419750986097F
:1010C0009709261737074807590708F074CF80910A
:1010D00022020E94C20585E010929F0210929E0299
:1010E00010920102882309F457C0A89569E170E0C5
:1010F00080E090E00E949802C15009F042CF8091B8
:10110000A2029091A30201969093A3028093A2025F
:1011100080E0DF91CF911F910F91FF90EF90DF90D2
:10112000CF90BF90AF909F908F907F906F905F9087
:101130004F903F9008959D9191938F5F4ECFC092B5
:10114000BC008ACF8091230290912402A0912502B5
:10115000B0912602892B8A2B8B2B09F481CF0E9418
:101160007302209123023091240240912502509174
:101170002602641975098609970926173707480753
:10118000590708F06DCFA3CF81E0A6CF80E0A4CFB0
:1011900082E0A2CF83E0A0CF81E0BBCF85ED80933A
:1011A000BC008091230290912402A0912502B0916D
:1011B00026020796A11DB11D23E0B695A795979528
:1011C00087952A95D1F72091BC0024FD03C0109289
:1011D0006C020895409123025091240260912502EF
:1011E00070912602452B462B472B69F30097A105EA
:1011F000B10541F02AE22A95F1F700C00197A10953
:10120000B109E1CF809122020C94C2051F920F9286
:101210000FB60F9211242F933F938F939F93AF9309
:10122000BF938091AC029091AD02A091AE02B091BB
:10123000AF023091AB0223E0230F2D3758F5019612
:10124000A11DB11D2093AB028093AC029093AD021F
:10125000A093AE02B093AF028091B0029091B10220
:10126000A091B202B091B3020196A11DB11D80936D
:10127000B0029093B102A093B202B093B302BF91B7
:10128000AF919F918F913F912F910F900FBE0F9033
:101290001F90189526E8230F0296A11DB11DD2CFED
:1012A0001F920F920FB60F9211242F933F934F93DB
:1012B0005F936F937F938F939F93AF93BF93EF93BE
:1012C000FF93E0911401F09115010995FF91EF91C1
:1012D000BF91AF919F918F917F916F915F914F914E
:1012E0003F912F910F900FBE0F901F9018951F9256
:1012F0000F920FB60F9211242F933F934F935F934A
:101300006F937F938F939F93AF93BF93EF93FF93CD
:10131000E0911201F09113010995FF91EF91BF91B6
:10132000AF919F918F917F916F915F914F913F917D
:101330002F910F900FBE0F901F9018951F920F9234
:101340000FB60F9211242F933F934F935F936F9398
:101350007F938F939F93AF93BF93EF93FF93E0910E
:101360001001F09111010995FF91EF91BF91AF919B
:101370009F918F917F916F915F914F913F912F91AD
:101380000F900FBE0F901F9018951F920F920FB6DF
:101390000F9211242F933F934F935F936F937F93FB
:1013A0008F939F93AF93BF93EF93FF93E0910E01C1
:1013B000F0910F010995FF91EF91BF91AF919F912E
:1013C0008F917F916F915F914F913F912F910F90EE
:1013D0000FBE0F901F9018951F920F920FB60F928D
:1013E00011242F933F934F935F936F937F938F932A
:1013F0009F93AF93BF93EF93FF93E0910C01F09114
:101400000D010995FF91EF91BF91AF919F918F9140
:101410007F916F915F914F913F912F910F900FBEF0
:101420000F901F9018951F920F920FB60F921124D4
:101430008F939F938091E1009091E100937F90932F
:10144000E10083FF0FC01092E90091E09093EB0060
:101450001092EC0092E39093ED001092C30298E09A
:101460009093F00082FF22C093E09093E900909166
:10147000F200992319F09AE39093E8009091970273
:10148000992341F090919702915090939702911176
:1014900001C05D989091C202992341F09091C202DF
:1014A00091509093C202911101C0289884FF18C0F6
:1014B0008091E2008E7E81608093E2008091E10065
:1014C0008F7E8093E100809198028E7E8061809370
:1014D00098029F918F910F900FBE0F901F901895BB
:1014E00080FFF7CF8091E2008E7E80618093E200E2
:1014F0008091E1008E7E8093E100809198028E7E43
:101500008160E5CF1F920F920FB60F921124CF92F8
:10151000DF92EF92FF920F931F932F933F934F937E
:101520005F936F937F938F939F93AF93BF93EF934B
:10153000FF93CF93DF93CDB7DEB76C97DEBFCDBF00
:101540001092E9008091E80083FF25C068E0CE0199
:1015500045960E944F0482EF8093E8008D8987FFB3
:1015600039C09091E80090FFFCCF982F907609F059
:1015700034C19E894F89588D2F89F88C911131C0C3
:10158000803861F5809199028093F1001092F1000A
:101590008EEF8093E8006C960FB6F894DEBF0FBE16
:1015A000CDBFDF91CF91FF91EF91BF91AF919F910F
:1015B0008F917F916F915F914F913F912F911F91EB
:1015C0000F91FF90EF90DF90CF900F900FBE0F9094
:1015D0001F9018959EEF9093E800C7CF1092F100EE
:1015E000D5CF913059F48111D3CF4130510581F6D7
:1015F000809199028D7F80939902CACF933049F4EC
:101600008111C6CF4130510519F68091990282604F
:10161000F2CF953041F48091E80080FFFCCF206844
:101620002093E300B5CF963009F0A9C00B8D1C8D37
:1016300022E01092E9001092950210929402F212A8
:101640002EC010929302109292020E941E041F82DA
:1016500099E09983FA8291E09E8390EA98879AEFC5
:1016600099872091940230919502275F3F4F3C83E8
:101670002B838D831092E9001092950210929402B0
:10168000109393020093920249E050E0BE016F5F15
:101690007F4F80E00E94F8030E941E0479CF1093D0
:1016A0009302009392020E948001DC0112960D9138
:1016B0001C910115110509F451C1D801ED91FC915E
:1016C0000480F581E02DBE016B5E7F4FC801099556
:1016D000009709F03EC1F80100851185EACFF3E0DB
:1016E000FF120EC08F89882309F440C0823061F454
:1016F00040E860E180E191E00E94C503811148CF9C
:1017000081E28093EB0047CF813029F440E86BE021
:1017100084E091E0F1CF833099F70E948001DC01F1
:101720001296ED90FC908E010F5F1F4F6801E1143F
:10173000F10479F0D701ED91FC910680F781E02D5D
:10174000B801C7010995080F111DF701E084F18464
:10175000EECFD8011C92F60101900020E9F73197F5
:10176000BF016C197D0940E0C601C6CF6EEE70E086
:10177000FB01449150E080E80E94F80309CF9730C4
:1017800009F4BECF983021F481E08093F10000CFBE
:10179000993009F0FDCE837009F0B2CFEFE3F1E0AC
:1017A00081E031E096E32191222371F08093E900FA
:1017B0003093EB00DF0111972C912093EC00909374
:1017C000ED008F5F873079F78EE78093EA00109203
:1017D000EA008F898093C302DBCE8B8D9C8D1092A3
:1017E000E9001092950210929402909393028093D4
:1017F0009202898D811192C08E899D89913A49F416
:10180000813209F07DCF47E050E064E071E080E094
:10181000B3CF913209F074CF833269F48F89988DF8
:10182000B0E0A0E08093000190930101A093020139
:10183000B0930301ADCE803269F48091E80082FF5D
:10184000FCCF67E084E091E00E944F048BEF80932F
:10185000E8009ECE823209F09BCE8F8980930B01E7
:10186000EEEFFFE7859194918B3F9C4D51F1E0E0C5
:10187000F8E08091040190910501A0910601B091DA
:101880000701803B9440A105B105F1F480910B0163
:1018900080FD1AC0EE3F8AE0F80789F587E797E7F1
:1018A00091838083809160008093960288E19BE021
:1018B0000FB6F894A895809360000FBE90936000D7
:1018C00067CEEEEFFAE0D5CF8081918187379747D9
:1018D00009F05ECEA89580916000886180936000D9
:1018E0008091960280936000EE3F2AE0F20789F033
:1018F0008091FE0A9091FF0A9183808349CE808176
:1019000091818737980751F29093FF0A8093FE0ADE
:10191000C5CF1092FF0A1092FE0A3ACE0E948001B3
:10192000DC0112960D911C910115110509F4E8CE08
:10193000D801ED91FC910190F081E02DBE016B5E2C
:101940007F4FC8010995811123CEF80100851185CB
:10195000EBCF181619060CF41BCED2CEF1E0FF1215
:10196000BECE62EF70E004CF1F920F920FB60F92BF
:1019700011242F933F934F935F936F937F938F9394
:101980009F93AF93BF93EF93FF938091B900887FAC
:10199000803609F44AC0F0F5883209F4A7C018F57A
:1019A000803109F49BC0B8F4882309F4F9C0883069
:1019B00009F494C0FF91EF91BF91AF919F918F91E6
:1019C0007F916F915F914F913F912F910F900FBE3B
:1019D0000F901F901895883109F488C0803251F714
:1019E00080936B0214C0803409F49DC040F48033AE
:1019F000B9F38833F9F680936B0285ECB0C080357B
:101A000009F485C0883509F496C0883499F60E9497
:101A1000CE08D0CF883909F48CC038F5883729F042
:101A200050F4883611F0803729F683E080936C02F9
:101A300010926A0257C0883809F47BC0803919F0C7
:101A4000803809F0B7CF80916A02803208F071C007
:101A5000E0916A0281E08E0F80936A028091BB0060
:101A6000F0E0E65BFD4F80833DC0803B39F0E0F461
:101A7000803A09F479C0883A09F09CCF84E08093D9
:101A80006C021092490210924802E0919C02F0917F
:101A90009D0209958091480281110FC081E08093D9
:101AA00048021092280209C0803C09F4A6CF883C65
:101AB00009F4A3CF883B09F07DCFE091490281E092
:101AC0008E0F80934902F0E0E85DFD4F80818093A6
:101AD000BB00909149028091480229C080919102F7
:101AE0008093BB0085EC8093BC0064CF9091900202
:101AF00080918F02981758F5E091900281E08E0F47
:101B000080939002F0E0E159FD4F8081E9CFE091B0
:101B1000900281E08E0F809390028091BB00F0E0F4
:101B2000E159FD4F80839091900280918F02981728
:101B3000C8F285E8D8CFE091900281E08E0F8093C3
:101B400090028091BB00F0E0E159FD4F80838091CD
:101B50006E0281115CCF81E080936D0284EA8093F4
:101B6000BC0010926C0226CF85EC8093BC001092D2
:101B70006C0280916A02803230F4E0916A02F0E0F7
:101B8000E65BFD4F108260916A0270E0E0919A027C
:101B9000F0919B028AE492E0099510926A020ACFC2
:101BA00010926B0234CF1092C7021092C60288EED8
:101BB00093E0A0E0B0E08093C8029093C902A093A4
:101BC000CA02B093CB0229E431E03093C5022093DE
:101BD000C4022FEF3FEF3093D1022093D002109236
:101BE0001703109216038093180390931903A09380
:101BF0001A03B0931B038BE591E090931503809338
:101C000014031092290310922D0310922C031092AA
:101C10002E038DE691E09093280380932703E3E45D
:101C2000F3E01082148213821582369683E0EF3738
:101C3000F807B9F78EE191E090938A0380938903C6
:101C400087E191E090938C0380938B0384E08093F1
:101C50008D0387E080938E0382E291E09093880366
:101C6000809387038AE090E09093900380938F03A2
:101C700084EF91E0909392038093910310929503E7
:101C800010929403109283031092840310928503A0
:101C9000109286031092930386E1809320031092A2
:101CA000210381E0809322031092250310922403E4
:101CB000109226030895CF93DF93CDB7DEB7CE58A9
:101CC000D1090FB6F894DEBF0FBECDBF789484B5AE
:101CD000826084BD84B5816084BD85B5826085BD28
:101CE00085B5816085BD80916E00816080936E00B6
:101CF00010928100809181008260809381008091A8
:101D00008100816080938100809180008160809358
:101D10008000809191008260809391008091910079
:101D20008160809391008091900081608093900009
:101D30008091C10084608093C1008091C100826065
:101D40008093C1008091C10081608093C100809127
:101D5000C30081608093C3008091C0008260809343
:101D6000C0008091C20081608093C20080917A009F
:101D7000846080937A0080917A00826080937A00F8
:101D800080917A00816080937A0080917A008068E7
:101D900080937A001092C3021092990210929802D6
:101DA0008091D70081608093D70080EA8093D8002B
:101DB00089B5806189BD89B5826089BD09B400FE9D
:101DC000FDCF61E070E080E090E00E949802809199
:101DD000D8008F7C80618093D8008091E000807F64
:101DE0008093E0008091E1008E7E8093E1008DE0A1
:101DF0008093E200559A209A5D98289860ED77E0EC
:101E000080E090E00E9498028FEF9FEF9093D102C4
:101E10008093D00282E08093230360E080912103CD
:101E20000E94370260E0809122030E94370260E046
:101E3000809120030E94370280912103882309F4B6
:101E4000BDC0813009F4BCC0823009F4BBC083300E
:101E500009F4BAC0873039F484E041E050E06FE320
:101E600073E00E94460380912203882309F4AEC0E8
:101E7000813009F4ADC0823009F4ACC0833009F47C
:101E8000ABC0873039F484E042E050E068E877E0A6
:101E90000E9446031092A1021092A00210929F028B
:101EA00010929E020E94A4058DE393E090939D0200
:101EB00080939C028EE393E090939B0280939A021E
:101EC00062E085E00E94370262E084E00E9437020F
:101ED00061E085E10E94370261E085E10E9409022C
:101EE00060E085E10E94090283EC90E00197F1F740
:101EF00085E00E94E001892B31F484E00E94E0013A
:101F000011E0892B09F410E061E085E10E940902EB
:101F1000109316011093A5021092A4020E94CA0207
:101F20006093A7027093A8028093A9029093AA02DB
:101F300073E7E72E71E0F72E111104C066E7E62E75
:101F400061E0F62E13E062E0C7010E94A10788233A
:101F500009F444C081E08093A40288E198E20FB6BE
:101F6000F894A895809360000FBE90936000412C78
:101F7000512C320143949E012F5F3F4F79014DE672
:101F800050E04C0F5D1F4F5F5F4FC357DF4F5983CA
:101F90004883CD58D040A89584EC92E00E94630518
:101FA000892B09F481C084EC92E00E946305892B9F
:101FB000F9F084EC92E00E942105F5CF82E04DCF4C
:101FC00083E04BCF81E049CF80E047CF82E05CCF18
:101FD00083E05ACF81E058CF80E056CF64E670E0CE
:101FE00080E090E00E949802115009F0ACCFB5CF8C
:101FF0008BE591E00E94F7048091A502882309F403
:1020000083C088E491E00E94F7048BE491E00E9491
:10201000F7048091A402882309F479C088E391E051
:102020000E94F7048CE391E00E94F704809116016E
:10203000882309F46FC086E291E00E94F70489E2E8
:1020400091E00E94F7042091A2023091A30250E097
:1020500040E019A28E010F5D1F4FCA01B9012AE0AD
:1020600030E040E050E00E94D512605DF8016293DC
:102070008F01211531054105510579F7309761F040
:1020800001900020E9F73197AF01401B510BB801D7
:1020900084EC92E00E945C0442E050E069E771E069
:1020A00084EC92E00E945C0481E0809393030E94A0
:1020B000CA0200918303109184032091850330911B
:1020C0008603AB01BC01401B510B620B730B80916B
:1020D0008F0390919003B0E0A0E084179507A607C6
:1020E000B70708F080C110E080918D031817A8F49D
:1020F000E0918903F0918A03E10FF11D62E0808194
:102100000E9437021F5FF0CF83E491E07CCF85E32C
:1021100091E086CF81E291E090CF312C80918E03C7
:10212000381608F061C0C32CD12CE0918B03F091DC
:102130008C03EC0DFD1D61E080810E943702E0916F
:102140008B03F0918C03EC0DFD1D60E080810E94FB
:102150000902D301C201032C04C0880F991FAA1FD2
:10216000BB1F0A94D2F74C015C01A094B094212CBF
:1021700080918D03281608F5022D10E0E091890367
:10218000F0918A03E00FF11F80810E94E0010C5F53
:102190001F4F000F111FF801E95DFC4F892B41F41F
:1021A0008081918188299929918380832394E0CF2C
:1021B000808191818A219B21F7CFE0918B03F0915F
:1021C0008C03EC0DFD1D61E080810E94090280916D
:1021D0008B0390918C03C80ED91E60E0F6018081BC
:1021E0000E94370233949ACF07E213E06801F601A8
:1021F000878D90A1892B31F4148E2FEF3FEF368F0E
:10220000258F11A236E0C30ED11C43E6C41643E06D
:10221000D40669F7B12C80918D03B81608F053C02D
:10222000A12C8B2C912C880C991CC401815D9C4F96
:102230004C0120918E03A21608F043C0F401608186
:1022400071810A2C02C0769567950A94E2F7B29ED6
:10225000900111242A0D311DE7E2F3E080E0458D65
:10226000568D2417350709F48AC18F5F36968A3058
:10227000B1F760FF24C0E7E2F3E090E080E0448D36
:10228000411118C0E0918703F0918803E20FF31F1A
:10229000408156E0589FF001599FF00D1124E95DEF
:1022A000FC4F448F368F258F10A2178E61E00E945D
:1022B000D60205C0019636968A30910501F7A3949F
:1022C000B8CFB394A8CFB12CF80181A18111B82E59
:1022D0000A5F1F4FC016D106B9F70E94CA02609369
:1022E0008303709384038093850390938603BB20BC
:1022F00009F479C080914803882309F474C080915F
:10230000460390914703019709F06DC08091430304
:1023100081116CC08091260381111EC08091200321
:102320000E94E001019799F480912603811114C065
:10233000809120030E94E001019749F41092C102AC
:102340001092C0021092A60281E080932603809131
:102350002603882309F459C0809120030E94E001DC
:102360008C01892B09F051C080912603882309F440
:1023700045C010922603C7010E94880621E030E084
:10238000309325032093240397FF90C0D12CC12CB8
:102390008091C0029091C10297FD01969595879515
:1023A000C816D9060CF077C0C6010E946C06B82E7C
:1023B0008091C0029091C1028C199D0901970E94E1
:1023C0006C06682FC6010E9467078091C002909139
:1023D000C1028C199D096B2D01970E946707FFEFC1
:1023E000CF1ADF0AD5CF1092930394CF9BE4998341
:1023F0008A8362E0C7010E94A1078CCF80912003ED
:102400000E94E001019709F0B4CF0E94CA024B017B
:102410005C0160E085E10E9409028091A702909131
:10242000A802A091A902B091AA02A5019401281BBB
:10243000390B4A0B5B0BDA01C901C297A105B10543
:10244000F0F080911601882309F47EC085E00E9497
:10245000E001892BA1F084E00E94E001892B79F44E
:10246000109216018092A7029092A802A092A9024F
:10247000B092AA0262E086E791E00E94A10761E0C3
:1024800085E10E94090280E090E0892B09F483CD68
:102490000E94000080CDC7010E94880697FD16C0EB
:1024A00022E030E03093250320932403009709F4C1
:1024B000ACCFF701419198012F5F3F4FB9014B33EA
:1024C00051F0890182179307A9F79FCF1092250336
:1024D000109224039ACFD701A20FB31F28173907F0
:1024E0000CF093CF4D91F90131964D3359F5EE0D26
:1024F000FF1DAF014E195F09481759070CF085CF32
:1025000041914F33B1F76E0D7F1D0095020F09F415
:102510007CCF003208F00FE183E4AE968FAFAE9728
:10252000402F50E0C357DF4F88819981CD58D0406C
:102530000E94111361E0600FCE0183599F4F0E94EA
:10254000A10763CF9F01CACF85E00E94E001892BDC
:1025500009F095CF84E00E94E001892B09F48FCF28
:1025600081E0809316018092A7029092A802A09227
:10257000A902B092AA0262E083E791E07ECF617087
:1025800096CE97FB072E16F4009407D077FD09D05E
:102590000E94FD1207FC05D03EF4909581959F4F57
:1025A0000895709561957F4F0895A1E21A2EAA1B98
:1025B000BB1BFD010DC0AA1FBB1FEE1FFF1FA217F3
:1025C000B307E407F50720F0A21BB30BE40BF50BF0
:1025D000661F771F881F991F1A9469F76095709579
:1025E000809590959B01AC01BD01CF010895EE0F40
:1025F000FF1F0590F491E02D0994AA1BBB1B51E12C
:1026000007C0AA1FBB1FA617B70710F0A61BB70B62
:10261000881F991F5A95A9F780959095BC01CD0107
:102620000895FB01DC0102C001900D924150504021
:08263000D8F70895F894FFCFDC
:10263800FFFFFFFF00E10000000000009603960383
:10264800960396039603010A0B0C0D12131409083E
:10265800070631323341424344343536454647480C
:10266800373839494A4B4C2A30234D4E4F5000C118
:10267800808100000000000000E1045C041D0512D8
:1026880005630521053F05000000003A060D0669AF
:1026980006E3050606F305E40500000000320336EC
:0C26A800033A034855004844000D0A00A6
:00000001FF
