:100000000C94D5000C94090C0C94E20B0C94BB0BD3
:100010000C94940B0C94FD000C94FD000C946D0B4F
:100020000C94FD000C94FD000C9482080C94F108D3
:100030000C94FD000C94FD000C94FD000C94FD004C
:100040000C94FD000C94FD000C94FD000C94FD003C
:100050000C94FD000C94FD000C94FD000C94230BFB
:100060000C94FD000C94FD000C94FD000C94FD001C
:100070000C94FD000C94FD000C94FD000C94FD000C
:100080000C94FD000C94FD000C94FD000C94FD00FC
:100090000C94300C0C94FD000C94FD000C94FD00AD
:1000A0000C94FD000C94FD000C94FD000000000079
:1000B000240027002A002D00300000000000250049
:1000C00028002B002E003100000000002300260035
:1000D00029002C002F000404040404030405020278
:1000E00002020403020202020606060606060404D1
:1000F0000202020404040802011040804010204063
:10010000804080080204018040201002011080100D
:10011000204040200000000200090F0000030401FD
:10012000000C0000000000000000000000000000C3
:10013000000000080B000202020000090400000198
:10014000020200000524001001052401010104241D
:10015000020605240600010705810310004009047A
:100160000100020A00000007050202400000070526
:1001700083024000000403090412010002EF02019F
:100180004041234580000101020301417264756909
:100190006E6F204C4C43004D696C6C656E6E6975DA
:1001A0006D20416C706861004F0D11241FBECFEFB0
:1001B000DAE0DEBFCDBF11E0A0E0B1E0E6E8F3E2B7
:1001C00002C005900D92AA37B107D9F723E0AAE73C
:1001D000B1E001C01D92A039B207E1F710E0C5ED12
:1001E000D0E004C02197FE010E94A711C43DD107B1
:1001F000C9F70E94D70D0C94C1110C94000096E031
:10020000899FD0011124AF5DBC4F90967C936E9373
:100210005F9791E091969C939197E0918E03F09176
:100220008F0390918D03992339F0309751F081110C
:1002300008C080913D030994309719F05C968C9129
:10024000FACF0895FC0180916B02882311F13FB72A
:10025000F89482E08093E9002091F200822F90E0F0
:100260001816190614F481E090E0882339F0289AD2
:1002700044E640936A024091F1004083222339F022
:100280002091F200211103C02BE62093E8003FBF2C
:1002900008958FEF9FEF08952FB7F89483E0809330
:1002A000E9009091E800892F807295FF04C0909139
:1002B000F20080E4891B2FBF0895809162028111B2
:1002C0000DC082E080935E0284E080935F02109212
:1002D00061021092600281E0809362028EE592E0FA
:1002E0000895CF93DF931F92CDB7DEB76983DC010A
:1002F000ED91FC910280F381E02D41E050E0BE01E0
:100300006F5F7F4F09950F90DF91CF91089583E044
:100310008093E9008091F200882319F08AE38093AA
:10032000E80008950E944C0190E00895CF93DF9378
:100330001F92CDB7DEB7FC018485958597FD08C077
:100340002FEF3FEF358724870F90DF91CF910895EE
:10035000CE0101960E942201019719F4898190E053
:10036000F3CF8FEF9FEFF0CF0F931F93CF93DF93D8
:100370001F92CDB7DEB78C01FC018485958597FF70
:100380000BC0CE0101960E942201019771F4898170
:1003900090E0F80195878487F801848595850F9012
:1003A000DF91CF911F910F9108958FEF9FEFF1CFC4
:1003B000FC018485958597FD0BC09FB7F89482E07A
:1003C0008093E9008091F2009FBF90E0019608952C
:1003D0009FB7F89482E08093E9008091F2009FBF7C
:1003E00090E0089540915802509159022091560290
:1003F0003091570242175307B4F49091E80095707A
:10040000E1F39091E80092FD19C08093F100809192
:1004100058029091590201968F739927892B19F4EC
:100420008EEF8093E80080915802909159020196D6
:10043000909359028093580281E0089580E00895D6
:10044000EF92FF920F931F93CF93DF93F82E192F04
:10045000E62E042F81E0860F880F0E94F20183E0D0
:100460000E94F201CF2DD12FEC0EFD2EF11CCE15E6
:10047000DF05B9F007FF13C0FE0184910E94F2016D
:10048000182F80E00E94F201812321968111EFCF85
:10049000DF91CF911F910F91FF90EF900895888188
:1004A000EDCF81E0F5CFDF92EF92FF920F931F9394
:1004B000CF93DF93D82E8A01EB017B01E40EF51E6A
:1004C000CE15DF0559F0D7FE12C0FE0184910E94BF
:1004D000F20121968111F4CF0FEF1FEFC801DF91D8
:1004E000CF911F910F91FF90EF90DF900895888139
:1004F000EECF0F931F93CF93DF931F92CDB7DEB74D
:1005000082E0898342E450E063E371E080E80E9486
:1005100053020E945D01DC0112960D911C910115A0
:10052000110589F0D801ED91FC910280F381E02D55
:10053000BE016F5F7F4FC801099597FD04C0F801A8
:1005400000851185ECCF89810F90DF91CF911F91AC
:100550000F910895615030F02091F100FC0120834B
:100560000196F8CF289A84E680936A020895815014
:100570008F3008F047C0E82FF0E0EF53FD4F0C94A8
:10058000A711DE02E202D002D602DA02020302035F
:100590000203E502EB02EF02F302F9020203FD029D
:1005A000809180008F7780938000089580918000F3
:1005B0008F7DF9CF80918000877FF5CF84B58F77CD
:1005C00084BD089584B58F7DFBCF809190008F7797
:1005D000809390000895809190008F7DF9CF809155
:1005E0009000877FF5CF8091C0008F778093C00007
:1005F00008958091C0008F7DF9CF8091C200877FE0
:100600008093C2000895CF93DF93282F30E0F90143
:10061000EC5EFE4F8491F901EB50FF4FD491F9014C
:10062000EA52FF4FC491CC23A1F081110E94B7027E
:10063000EC2FF0E0EE0FFF1FE853FF4FA591B491B0
:10064000EC91ED2381E090E009F480E0DF91CF911F
:10065000089580E090E0FACF1F93CF93DF93282F87
:1006600030E0F901EC5EFE4F8491F901EB50FF4F51
:10067000D491F901EA52FF4FC491CC23A9F0162F6F
:1006800081110E94B702EC2FF0E0EE0FFF1FE6543D
:10069000FF4FA591B4918FB7F894EC91111108C058
:1006A000D095DE23DC938FBFDF91CF911F9108950A
:1006B000DE2BF8CFCF93DF9390E0FC01EB50FF4FA0
:1006C00024918A529F4FFC0184918823C9F090E0C5
:1006D000880F991FFC01E455FF4FA591B491FC01CF
:1006E000E654FF4FC591D49161110DC09FB7F894A6
:1006F0008C91209582238C938881282328839FBF07
:10070000DF91CF910895623051F49FB7F8943C91F6
:10071000822F809583238C93E8812E2BEFCF8FB788
:10072000F894EC912E2B2C938FBFEACF3FB7F8941F
:100730008091520290915302A0915402B0915502BF
:1007400026B5A89B05C02F3F19F00196A11DB11D2C
:100750003FBFBA2FA92F982F8827BC01CD01620F68
:10076000711D811D911D42E0660F771F881F991F23
:100770004A95D1F708958F929F92AF92BF92CF92F0
:10078000DF92EF92FF924B015C010E9496036B0196
:100790007C010E9496036C197D098E099F09683EB1
:1007A000734081059105A8F321E0821A9108A10800
:1007B000B10888EEC80E83E0D81EE11CF11C81143C
:1007C0009104A104B10429F7FF90EF90DF90CF903E
:1007D000BF90AF909F908F9008958F929F92AF920D
:1007E000BF92CF92DF92EF92FF920F931F93CF931E
:1007F000DF936C017B018A0180911601882309F443
:100800005CC080916B02882309F457C080915D021F
:1008100080FF05C08091E00082608093E000E801E5
:10082000B12C8AEFA82E93E0892E2AE3922E2097EE
:1008300011F4BB20D9F10E944C0181110AC0AA9485
:10084000AA20D9F161E070E080E090E00E94BB0353
:10085000EECF8C171D0611F00CF08C2F9FB7F8947B
:100860008092E9002091E80025FD02C09FBFDFCF04
:10087000282F30E0C21BD30BF701815020F04191AB
:100880004093F100FACFE20EF31EBB2021F09092CC
:10089000E800B12CEBCF8091E80085FDE7CF909286
:1008A000E800BB24B394209709F3F3CF5D9A84E664
:1008B00080935C02101611063CF081E090E0F60196
:1008C0009383828310E000E0C801DF91CF911F91F4
:1008D0000F91FF90EF90DF90CF90BF90AF909F90DF
:1008E0008F9008952FB7F89460914E0270914F0247
:1008F00080915002909151022FBF08950F931F9342
:10090000CF93DF93C82FD62F86E0C89FF001112424
:10091000EF5DFC4F11A2878D90A181309105F1F020
:1009200058F082309105F1F1039709F440C0DF914E
:10093000CF911F910F9108956623C9F361E070E094
:100940008C2F0E94FF000E947204609379037093C1
:100950007A0380937B0390937C03E9CF0E94720417
:100960000091790310917A0320917B0330917C03ED
:10097000AB01BC01401B510B620B730B80918B03CD
:1009800090918C03B0E0A0E084179507A607B70705
:1009900048F462E070E08C2FDF91CF911F910F91AE
:1009A0000C94FF0063E070E0D111C1CFF4CF70E090
:1009B00060E0F1CF862F642F0C945A03862F642FAA
:1009C0000C942C03862F0C940303089508958091B2
:1009D000480291E08927809348020895E82FF0E0CB
:1009E000EE0FFF1FE050FF4F718360838230F9F0FC
:1009F00028F4882341F0813071F00895833021F18B
:100A0000843079F10895809169008C7F482B409360
:100A10006900E89A089580916900837F440F551F0B
:100A2000440F551F482B40936900E99A089580911F
:100A300069008F7C34E0440F551F3A95E1F7482B4D
:100A400040936900EA9A0895809169008F7326E0C7
:100A5000440F551F2A95E1F7482B40936900EB9A04
:100A6000089580916A008F7C94E0440F551F9A95F9
:100A7000E1F7482B40936A00EE9A0895089520917B
:100A80001F02260F3327331F21323105ECF420914A
:100A90009402FC0190E080E0243069F082E0089547
:100AA000A0911F022191AC0141505E4FA40FB52FC0
:100AB000B11D2C930196861798F380911F02680F41
:100AC00060931F0280E0089581E0089510929402DF
:100AD00081E08093930210926E0261E082E00E94B6
:100AE0002C0361E083E00E942C03E9EBF0E08081BD
:100AF0008E7F808380818D7F808388E48093B8009F
:100B000085E48093BC000895CF93DF9391E09093A8
:100B1000FE018823B9F0C091B800D091BA0080914D
:100B2000BC008A7B8093BC0060E082E00E942C03C2
:100B300060E083E00E942C030E946605D093BA0017
:100B4000C093B800DF91CF910895CF92DF92EF92DA
:100B5000FF920F931F93CF93DF93D091BD0281E05B
:100B6000D13208F09CC0C091BC020E9496036B0178
:100B70007C018091940281116CC082E08093940288
:100B800081E0809393028FEF809392021092910202
:100B9000D0939002ACE9B2E0E0E7F2E080E0D81355
:100BA0008DC010926F0280916F02CC0FC82BC09342
:100BB0006F0280916E02813009F084C010926E0243
:100BC0000E9496036B017C0180916F028093BB00B1
:100BD0008091960290919702A0919802B09199020B
:100BE000892B8A2B8B2BA1F00E94960300919602F1
:100BF0001091970220919802309199026C197D0909
:100C00008E099F09061717072807390708F442C0FD
:100C10008091BC0083FDD8CF85EC8093BC000E94FE
:100C200096036B017C0180919402823009F44CC0E0
:100C3000809192028F3F09F469C0809192028032C4
:100C400009F466C080919202803309F463C084E0A5
:100C500026C08091960290919702A0919802B0913F
:100C60009902892B8A2B8B2B09F483CF0E94960340
:100C7000009196021091970220919802309199026A
:100C80006C197D098E099F09061717072807390770
:100C900008F06FCF809195020E94840585E0109244
:100CA0009B021092BD0210929A02DF91CF911F9188
:100CB0000F91FF90EF90DF90CF9008959D919193C9
:100CC0008F5F6DCF85EEA9CF8091960290919702AC
:100CD000A0919802B0919902892B8A2B8B2B09F451
:100CE000A2CF0E9496030091960210919702209144
:100CF0009802309199026C197D098E099F09061797
:100D000017072807390708F08ECFC4CF80E0C7CF78
:100D100082E0C5CF83E0C3CF0895E0914702809180
:100D20004602E81730F4F0E0E252FE4F808190E096
:100D300008958FEF9FEF08959091470280914602AA
:100D40002FEF3FEF981748F4E92FF0E0E252FE4F03
:100D5000208130E09F5F90934702C9010895809100
:100D6000460290914702891B990B0895CF92DF921A
:100D7000EF92FF920F931F93CF93DF937C01CB01F0
:100D80008A0120919A02222389F0EB016B01C40EA3
:100D9000D51ECC15DD0569F06991D701ED91FC9167
:100DA0000190F081E02DC7010995F3CF642F0E94D7
:100DB0003F05C801DF91CF911F910F91FF90EF90F8
:100DC000DF90CF900895CF93DF931F92CDB7DEB71A
:100DD000698320919A022223F9F02091BD022032EA
:100DE00058F021E030E0FC013383228390E080E082
:100DF0000F90DF91CF91089580919B02E82FF0E052
:100E0000E456FD4F998190838F5F80939B0280937E
:100E1000BD0281E090E0ECCF61E0CE0101960E943E
:100E20003F05F7CF90E080E008959C0197FF02C056
:100E3000295F3F4F43E0359527954A95E1F7F90142
:100E4000E658FE4F208130E068E070E00E94931188
:100E5000A90102C0559547958A95E2F7CA018170AC
:100E600008954F925F926F927F928F929F92AF926E
:100E7000BF92CF92DF92EF92FF920F931F93CF9387
:100E8000DF937C0180911D0397E0692E05E481309A
:100E900019F085E0682E0BE0D0E0C0E010E0A62C51
:100EA000B12C650121E0C21AD10880916C029091A9
:100EB0006D02C817D9070CF09CC0CE010E9415071F
:100EC0000C2C01C0880F0A94EAF71695182B011311
:100ED00054C0CC19DD09D7FD8CC081E090E00C2C0A
:100EE00001C0880F0A94EAF7782E709410E000E0B1
:100EF000912C812CCE01880D991D20916C0230918E
:100F00006D0282179307ECF50E9415070C2C01C0A7
:100F1000880F0A94EAF71695182B8FEF881A980A0B
:100F2000C401B5010E949311892B21F70C3608F0FA
:100F300060C0112331F190E080E020E0612F70E08B
:100F4000AB01082E02C0559547950A94E2F741700F
:100F5000240F01968830910599F720FF4AC0172188
:100F600080911D03813059F080E3F701E00FF11DFE
:100F7000180F10830F5F10E0BDCF219696CF80E24F
:100F8000F4CF802F90E0E80EF91EF7011082F2E016
:100F9000EF1AF108F70120812F3359F5502E492E11
:100FA000069D3001112480911D0305E0813009F474
:100FB00007E0F12CE12C10E05801F1E0AF1AB10884
:100FC000EA14FB04D4F46701912C812CC614D704D5
:100FD00054F4C6018C0F9D1F0E941507880E911CAA
:100FE000C00ED11EF3CF80FC04C02FEFE21AF20A2C
:100FF000E7CF55245A9444244A94852D942DDF91AB
:10100000CF911F910F91FF90EF90DF90CF90BF9005
:10101000AF909F908F907F906F905F904F900895CA
:10102000462FFC0197FD379623E0F595E7952A9525
:10103000E1F768E070E00E94931121E030E0B9012F
:1010400002C0660F771F8A95E2F7CB01E658FE4F84
:101050009081442319F0892B8083089580958923FA
:10106000FBCF80916C0290916D02803293408CF4A2
:101070006091480280916C0290916D020E9410086C
:1010800080916C0290916D02019690936D02809315
:101090006C02089585ED8093BC008091960290913A
:1010A0009702A0919802B09199020796A11DB11DD7
:1010B00023E0B695A795979587952A95D1F7209126
:1010C000BC0024FD03C01092940208954091960242
:1010D000509197026091980270919902452B462B8E
:1010E000472B69F30097A105B10541F02AE22A9543
:1010F000F1F700C00197A109B109E1CF80919502F4
:101100000C9484051F920F920FB60F9211248F93A7
:101110009F938091E1009091E100937F9093E10093
:1011200083FF0FC01092E90091E09093EB001092C2
:10113000EC0092E39093ED0010926B0298E0909394
:10114000F00082FF22C093E09093E9009091F200BA
:10115000992319F09AE39093E80090915C02992307
:1011600041F090915C02915090935C02911101C00A
:101170005D9890916A02992341F090916A02915092
:1011800090936A02911101C0289884FF18C0809141
:10119000E2008E7E81608093E2008091E1008F7E8C
:1011A0008093E10080915D028E7E806180935D027C
:1011B0009F918F910F900FBE0F901F90189580FFF9
:1011C000F7CF8091E2008E7E80618093E200809173
:1011D000E1008E7E8093E10080915D028E7E8160D1
:1011E000E5CF1F920F920FB60F921124CF92DF928C
:1011F000EF92FF920F931F932F933F934F935F9321
:101200006F937F938F939F93AF93BF93EF93FF93CE
:10121000CF93DF93CDB7DEB76C97DEBFCDBF109213
:10122000E9008091E80083FF25C068E0CE01459683
:101230000E94AA0282EF8093E8008D8987FF39C05F
:101240009091E80090FFFCCF982F907609F034C180
:101250009E894F89588D2F89F88C911131C0803823
:1012600061F580915B028093F1001092F1008EEFA6
:101270008093E8006C960FB6F894DEBF0FBECDBF2A
:10128000DF91CF91FF91EF91BF91AF919F918F919E
:101290007F916F915F914F913F912F911F910F918E
:1012A000FF90EF90DF90CF900F900FBE0F901F90A8
:1012B00018959EEF9093E800C7CF1092F100D5CF1C
:1012C000913059F48111D3CF4130510581F680918D
:1012D0005B028D7F80935B02CACF933049F481110A
:1012E000C6CF4130510519F680915B028260F2CF82
:1012F000953041F48091E80080FFFCCF2068209376
:10130000E300B5CF963009F0A9C00B8D1C8D22E00B
:101310001092E9001092590210925802F2122EC057
:1013200010925702109256020E9479021F8299E091
:101330009983FA8291E09E8390EA98879AEF998741
:101340002091580230915902275F3F4F3C832B83F5
:101350008D831092E9001092590210925802109356
:1013600057020093560249E050E0BE016F5F7F4F85
:1013700080E00E9453020E94790279CF10935702B5
:10138000009356020E945D01DC0112960D911C91A2
:101390000115110509F451C1D801ED91FC910480AA
:1013A000F581E02DBE016B5E7F4FC8010995009766
:1013B00009F03EC1F80100851185EACFF3E0FF1284
:1013C0000EC08F89882309F440C0823061F440E860
:1013D00060E187E991E00E942002811148CF81E21B
:1013E0008093EB0047CF813029F440E86BE08BE835
:1013F00091E0F1CF833099F70E945D01DC011296F4
:10140000ED90FC908E010F5F1F4F6801E114F10415
:1014100079F0D701ED91FC910680F781E02DB801BC
:10142000C7010995080F111DF701E084F184EECF83
:10143000D8011C92F60101900020E9F73197BF0115
:101440006C197D0940E0C601C6CF65E771E0FB017C
:10145000449150E080E80E94530209CF973009F48C
:10146000BECF983021F481E08093F10000CF993015
:1014700009F0FDCE837009F0B2CFEFE3F1E081E037
:1014800031E096E32191222371F08093E9003093BB
:10149000EB00DF0111972C912093EC009093ED006D
:1014A0008F5F873079F78EE78093EA001092EA0029
:1014B0008F8980936B02DBCE8B8D9C8D1092E9001F
:1014C000109259021092580290935702809356023C
:1014D000898D811192C08E899D89913A49F481321A
:1014E00009F07DCF47E050E06FE071E080E0B3CFDE
:1014F000913209F074CF833269F48F89988DB0E00E
:10150000A0E080930B0190930C01A0930D01B09388
:101510000E01ADCE803269F48091E80082FFFCCFED
:1015200067E08FE091E00E94AA028BEF8093E800D1
:101530009ECE823209F09BCE8F8980931601EEEF0A
:10154000FFE7859194918B3F9C4D51F1E0E0F8E0ED
:1015500080910F0190911001A0911101B0911201A1
:10156000803B9440A105B105F1F48091160180FD06
:101570001AC0EE3F8AE0F80789F587E797E791837D
:1015800080838091600080935A0288E19BE00FB6CF
:10159000F894A895809360000FBE9093600067CE8A
:1015A000EEEFFAE0D5CF808191818737974709F038
:1015B0005ECEA895809160008861809360008091E4
:1015C0005A0280936000EE3F2AE0F20789F0809192
:1015D000FE0A9091FF0A9183808349CE8081918198
:1015E0008737980751F29093FF0A8093FE0AC5CF80
:1015F0001092FF0A1092FE0A3ACE0E945D01DC01B1
:1016000012960D911C910115110509F4E8CED8012F
:10161000ED91FC910190F081E02DBE016B5E7F4F5A
:10162000C8010995811123CEF80100851185EBCF02
:10163000181619060CF41BCED2CEF1E0FF12BECE66
:1016400069E771E004CF1F920F920FB60F92112439
:101650002F933F938F939F93AF93BF9380914E02AD
:1016600090914F02A0915002B091510230914D02E1
:1016700023E0230F2D3758F50196A11DB11D2093AE
:101680004D0280934E0290934F02A0935002B0936C
:1016900051028091520290915302A0915402B09154
:1016A00055020196A11DB11D8093520290935302E1
:1016B000A0935402B0935502BF91AF919F918F9127
:1016C0003F912F910F900FBE0F901F90189526E815
:1016D000230F0296A11DB11DD2CF1F920F920FB6FC
:1016E0000F9211242F933F934F935F936F937F93A8
:1016F0008F939F93AF93BF93EF93FF93E091080174
:10170000F09109010995FF91EF91BF91AF919F91E0
:101710008F917F916F915F914F913F912F910F909A
:101720000FBE0F901F9018951F920F920FB60F9239
:1017300011242F933F934F935F936F937F938F93D6
:101740009F93AF93BF93EF93FF93E0910601F091C6
:1017500007010995FF91EF91BF91AF919F918F91F3
:101760007F916F915F914F913F912F910F900FBE9D
:101770000F901F9018951F920F920FB60F92112481
:101780002F933F934F935F936F937F938F939F9389
:10179000AF93BF93EF93FF93E0910401F0910501A4
:1017A0000995FF91EF91BF91AF919F918F917F919B
:1017B0006F915F914F913F912F910F900FBE0F90BE
:1017C0001F9018951F920F920FB60F9211242F930E
:1017D0003F934F935F936F937F938F939F93AF93B9
:1017E000BF93EF93FF93E0910201F09103010995FC
:1017F000FF91EF91BF91AF919F918F917F916F91E9
:101800005F914F913F912F910F900FBE0F901F90BE
:1018100018951F920F920FB60F9211242F933F939A
:101820004F935F936F937F938F939F93AF93BF93E8
:10183000EF93FF93E0910001F09101010995FF9171
:10184000EF91BF91AF919F918F917F916F915F9138
:101850004F913F912F910F900FBE0F901F901895B1
:101860001F920F920FB60F9211242F933F934F9315
:101870005F936F937F938F939F93AF93BF93EF93F8
:10188000FF938091B900887F803609F44AC0F0F553
:10189000883209F4A7C018F5803109F49BC0B8F468
:1018A000882309F4F9C0883009F494C0FF91EF91BE
:1018B000BF91AF919F918F917F916F915F914F9168
:1018C0003F912F910F900FBE0F901F901895883168
:1018D00009F488C0803251F78093920214C080349A
:1018E00009F49DC040F48033B9F38833F9F680934E
:1018F000920285ECB0C0803509F485C0883509F4C2
:1019000096C0883499F60E944A08D0CF883909F4E5
:101910008CC038F5883729F050F4883611F08037BC
:1019200029F683E0809394021092410257C08838D0
:1019300009F47BC0803919F0803809F0B7CF809165
:101940004102803208F071C0E091410281E08E0FC7
:10195000809341028091BB00F0E0EF5DFD4F8083FA
:101960003DC0803B39F0E0F4803A09F479C0883A10
:1019700009F09CCF84E08093940210922002109290
:101980001F02E0914402F0914502099580911F02E7
:1019900081110FC081E080931F021092FF0109C0E6
:1019A000803C09F4A6CF883C09F4A3CF883B09F01A
:1019B0007DCFE091200281E08E0F80932002F0E045
:1019C000E150FE4F80818093BB0090912002809176
:1019D0001F0229C080916F028093BB0085EC809329
:1019E000BC0064CF9091910280919002981758F5B5
:1019F000E091910281E08E0F80939102F0E0E05936
:101A0000FD4F8081E9CFE091910281E08E0F8093BC
:101A100091028091BB00F0E0E059FD4F80839091EE
:101A20009102809190029817C8F285E8D8CFE09192
:101A3000910281E08E0F809391028091BB00F0E0D3
:101A4000E059FD4F80838091930281115CCF81E04A
:101A500080936E0284EA8093BC001092940226CF99
:101A600085EC8093BC0010929402809141028032F8
:101A700030F4E0914102F0E0EF5DFD4F10826091A3
:101A8000410270E0E0914202F091430281E292E073
:101A90000995109241020ACF1092920234CF10920F
:101AA000C1021092C00288EE93E0A0E0B0E0809303
:101AB000C2029093C302A093C402B093C50229E46A
:101AC00031E03093BF022093BE022FEF3FEF3093FF
:101AD000CB022093CA02109211031092100380933C
:101AE000120390931303A0931403B09315038BE593
:101AF00091E090930F0380930E03109223031092B2
:101B0000270310922603109228038DE691E090930C
:101B1000220380932103EDE3F3E010821482138209
:101B20001582369683E0E937F807B9F78EE191E040
:101B3000909384038093830387E191E090938603DD
:101B40008093850384E08093870387E080938803F4
:101B500082E291E090938203809381038AE090E097
:101B600090938A038093890384EF91E090938C0390
:101B700080938B0310928F0310928E0310927D033B
:101B800010927E0310927F031092800310928D03B7
:101B900086E180931A0310921B0381E080931C035B
:101BA00010921F0310921E03109220030895CF93EA
:101BB000DF93CDB7DEB7CC56D1090FB6F894DEBFB0
:101BC0000FBECDBF789484B5826084BD84B581603A
:101BD00084BD85B5826085BD85B5816085BD8091F8
:101BE0006E00816080936E00109281008091810070
:101BF0008260809381008091810081608093810068
:101C0000809180008160809380008091910082604B
:101C100080939100809191008160809391008091E8
:101C200090008160809390008091C10084608093D7
:101C3000C1008091C10082608093C1008091C10089
:101C400081608093C1008091C30081608093C30054
:101C50008091C00082608093C0008091C20081604A
:101C60008093C20080917A00846080937A00809192
:101C70007A00826080937A0080917A0081608093FC
:101C80007A0080917A00806880937A0010926B02CB
:101C900010925B0210925D028091D7008160809368
:101CA000D70080EA8093D80089B5806189BD89B565
:101CB000826089BD09B400FEFDCF61E070E080E084
:101CC00090E00E94BB038091D8008F7C806180935C
:101CD000D8008091E000807F8093E0008091E10057
:101CE0008E7E8093E1008DE08093E200559A209AE9
:101CF0005D98289860ED77E080E090E00E94BB035B
:101D000082E080931D0360E080911B030E945A03D0
:101D100060E080911C030E945A0360E080911A03E6
:101D20000E945A0380911B03882309F494C08130D8
:101D300009F493C0823009F492C0833009F491C051
:101D4000873039F484E041E050E067EE74E00E94AF
:101D5000EE0480911C03882309F485C0813009F4C6
:101D600084C0823009F483C0833009F482C0873094
:101D700039F484E042E050E061E378E00E94EE0450
:101D8000109247021092460210929B021092BD02DE
:101D90000E94660585EE94E090934502809344028C
:101DA00086EE94E0909343028093420262E085E0E5
:101DB0000E945A0362E084E00E945A0361E085E1D8
:101DC0000E945A0361E085E10E942C0388E198E2B9
:101DD0000FB6F894A895809360000FBE90936000B2
:101DE00066E0462E9E012F5F3F4F79012224239407
:101DF000312C77247394A89570928D030E947204FD
:101E000000917D0310917E0320917F033091800328
:101E1000AB01BC01401B510B620B730B809189031A
:101E200090918A03B0E0A0E084179507A607B70752
:101E300008F087C110E0809187031817E0F4E09163
:101E40008303F0918403E10FF11D62E080810E9421
:101E50005A031F5FF0CF82E076CF83E074CF81E03A
:101E600072CF80E070CF82E085CF83E083CF81E0C6
:101E700081CF80E07FCF612C80918803681608F0C5
:101E800063C0C62CD12CE0918503F0918603EC0D44
:101E9000FD1D61E080810E945A03E0918503F0916D
:101EA0008603EC0DFD1D60E080810E942C0381E023
:101EB00090E0A0E0B0E0062C04C0880F991FAA1F94
:101EC000BB1F0A94D2F74C015C01A094B094512C32
:101ED00080918703581608F5052D10E0E0918303E3
:101EE000F0918403E00FF11F80810E9403030C5FD7
:101EF0001F4F000F111FF801EF5DFC4F892B41F4BC
:101F00008081918188299929918380835394E0CF9E
:101F1000808191818A219B21F7CFE0918503F09107
:101F20008603EC0DFD1D61E080810E942C038091F1
:101F3000850390918603C80ED91E60E0F60180816A
:101F40000E945A03639498CF41E2C42E43E0D42EFA
:101F50008601F801878D90A1892B31F4148E2FEF23
:101F60003FEF368F258F11A20A5F1F4F4DE553E0DB
:101F70004017510771F7B12C80918703B81608F00C
:101F800052C0A12C8B2C912C880C991CC401875D0C
:101F90009C4F4C0120918803A21608F042C0F40126
:101FA000608171810A2C02C0769567950A94E2F7E8
:101FB000B29E900111242A0D311DE1E2F3E080E090
:101FC000458D568D2417350709F4ABC18F5F3696C2
:101FD0008A30B1F760FF23C0E1E2F3E090E080E0F7
:101FE000448D411117C0E0918103F0918203E20F0B
:101FF000F31F4081489EF001499EF00D1124EF5DD2
:10200000FC4F448F368F258F10A2178E61E00E94FF
:102010007E0405C0019636968A30910509F7A3948F
:10202000B9CFB394A9CFB12CF60181A18111B82EFB
:10203000F6E0CF0ED11C0C151D05B1F70E947204FD
:1020400060937D0370937E0380937F03909380035E
:10205000BB2009F476C080914203882309F471C043
:102060008091400390914103019709F06AC010915B
:102070003D03111169C08091200381111DC0809121
:102080001A030E940303019791F4809120038111A8
:1020900013C080911A030E940303019741F4109228
:1020A0006D0210926C02109248027092200380918F
:1020B0002003882309F465C080911A030E9403035A
:1020C0008C01892B09F05DC080912003882309F4DD
:1020D00051C010922003C7010E94310730921F03A4
:1020E00020921E0397FFACC0D12CC12C80916C02B2
:1020F00090916D0297FD019695958795C816D90622
:102100000CF093C0C6010E941507B82E80916C0296
:1021100090916D028C199D0901970E941507682FF7
:10212000C6010E94100880916C0290916D028C197A
:102130009D096B2D01970E9410082FEFC21AD20A39
:10214000D5CF10928D0397CF70929A0288E080933A
:10215000BC0210929B021092BD026BE48EE093E0F1
:102160000E94E306612F8EE093E00E94E3060E9446
:10217000A50581CF80911A030E940303019709F0FE
:10218000A8CF0E9472044B015C0160E085E10E94CF
:102190002C038091490290914A02A0914B02B09188
:1021A0004C02A5019401281B390B4A0B5B0BDA0189
:1021B000C901C297A105B10560F180910A01882388
:1021C00009F48BC085E00E940303892B11F184E0A0
:1021D0000E940303892BE9F410920A0180924902BC
:1021E00090924A02A0924B02B0924C0270929A02D4
:1021F00088E08093BC0210929B021092BD0242E0E4
:1022000050E063E771E08EE093E00E94B6060E9422
:10221000A50561E085E10E942C0340E050E0452BDC
:1022200009F4E9CD0E940000E4CDC7010E94310706
:1022300097FD16C042E050E050931F0340931E03E9
:10224000009709F49ECFF7012191A8014F5F5F4FDE
:102250006A012B3351F08A0184179507A9F791CFB2
:1022600010921F0310921E038CCFD701A40FB51F2D
:10227000481759070CF085CF2D91FA0131962D336F
:1022800051F5EE0DFF1D9F012E193F092817390743
:102290000CF077CF21912F33B1F7CE0CDF1C0095D6
:1022A000040F09F46ECF70929A0288E08093BC020A
:1022B00010929B021092BD0263E48EE093E00E94B4
:1022C000E306402F50E0B6018EE093E00E94B60690
:1022D0000E94A50556CFAF01CBCF85E00E94030336
:1022E000892B09F096CF84E00E940303892B09F41F
:1022F00090CF70920A018092490290924A02A09275
:102300004B02B0924C0270929A0288E08093BC0219
:1023100010929B021092BD0242E050E066E771E02D
:1023200072CF617074CE97FB072E16F4009407D01D
:1023300077FD09D00E94AD1107FC05D03EF49095C1
:1023400081959F4F0895709561957F4F0895EE0F89
:10235000FF1F0590F491E02D0994AA1BBB1B51E1CE
:1023600007C0AA1FBB1FA617B70710F0A61BB70B05
:10237000881F991F5A95A9F780959095BC01CD01AA
:062380000895F894FFCF60
:102386003E053E053E053E053E0501FFFFFFFF00FB
:10239600E10000000000000A0B0C0D1213140908DE
:1023A60007063132334142434434353645464748C1
:1023B600373839494A4B4C2A30234D4E4F5000C1CD
:1023C6008081000000000000007101ED039201878A
:1023D60001D8019601B40100000000E306B606121A
:1023E600078C06AF069C068D0600000000DA04DEA8
:0A23F60004E20448440048550000CA
:00000001FF
