:100000000C94FD000C94450A0C941E0A0C94F709FC
:100010000C94D0090C9425010C9425010C94A90989
:100020000C9425010C9425010C946C0A0C94DB0AA9
:100030000C9425010C9425010C9425010C942501A8
:100040000C9425010C9425010C9425010C94250198
:100050000C9425010C9425010C9425010C945F0946
:100060000C9425010C9425010C9425010C94250178
:100070000C9425010C9425010C9425010C94250168
:100080000C9425010C9425010C9425010C94250158
:100090000C940D0D0C9425010C9425010C94250154
:1000A0000C9425010C9425010C942501080B0002E9
:1000B0000202000009040000010202000005240001
:1000C0001001052401010104240206052406000193
:1000D0000705810310004009040100020A00000026
:1000E00007050202400000070583024000000403E8
:1000F000090412010002EF02014041234580000182
:100100000102030141726475696E6F204C4C43001B
:100110004D696C6C656E6E69756D20416C706861BF
:1001200000444F574E00555000207265706F727436
:1001300065643D00206932635F64726F70733D00D7
:100140006E6F007965730020686F6F6B3D00444FE0
:10015000574E0055500020626F6F745F7265706F6C
:10016000727465643D00626F6F745F686F6F6B3DA2
:100170000000000000240027002A002D00300000AD
:10018000000000250028002B002E00310000000098
:10019000002300260029002C002F0004040404047E
:1001A000030405020202020403020202020606061A
:1001B00006060604040202020404040802011040B8
:1001C00080401020408040800802040180402010C0
:1001D0000201108010204040200000000200090FA2
:1001E0000000030401000C000000000000000000FB
:1001F00000000000000000002C0E11241FBECFEFF5
:10020000DAE0DEBFCDBF11E0A0E0B1E0E6E8F7E262
:1002100002C005900D92AC37B107D9F723E0ACE7E7
:10022000B1E001C01D92AC39B207E1F710E0CDEFAB
:10023000D0E004C02197FE010E94B213CC3FD10749
:10024000C9F70E94B40E0C94C1130C940000FC0179
:100250008091C902882311F13FB7F89482E080931E
:10026000E9002091F200822F90E01816190614F48C
:1002700081E090E0882339F0289A44E64093C80250
:100280004091F1004083222339F02091F2002111A6
:1002900003C02BE62093E8003FBF08958FEF9FEF48
:1002A000089596E0899FD0011124A35DBC4F9096DC
:1002B0007C936E935F9791E091969C939197E091D8
:1002C0009A03F0919B0390919903992339F0309709
:1002D00051F0811108C0809149030994309719F0B9
:1002E0005C968C91FACF08952FB7F89483E08093B1
:1002F000E9009091E800892F807295FF04C09091E9
:10030000F20080E4891B2FBF08958091BE02811105
:100310000DC082E08093BA0284E08093BB02109209
:10032000BD021092BC0281E08093BE028AEB92E093
:10033000089581508F3008F047C0E82FF0E0ED5568
:10034000FE4F0C94B213C001C401B201B801BC014C
:10035000E401E401E401C701CD01D101D501DB01D4
:10036000E401DF01809180008F7780938000089501
:10037000809180008F7DF9CF80918000877FF5CFBD
:1003800084B58F7784BD089584B58F7DFBCF809130
:1003900090008F77809390000895809190008F7DDA
:1003A000F9CF80919000877FF5CF8091C0008F7743
:1003B0008093C00008958091C0008F7DF9CF809117
:1003C000C200877F8093C2000895CF93DF93282FC8
:1003D00030E0F901E752FE4F8491F901E654FE4FF7
:1003E000D491F901E556FE4FC491CC23A1F08111BF
:1003F0000E949901EC2FF0E0EE0FFF1FE357FE4F34
:10040000A591B491EC91ED2381E090E009F480E0B6
:10041000DF91CF91089580E090E0FACF1F93CF93C2
:10042000DF93282F30E0F901E752FE4F8491F90164
:10043000E654FE4FD491F901E556FE4FC491CC230A
:10044000A9F0162F81110E949901EC2FF0E0EE0F18
:10045000FF1FE158FE4FA591B4918FB7F894EC912E
:10046000111108C0D095DE23DC938FBFDF91CF91AF
:100470001F910895DE2BF8CFCF93DF9390E0FC011E
:10048000E654FE4F249185569E4FFC0184918823AB
:10049000C9F090E0880F991FFC01EF58FE4FA5911D
:1004A000B491FC01E158FE4FC591D49161110DC08A
:1004B0009FB7F8948C91209582238C938881282370
:1004C00028839FBFDF91CF910895623051F49FB789
:1004D000F8943C91822F809583238C93E8812E2B76
:1004E000EFCF8FB7F894EC912E2B2C938FBFEACFE0
:1004F0003FB7F8948091B6029091B702A091B802EC
:10050000B091B90226B5A89B05C02F3F19F00196FE
:10051000A11DB11D3FBFBA2FA92F982F8827BC015D
:10052000CD01620F711D811D911D42E0660F771F85
:10053000881F991F4A95D1F708958F929F92AF9285
:10054000BF92CF92DF92EF92FF924B015C010E942B
:1005500078026B017C010E9478026C197D098E097A
:100560009F09683E734081059105A8F321E0821A36
:100570009108A108B10888EEC80E83E0D81EE11CDE
:10058000F11C81149104A104B10429F7FF90EF90AC
:10059000DF90CF90BF90AF909F908F9008952FB72E
:1005A000F8946091B2027091B3028091B40290917C
:1005B000B5022FBF08950F931F93CF93DF93C82FDA
:1005C000D62F86E0C89FF0011124E35DFC4F11A2F5
:1005D000878D90A181309105F1F058F0823091051E
:1005E000F1F1039709F440C0DF91CF911F910F9172
:1005F00008956623C9F361E070E08C2F0E945101D9
:100600000E94CF02609385037093860380938703D3
:1006100090938803E9CF0E94CF0200918503109147
:1006200086032091870330918803AB01BC01401BF6
:10063000510B620B730B8091970390919803B0E07C
:10064000A0E084179507A607B70748F462E070E0BA
:100650008C2FDF91CF911F910F910C94510163E08A
:1006600070E0D111C1CFF4CF70E060E0F1CF862F00
:10067000642F0C943C02862F642F0C940E02862F5C
:100680000C94E501089508958091AC0291E08927CA
:100690008093AC020895E82FF0E0EE0FFF1FE45FB7
:1006A000FE4F718360838230F9F028F4882341F093
:1006B000813071F00895833021F1843079F108950B
:1006C000809169008C7F482B40936900E89A0895D7
:1006D00080916900837F440F551F440F551F482B9D
:1006E00040936900E99A0895809169008F7C34E015
:1006F000440F551F3A95E1F7482B40936900EA9A59
:100700000895809169008F7326E0440F551F2A9544
:10071000E1F7482B40936900EB9A089580916A00B5
:100720008F7C94E0440F551F9A95E1F7482B409336
:100730006A00EE9A089508954091940250919502AE
:10074000209192023091930242175307B4F4909192
:10075000E8009570E1F39091E80092FD19C0809354
:10076000F100809194029091950201968F739927E0
:10077000892B19F48EEF8093E80080919402909178
:1007800095020196909395028093940281E00895DA
:1007900080E00895EF92FF920F931F93CF93DF9322
:1007A000F82E192FE62E042F81E0860F880F0E9465
:1007B0009C0383E00E949C03CF2DD12FEC0EFD2ED5
:1007C000F11CCE15DF05B9F007FF13C0FE018491BF
:1007D0000E949C03182F80E00E949C038123219695
:1007E0008111EFCFDF91CF911F910F91FF90EF908B
:1007F00008958881EDCF81E0F5CFDF92EF92FF92EF
:100800000F931F93CF93DF93D82E8A01EB017B01C7
:10081000E40EF51ECE15DF0559F0D7FE12C0FE011D
:1008200084910E949C0321968111F4CF0FEF1FEF5A
:10083000C801DF91CF911F910F91FF90EF90DF9052
:1008400008958881EECF0F931F93CF93DF931F926C
:10085000CDB7DEB782E0898342E450E06CEA70E015
:1008600080E80E94FD030E948501DC0112960D9133
:100870001C910115110589F0D801ED91FC910280C0
:10088000F381E02DBE016F5F7F4FC801099597FD91
:1008900004C0F80100851185ECCF89810F90DF91AC
:1008A000CF911F910F910895615030F02091F10088
:1008B000FC0120830196F8CF289A84E68093C80231
:1008C00008958F929F92AF92BF92CF92DF92EF9254
:1008D000FF920F931F93CF93DF936C017B018A01EB
:1008E00080910B01882309F45CC08091C9028823A0
:1008F00009F457C08091980280FF05C08091E00004
:1009000082608093E000E801B12C8AEFA82E93E08A
:10091000892E2AE3922E209711F4BB20D9F10E9450
:10092000740181110AC0AA94AA20D9F161E070E093
:1009300080E090E00E949D02EECF8C171D0611F022
:100940000CF08C2F9FB7F8948092E9002091E8007A
:1009500025FD02C09FBFDFCF282F30E0C21BD30B85
:10096000F701815020F041914093F100FACFE20E5F
:10097000F31EBB2021F09092E800B12CEBCF8091C8
:10098000E80085FDE7CF9092E800BB24B394209760
:1009900009F3F3CF5D9A84E680939702101611064F
:1009A0003CF081E090E0F6019383828310E000E068
:1009B000C801DF91CF911F910F91FF90EF90DF90D1
:1009C000CF90BF90AF909F908F900895CF93DF937B
:1009D0001F92CDB7DEB76983DC01ED91FC910280F7
:1009E000F381E02D41E050E0BE016F5F7F4F09953C
:1009F0000F90DF91CF9108950F931F93CF93DF93C3
:100A00008C01D0E0C0E0F801EC0FFD1F649166237B
:100A100041F08AEC92E00E94E604892B11F02196C5
:100A2000F2CFCE01DF91CF911F910F91089583E016
:100A30008093E9008091F200882319F08AE3809383
:100A4000E80008950E94740190E00895CF93DF9329
:100A50001F92CDB7DEB7FC018485958597FD08C050
:100A60002FEF3FEF358724870F90DF91CF910895C7
:100A7000CE0101960E942701019719F4898190E027
:100A8000F3CF8FEF9FEFF0CF0F931F93CF93DF93B1
:100A90001F92CDB7DEB78C01FC018485958597FF49
:100AA0000BC0CE0101960E942701019771F4898144
:100AB00090E0F80195878487F801848595850F90EB
:100AC000DF91CF911F910F9108958FEF9FEFF1CF9D
:100AD000FC018485958597FD0BC09FB7F89482E053
:100AE0008093E9008091F2009FBF90E00196089505
:100AF0009FB7F89482E08093E9008091F2009FBF55
:100B000090E0089520914802260F3327331F2132A9
:100B10003105ECF420916C02FC0190E080E024307F
:100B200069F082E00895A09148022191AC01485DEE
:100B30005D4FA40FB52FB11D2C930196861798F326
:100B400080914802680F6093480280E0089581E038
:100B5000089510926C0281E080936E0210926D02F3
:100B600061E082E00E940E0261E083E00E940E02DA
:100B7000E9EBF0E080818E7F808380818D7F8083B0
:100B800088E48093B80085E48093BC000895CF93F7
:100B9000DF9391E0909327028823B9F0C091B800C9
:100BA000D091BA008091BC008A7B8093BC0060E049
:100BB00082E00E940E0260E083E00E940E020E942A
:100BC000A905D093BA00C093B800DF91CF910895E2
:100BD0000895E091A1028091A002E81730F4F0E0BE
:100BE000EE5FFD4F808190E008958FEF9FEF0895B5
:100BF0009091A1028091A0022FEF3FEF981748F447
:100C0000E92FF0E0EE5FFD4F208130E09F5F909391
:100C1000A102C90108958091A0029091A102891BAF
:100C2000990B0895CF92DF92EF92FF920F931F934B
:100C3000CF93DF937C01CB018A0120910102222313
:100C400089F0EB016B01C40ED51ECC15DD0569F0F2
:100C50006991D701ED91FC910190F081E02DC701E0
:100C60000995F3CF642F0E948205C801DF91CF91CF
:100C70001F910F91FF90EF90DF90CF900895CF9349
:100C8000DF931F92CDB7DEB7698320910102222343
:100C9000F9F020919E02203258F021E030E0FC0172
:100CA0003383228390E080E00F90DF91CF9108950D
:100CB00080919F02E82FF0E0EF51FE4F99819083E1
:100CC0008F5F80939F0280939E0281E090E0ECCF43
:100CD00061E0CE0101960E948205F7CF90E080E0AE
:100CE00008959C0197FF02C0295F3F4F43E035956F
:100CF00027954A95E1F7F901E358FE4F208130E04E
:100D000068E070E00E947C13A90102C055954795E8
:100D10008A95E2F7CA01817008954F925F926F92AF
:100D20007F928F929F92AF92BF92CF92DF92EF927B
:100D3000FF920F931F93CF93DF937C018091290340
:100D400097E0692E05E4813019F085E0682E0BE00C
:100D5000D0E0C0E010E0A62CB12C650121E0C21A61
:100D6000D1088091C6029091C702C817D9070CF02C
:100D70009CC0CE010E9471060C2C01C0880F0A9401
:100D8000EAF71695182B011354C0CC19DD09D7FDCD
:100D90008CC081E090E00C2C01C0880F0A94EAF727
:100DA000782E709410E000E0912C812CCE01880DFB
:100DB000991D2091C6023091C70282179307ECF566
:100DC0000E9471060C2C01C0880F0A94EAF7169550
:100DD000182B8FEF881A980AC401B5010E947C1362
:100DE000892B21F70C3608F060C0112331F190E017
:100DF00080E020E0612F70E0AB01082E02C0559525
:100E000047950A94E2F74170240F019688309105C6
:100E100099F720FF4AC0172180912903813059F0AA
:100E200080E3F701E00FF11D180F10830F5F10E052
:100E3000BDCF219696CF80E2F4CF802F90E0E80ED0
:100E4000F91EF7011082F2E0EF1AF108F701208194
:100E50002F3359F5502E492E069D300111248091D3
:100E6000290305E0813009F407E0F12CE12C10E0C2
:100E70005801F1E0AF1AB108EA14FB04D4F4670199
:100E8000912C812CC614D70454F4C6018C0F9D1FDD
:100E90000E947106880E911CC00ED11EF3CF80FCFB
:100EA00004C02FEFE21AF20AE7CF55245A944424E3
:100EB0004A94852D942DDF91CF911F910F91FF9032
:100EC000EF90DF90CF90BF90AF909F908F907F90EA
:100ED0006F905F904F900895462FFC0197FD3796D5
:100EE00023E0F595E7952A95E1F768E070E00E9428
:100EF0007C1321E030E0B90102C0660F771F8A95AC
:100F0000E2F7CB01E358FE4F9081442319F0892B7F
:100F10008083089580958923FBCF8091C6029091AC
:100F2000C702803293408CF46091AC028091C6027B
:100F30009091C7020E946C078091C6029091C702EF
:100F400001969093C7028093C60208953F924F92F4
:100F50005F926F927F928F929F92AF92BF92CF9249
:100F6000DF92EF92FF920F931F93CF93DF937C0159
:100F7000C8E0D1E088E0982E062F10E092E0A92E7C
:100F8000DD24DA9425EEC22E35ECB32ED093010287
:100F900090927C0110929F0210929E02A801B701CC
:100FA0008AE193E00E94120630909E0280E283154F
:100FB00008F4E6C080907C010E9478022B013C017D
:100FC00080916C02811167C0A0926C02D0936E0276
:100FD000D0926B021092900230928F02A1EEB1E09B
:100FE000EFE6F2E03812A3C01092910280919102D4
:100FF000880C882A8092910280916D02813009F0DC
:101000009AC010926D020E9478022B013C018091DF
:1010100091028093BB008091230290912402A091C1
:101020002502B0912602892B8A2B8B2BA1F00E94DE
:1010300078022091230230912402409125025091A0
:101040002602641975098609970926173707480784
:10105000590708F441C08091BC0083FDD8CFB092FD
:10106000BC000E9478022B013C0180916C0282300E
:1010700009F464C080916B028F3F09F483C08091B2
:101080006B02803209F480C080916B02803309F4D6
:101090007DC084E026C08091230290912402A0911B
:1010A0002502B0912602892B8A2B8B2B09F488CF3D
:1010B0000E9478022091230230912402409125025F
:1010C0005091260264197509860997092617370772
:1010D0004807590708F074CF809122020E94C70583
:1010E00085E010929F0210929E02109201028823C6
:1010F00009F44EC0A89569E170E080E090E00E949C
:101100009D02C15009F042CF80E0DF91CF911F9145
:101110000F91FF90EF90DF90CF90BF90AF909F9096
:101120008F907F906F905F904F903F9008959D912A
:1011300091938F5F57CFC092BC0093CF80912302D1
:1011400090912402A0912502B0912602892B8A2B2E
:101150008B2B09F48ACF0E947802209123023091D0
:1011600024024091250250912602641975098609CE
:101170009709261737074807590708F076CFACCFED
:1011800081E0AFCF80E0ADCF82E0ABCF83E0A9CFED
:1011900081E0BBCF0E94A60781110AC02091AA025C
:1011A0003091AB022F5F3F4F3093AB022093AA02E6
:1011B00008958F929F92AF92BF920F931F93CF93F8
:1011C000DF93CDB7DEB7A1970FB6F894DEBF0FBEA1
:1011D000CDBF19A2423008F44AE08E010F5D1F4FC7
:1011E000842E912CB12CA12CA50194010E94901366
:1011F000E62FB901CA01EA3044F5E05DD801EE936B
:101200008D01232B242B252B79F790E080E010977C
:1012100069F0FD0101900020E9F73197AF014A1B09
:101220005B0BBD018AEC92E00E946104A1960FB6AF
:10123000F894DEBF0FBECDBFDF91CF911F910F910C
:10124000BF90AF909F908F900895E95CD7CF85EDC8
:101250008093BC008091230290912402A0912502EA
:10126000B09126020796A11DB11D23E0B695A79562
:10127000979587952A95D1F72091BC0024FD03C04E
:1012800010926C02089540912302509124026091C3
:10129000250270912602452B462B472B69F30097B8
:1012A000A105B10541F02AE22A95F1F700C00197A6
:1012B000A109B109E1CF809122020C94C7051F92C8
:1012C0000F920FB60F9211242F933F938F939F93FA
:1012D000AF93BF938091B2029091B302A091B402F8
:1012E000B091B5023091B10223E0230F2D3758F5AC
:1012F0000196A11DB11D2093B1028093B20290937B
:10130000B302A093B402B093B5028091B60290915B
:10131000B702A091B802B091B9020196A11DB11D0A
:101320008093B6029093B702A093B802B093B9022B
:10133000BF91AF919F918F913F912F910F900FBED1
:101340000F901F90189526E8230F0296A11DB11D3E
:10135000D2CF1F920F920FB60F9211242F933F936B
:101360004F935F936F937F938F939F93AF93BF93AD
:10137000EF93FF93E0911401F09115010995FF910E
:10138000EF91BF91AF919F918F917F916F915F91FD
:101390004F913F912F910F900FBE0F901F90189576
:1013A0001F920F920FB60F9211242F933F934F93DA
:1013B0005F936F937F938F939F93AF93BF93EF93BD
:1013C000FF93E0911201F09113010995FF91EF91C4
:1013D000BF91AF919F918F917F916F915F914F914D
:1013E0003F912F910F900FBE0F901F9018951F9255
:1013F0000F920FB60F9211242F933F934F935F9349
:101400006F937F938F939F93AF93BF93EF93FF93CC
:10141000E0911001F09111010995FF91EF91BF91B9
:10142000AF919F918F917F916F915F914F913F917C
:101430002F910F900FBE0F901F9018951F920F9233
:101440000FB60F9211242F933F934F935F936F9397
:101450007F938F939F93AF93BF93EF93FF93E0910D
:101460000E01F0910F010995FF91EF91BF91AF919E
:101470009F918F917F916F915F914F913F912F91AC
:101480000F900FBE0F901F9018951F920F920FB6DE
:101490000F9211242F933F934F935F936F937F93FA
:1014A0008F939F93AF93BF93EF93FF93E0910C01C2
:1014B000F0910D010995FF91EF91BF91AF919F912F
:1014C0008F917F916F915F914F913F912F910F90ED
:1014D0000FBE0F901F9018951F920F920FB60F928C
:1014E00011248F939F938091E1009091E100937F6D
:1014F0009093E10083FF0FC01092E90091E0909378
:10150000EB001092EC0092E39093ED001092C90270
:1015100098E09093F00082FF22C093E09093E9005E
:101520009091F200992319F09AE39093E80090913A
:101530009702992341F090919702915090939702CE
:10154000911101C05D989091C802992341F090914A
:10155000C80291509093C802911101C0289884FF4D
:1015600018C08091E2008E7E81608093E2008091BD
:10157000E1008F7E8093E100809198028E7E8061F1
:10158000809398029F918F910F900FBE0F901F90A4
:10159000189580FFF7CF8091E2008E7E8061809366
:1015A000E2008091E1008E7E8093E10080919802BC
:1015B0008E7E8160E5CF1F920F920FB60F9211249D
:1015C000CF92DF92EF92FF920F931F932F933F934F
:1015D0004F935F936F937F938F939F93AF93BF933B
:1015E000EF93FF93CF93DF93CDB7DEB76C97DEBF5A
:1015F000CDBF1092E9008091E80083FF25C068E02C
:10160000CE0145960E94540482EF8093E8008D89B4
:1016100087FF39C09091E80090FFFCCF982F90761B
:1016200009F034C19E894F89588D2F89F88C91110A
:1016300031C0803861F5809199028093F100109259
:10164000F1008EEF8093E8006C960FB6F894DEBF41
:101650000FBECDBFDF91CF91FF91EF91BF91AF91C1
:101660009F918F917F916F915F914F913F912F91BA
:101670001F910F91FF90EF90DF90CF900F900FBED2
:101680000F901F9018959EEF9093E800C7CF10928F
:10169000F100D5CF913059F48111D3CF41305105AC
:1016A00081F6809199028D7F80939902CACF933001
:1016B00049F48111C6CF4130510519F68091990244
:1016C0008260F2CF953041F48091E80080FFFCCF3A
:1016D00020682093E300B5CF963009F0A9C00B8DA8
:1016E0001C8D22E01092E900109295021092940253
:1016F000F2122EC010929302109292020E942304C2
:101700001F8299E09983FA8291E09E8390EA9887FC
:101710009AEF99872091940230919502275F3F4F6D
:101720003C832B838D831092E900109295021092D6
:101730009402109393020093920249E050E0BE019C
:101740006F5F7F4F80E00E94FD030E94230479CFEA
:1017500010939302009392020E948501DC0112967D
:101760000D911C910115110509F451C1D801ED919C
:10177000FC910480F581E02DBE016B5E7F4FC801B6
:101780000995009709F03EC1F80100851185EACF5F
:10179000F3E0FF120EC08F89882309F440C0823025
:1017A00061F440E860E180E191E00E94CA038111A8
:1017B00048CF81E28093EB0047CF813029F440E8A5
:1017C0006BE084E091E0F1CF833099F70E948501CE
:1017D000DC011296ED90FC908E010F5F1F4F6801A7
:1017E000E114F10479F0D701ED91FC910680F781C5
:1017F000E02DB801C7010995080F111DF701E0841C
:10180000F184EECFD8011C92F60101900020E9F797
:101810003197BF016C197D0940E0C601C6CF6EEE5D
:1018200070E0FB01449150E080E80E94FD0309CF85
:10183000973009F4BECF983021F481E08093F10015
:1018400000CF993009F0FDCE837009F0B2CFEFE3FD
:10185000F1E081E031E096E32191222371F0809361
:10186000E9003093EB00DF0111972C912093EC00FD
:101870009093ED008F5F873079F78EE78093EA00D1
:101880001092EA008F898093C902DBCE8B8D9C8DEC
:101890001092E90010929502109294029093930294
:1018A00080939202898D811192C08E899D89913A8F
:1018B00049F4813209F07DCF47E050E064E071E007
:1018C00080E0B3CF913209F074CF833269F48F890D
:1018D000988DB0E0A0E08093000190930101A09367
:1018E0000201B0930301ADCE803269F48091E8002B
:1018F00082FFFCCF67E084E091E00E9454048BEF0C
:101900008093E8009ECE823209F09BCE8F8980932F
:101910000B01EEEFFFE7859194918B3F9C4D51F1C8
:10192000E0E0F8E08091040190910501A0910601AA
:10193000B0910701803B9440A105B105F1F480917D
:101940000B0180FD1AC0EE3F8AE0F80789F587E7B2
:1019500097E791838083809160008093960288E16D
:101960009BE00FB6F894A895809360000FBE90930B
:10197000600067CEEEEFFAE0D5CF808191818737A6
:10198000974709F05ECEA8958091600088618093AA
:1019900060008091960280936000EE3F2AE0F2079B
:1019A00089F08091FE0A9091FF0A9183808349CE4D
:1019B000808191818737980751F29093FF0A809335
:1019C000FE0AC5CF1092FF0A1092FE0A3ACE0E947C
:1019D0008501DC0112960D911C910115110509F488
:1019E000E8CED801ED91FC910190F081E02DBE018F
:1019F0006B5E7F4FC8010995811123CEF8010085E8
:101A00001185EBCF181619060CF41BCED2CEF1E0DF
:101A1000FF12BECE62EF70E004CF1F920F920FB69E
:101A20000F9211242F933F934F935F936F937F9364
:101A30008F939F93AF93BF93EF93FF938091B900E0
:101A4000887F803609F44AC0F0F5883209F4A7C0CF
:101A500018F5803109F49BC0B8F4882309F4F9C063
:101A6000883009F494C0FF91EF91BF91AF919F919D
:101A70008F917F916F915F914F913F912F910F9037
:101A80000FBE0F901F901895883109F488C08032DE
:101A900051F780936B0214C0803409F49DC040F468
:101AA0008033B9F38833F9F680936B0285ECB0C0CC
:101AB000803509F485C0883509F496C0883499F6D4
:101AC0000E942709D0CF883909F48CC038F58837AF
:101AD00029F050F4883611F0803729F683E080939E
:101AE0006C0210926A0257C0883809F47BC08039B2
:101AF00019F0803809F0B7CF80916A02803208F07F
:101B000071C0E0916A0281E08E0F80936A02809139
:101B1000BB00F0E0E65BFD4F80833DC0803B39F0C9
:101B2000E0F4803A09F479C0883A09F09CCF84E067
:101B300080936C021092490210924802E0919C023C
:101B4000F0919D0209958091480281110FC081E0BA
:101B5000809348021092280209C0803C09F4A6CF65
:101B6000883C09F4A3CF883B09F07DCFE09149027E
:101B700081E08E0F80934902F0E0E85DFD4F8081A7
:101B80008093BB00909149028091480229C08091C6
:101B900091028093BB0085EC8093BC0064CF909150
:101BA000900280918F02981758F5E091900281E0A1
:101BB0008E0F80939002F0E0E159FD4F8081E9CFD4
:101BC000E091900281E08E0F809390028091BB00A3
:101BD000F0E0E159FD4F80839091900280918F0257
:101BE0009817C8F285E8D8CFE091900281E08E0F77
:101BF000809390028091BB00F0E0E159FD4F80831B
:101C000080916E0281115CCF81E080936D0284EA45
:101C10008093BC0010926C0226CF85EC8093BC00B0
:101C200010926C0280916A02803230F4E0916A0274
:101C3000F0E0E65BFD4F108260916A0270E0E09197
:101C40009A02F0919B028AE492E0099510926A024E
:101C50000ACF10926B0234CF1092CD021092CC02B8
:101C600088EE93E0A0E0B0E08093CE029093CF02A4
:101C7000A093D002B093D10229E431E03093CB029B
:101C80002093CA022FEF3FEF3093D7022093D60262
:101C900010921D0310921C0380931E0390931F0348
:101CA000A0932003B09321038BE591E090931B0355
:101CB00080931A0310922F03109233031092320371
:101CC000109234038DE691E090932E0380932D03C0
:101CD000E9E4F3E01082148213821582369683E0E1
:101CE000E538F807B9F78EE191E09093900380937F
:101CF0008F0387E191E0909392038093910384E0B6
:101D00008093930387E08093940382E291E0909321
:101D10008E0380938D038AE090E0909396038093E6
:101D2000950384EF91E0909398038093970310922A
:101D30009B0310929A031092890310928A031092C7
:101D40008B0310928C031092990386E180932603F3
:101D50001092270381E08093280310922B031092A6
:101D60002A0310922C030895CF93DF93CDB7DEB7EB
:101D7000CE58D1090FB6F894DEBF0FBECDBF789410
:101D800084B5826084BD84B5816084BD85B5826080
:101D900085BD85B5816085BD80916E008160809331
:101DA0006E0010928100809181008260809381009A
:101DB00080918100816080938100809180008160AA
:101DC0008093800080919100826080939100809147
:101DD0009100816080939100809190008160809358
:101DE00090008091C10084608093C1008091C10007
:101DF00082608093C1008091C10081608093C100A6
:101E00008091C30081608093C3008091C000826094
:101E10008093C0008091C20081608093C200809155
:101E20007A00846080937A0080917A008260809347
:101E30007A0080917A00816080937A0080917A00A4
:101E4000806880937A001092C902109299021092D1
:101E500098028091D70081608093D70080EA8093B8
:101E6000D80089B5806189BD89B5826089BD09B412
:101E700000FEFDCF61E070E080E090E00E949D02F6
:101E80008091D8008F7C80618093D8008091E000A1
:101E9000807F8093E0008091E1008E7E8093E1005E
:101EA0008DE08093E200559A209A5D98289860ED25
:101EB00077E080E090E00E949D028FEF9FEF90938B
:101EC000D7028093D60282E08093290360E080915C
:101ED00027030E943C0260E0809128030E943C029C
:101EE00060E0809126030E943C02809127038823B2
:101EF00009F4BDC0813009F4BCC0823009F4BBC014
:101F0000833009F4BAC0873039F484E041E050E00E
:101F100064E473E00E944B0380912803882309F452
:101F2000AEC0813009F4ADC0823009F4ACC083305A
:101F300009F4ABC0873039F484E042E050E06DE84A
:101F400077E00E944B031092A1021092A00210921F
:101F50009F0210929E020E94A90582E493E0909352
:101F60009D0280939C0283E493E090939B02809374
:101F70009A0262E085E00E943C0262E084E00E94F6
:101F80003C0261E085E10E943C0261E085E10E9443
:101F90000E0260E085E10E940E0283EC90E0019762
:101FA000F1F785E00E94E501892B31F484E00E947D
:101FB000E50111E0892B09F410E061E085E10E9460
:101FC0000E02109316011093A3021092A2020E9417
:101FD000CF026093AD027093AE028093AF029093F4
:101FE000B00273E7E72E71E0F72E111104C066E727
:101FF000E62E61E0F62E13E062E0C7010E94CA08F7
:10200000882309F444C081E08093A20288E198E229
:102010000FB6F894A895809360000FBE909360006F
:102020009E012F5F3F4F7901812C912C54018394A5
:102030004DE650E04C0F5D1F4F5F5F4FC357DF4FC2
:1020400059834883CD58D040A8958AEC92E00E94ED
:102050006805892B09F46EC08AEC92E00E9468053D
:10206000892BF9F08AEC92E00E942605F5CF82E0F8
:102070004DCF83E04BCF81E049CF80E047CF82E076
:102080005CCF83E05ACF81E058CF80E056CF64E642
:1020900070E080E090E00E949D02115009F0ACCF0A
:1020A000B5CF86E691E00E94FC048091A3028823CC
:1020B00009F4C8C083E591E00E94FC0486E591E044
:1020C0000E94FC048091A202882309F4BEC083E42C
:1020D00091E00E94FC0487E491E00E94FC0480915E
:1020E0001601882309F4B4C086E291E00E94FC0442
:1020F00084E391E00E94FC046091AA027091AB021B
:1021000090E080E04AE00E94D90889E291E00E94D4
:10211000FC046091A8027091A90290E080E04AE07E
:102120000E94D90842E050E069E771E08AEC92E051
:102130000E9461040E94CF022B013C012091AA025F
:102140003091AB028091A4029091A502A091A602C9
:10215000B091A7020097A105B10571F0B301A201EA
:10216000481B590B6A0B7B0BDB01CA018033954777
:10217000A105B10508F4A1C2283E63E0360710F0BE
:1021800027EE33E088E5898381E48A83C90164E628
:1021900070E00E946813605D6B83EAE0F0E0C901C3
:1021A000BF010E946813282FCB01BF010E94681352
:1021B000805D8C83205D2D8365E0C7010E94A607AA
:1021C000882381F08091AA029091AB029093A9029A
:1021D0008093A8024092A4025092A5026092A602A7
:1021E0007092A70281E0809399030E94CF02009130
:1021F000890310918A0320918B0330918C03AB01EA
:10220000BC01401B510B620B730B809195039091A5
:102210009603B0E0A0E084179507A607B70708F07B
:1022200080C110E0809193031817A8F4E0918F0308
:10223000F0919003E10FF11D62E080810E943C0269
:102240001F5FF0CF8EE491E037CF80E491E041CF83
:1022500081E291E04BCF312C80919403381608F045
:1022600061C0C32CD12CE0919103F0919203EC0D4D
:10227000FD1D61E080810E943C02E0919103F0919C
:102280009203EC0DFD1D60E080810E940E02D501DD
:10229000C401032C04C0880F991FAA1FBB1F0A94F6
:1022A000D2F72C013C0160947094212C809193030F
:1022B000281608F5022D10E0E0918F03F0919003AD
:1022C000E00FF11F80810E94E5010C5F1F4F000F9E
:1022D000111FF801E35DFC4F892B41F4808191814E
:1022E00084299529918380832394E0CF80819181F3
:1022F00086219721F7CFE0919103F0919203EC0DA5
:10230000FD1D61E080810E940E02809191039091F9
:102310009203C80ED91E60E0F60180810E943C0243
:1023200033949ACF0DE213E06801F601878D90A1F6
:10233000892B31F4148E2FEF3FEF368F258F11A2AA
:1023400036E0C30ED11C49E6C41643E0D40669F753
:10235000712C80919303781608F053C0612C472CA0
:10236000512C440C551CB2016B5C7C4F2B0120910D
:102370009403621608F043C0F20160817181062C5B
:1023800002C0769567950A94E2F7729E9001112437
:10239000260D311DEDE2F3E080E0458D568D2417CA
:1023A000350709F493C18F5F36968A30B1F760FF25
:1023B00024C0EDE2F3E090E080E0448D411118C0CC
:1023C000E0918D03F0918E03E20FF31F408156E000
:1023D000589FF001599FF00D1124E35DFC4F448F8D
:1023E000368F258F10A2178E61E00E94DB0205C098
:1023F000019636968A30910501F76394B8CF7394AD
:10240000A8CF712CF80181A18111782E0A5F1F4F8E
:10241000C016D106B9F70E94CF026093890370936A
:102420008A0380938B0390938C03772009F479C0FF
:1024300080914E03882309F474C080914C039091DD
:102440004D03019709F06DC08091490381116CC063
:1024500080912C0381111EC0809126030E94E5010A
:10246000019799F480912C03811114C08091260367
:102470000E94E501019749F41092C7021092C6022A
:102480001092AC0281E080932C0380912C0388236E
:1024900009F459C0809126030E94E5018C01892B23
:1024A00009F051C080912C03882309F445C0109293
:1024B0002C03C7010E948D0621E030E030932B03EE
:1024C00020932A0397FF90C0D12CC12C8091C60283
:1024D0009091C70297FD019695958795C816D906E4
:1024E0000CF077C0C6010E947106782E8091C6025A
:1024F0009091C7028C199D0901970E947106682F5F
:10250000C6010E946C078091C6029091C7028C1987
:102510009D09672D01970E946C07FFEFCF1ADF0A14
:10252000D5CF1092990394CF9BE499838A8362E07C
:10253000C7010E94CA088CCF809126030E94E50142
:10254000019709F0B4CF0E94CF022B013C0160E05B
:1025500085E10E940E028091AD029091AE02A091A1
:10256000AF02B091B002A3019201281B390B4A0BB4
:102570005B0BDA01C901C297A105B105F0F08091AA
:102580001601882309F47EC085E00E94E501892BAD
:10259000A1F084E00E94E501892B79F410921601E4
:1025A0004092AD025092AE026092AF027092B002C1
:1025B00062E086E791E00E94CA0861E085E10E943E
:1025C0000E0280E090E0892B09F43ECD0E940000CD
:1025D0003BCDC7010E948D0697FD16C022E030E07A
:1025E00030932B0320932A03009709F4ACCFF70113
:1025F000419198012F5F3F4FB9014B3351F0890151
:1026000082179307A9F79FCF10922B0310922A03EA
:102610009ACFD701A20FB31F281739070CF093CF19
:102620004D91F90131964D3359F5EE0DFF1DAF0176
:102630004E195F09481759070CF085CF41914F3368
:10264000B1F76E0D7F1D0095020F09F47CCF0032AB
:1026500008F00FE183E4AE968FAFAE97402F50E0C5
:10266000C357DF4F88819981CD58D0400E94B8135D
:1026700061E0600FCE0183599F4F0E94CA0863CF6B
:102680009F01CACF85E00E94E501892B09F095CF13
:1026900084E00E94E501892B09F48FCF81E08093CB
:1026A00016014092AD025092AE026092AF0270925B
:1026B000B00262E083E791E07ECF8091A802909122
:1026C000A9022817390709F48DCD56CD61708DCE3A
:1026D000AA1BBB1B51E107C0AA1FBB1FA617B70748
:1026E00010F0A61BB70B881F991F5A95A9F7809564
:1026F0009095BC01CD01089597FB072E16F4009428
:1027000007D077FD09D00E94681307FC05D03EF47E
:10271000909581959F4F0895709561957F4F08958D
:10272000A1E21A2EAA1BBB1BFD010DC0AA1FBB1FD5
:10273000EE1FFF1FA217B307E407F50720F0A21B47
:10274000B30BE40BF50B661F771F881F991F1A94B4
:1027500069F760957095809590959B01AC01BD01DE
:10276000CF010895EE0FFF1F0590F491E02D09941D
:10277000FB01DC0102C001900D9241505040D8F79E
:062780000895F894FFCF5C
:10278600FFFFFFFF00E10000000000009B039B032A
:102796009B039B039B03010A0B0C0D1213140908E0
:1027A60007063132334142434434353645464748BD
:1027B600373839494A4B4C2A30234D4E4F5000C1C9
:1027C600808100000000000000E604610422051775
:1027D60005680526054405000000003F0612066E42
:1027E60006E8050B06F805E9050000000037033B7F
:0C27F600033F034855004844000D0A0052
:00000001FF
