:100000000C942C010C94D60A0C94AF0A0C94880A18
:100010000C94610A0C9454010C9454010C943A0A07
:100020000C9454010C9454010C94FD0A0C946C0B28
:100030000C9454010C9454010C9454010C945401EC
:100040000C9454010C9454010C9454010C945401DC
:100050000C9454010C9454010C9454010C94F00928
:100060000C9454010C9454010C9454010C945401BC
:100070000C9454010C9454010C9454010C945401AC
:100080000C9454010C9454010C9454010C9454019C
:100090000C949E0D0C9454010C9454010C94540136
:1000A0000C9454010C9454010C945401080B00025C
:1000B0000202000009040000010202000005240001
:1000C0001001052401010104240206052406000193
:1000D0000705810310004009040100020A00000026
:1000E00007050202400000070583024000000403E8
:1000F000090412010002EF02014041234580000182
:100100000102030141726475696E6F204C4C43001B
:100110004D696C6C656E6E69756D20416C706861BF
:1001200000444F574E005550002072657365745F50
:1001300063617573653D00207265706F72746564EC
:100140003D00206932635F64726F70733D006E6FB3
:10015000007965730020686F6F6B3D00444F574E08
:100160000055500020626F6F745F7265706F72741B
:1001700065643D00626F6F745F686F6F6B3D004D2B
:10018000494C4C454E4E49554D20726F6C653D6B48
:1001900065797061642076657273696F6E3D302E8B
:1001A000342E302070726F746F636F6C3D3220623A
:1001B00075696C643D613031343562316530663269
:1001C000342073656C66746573743D6F6B0000005A
:1001D0000000240027002A002D003000000000004D
:1001E000250028002B002E00310000000000230015
:1001F000260029002C002F00040404040403040535
:1002000002020202040302020202060606060606B3
:100210000404020202040404080201104080401099
:10022000204080408008020401804020100201101C
:100230008010204040200000000200090F00000351
:100240000401000C0000000000000000000000009D
:10025000000000000000BD0E11241FBECFEFDAE049
:10026000DEBFCDBF11E0A0E0B1E0E8E2F9E202C0FC
:1002700005900D92A637B107D9F723E0A6E7B1E0C4
:1002800001C01D92A23AB207E1F711E0CCE2D1E041
:1002900004C02197FE010E948314CB32D107C9F715
:1002A0000E94450F0C9492140C940000FC01809164
:1002B000CF02882311F13FB7F89482E08093E900E0
:1002C0002091F200822F90E01816190614F481E0B4
:1002D00090E0882339F0289A44E64093CE0240917A
:1002E000F1004083222339F02091F200211103C054
:1002F0002BE62093E8003FBF08958FEF9FEF08950E
:1003000096E0899FD0011124AD5CBC4F90967C9300
:100310006E935F9791E091969C939197E091A003E3
:10032000F091A10390919F03992339F0309751F0F8
:10033000811108C080914F030994309719F05C96A1
:100340008C91FACF08952FB7F89483E08093E90059
:100350009091E800892F807295FF04C09091F2007F
:1003600080E4891B2FBF08958091C40281110DC0C4
:1003700082E08093C00284E08093C1021092C302A5
:100380001092C20281E08093C40280EC92E0089552
:1003900081508F3008F047C0E82FF0E0EE52FE4F5A
:1003A0000C948314EF01F301E101E701EB01130267
:1003B00013021302F601FC01000204020A021302F6
:1003C0000E02809180008F77809380000895809145
:1003D00080008F7DF9CF80918000877FF5CF84B535
:1003E0008F7784BD089584B58F7DFBCF8091900079
:1003F0008F77809390000895809190008F7DF9CF42
:1004000080919000877FF5CF8091C0008F77809397
:10041000C00008958091C0008F7DF9CF8091C20007
:10042000877F8093C2000895CF93DF93282F30E019
:10043000F901EA5CFD4F8491F901E95EFD4FD49129
:10044000F901E850FE4FC491CC23A1F081110E9424
:10045000C801EC2FF0E0EE0FFF1FE651FE4FA59113
:10046000B491EC91ED2381E090E009F480E0DF911C
:10047000CF91089580E090E0FACF1F93CF93DF9360
:10048000282F30E0F901EA5CFD4F8491F901E95E23
:10049000FD4FD491F901E850FE4FC491CC23A9F04F
:1004A000162F81110E94C801EC2FF0E0EE0FFF1F04
:1004B000E452FE4FA591B4918FB7F894EC911111CD
:1004C00008C0D095DE23DC938FBFDF91CF911F91C1
:1004D0000895DE2BF8CFCF93DF9390E0FC01E95E27
:1004E000FD4F249188509E4FFC0184918823C9F0D0
:1004F00090E0880F991FFC01E253FE4FA591B49143
:10050000FC01E452FE4FC591D49161110DC09FB71B
:10051000F8948C91209582238C93888128232883BA
:100520009FBFDF91CF910895623051F49FB7F89447
:100530003C91822F809583238C93E8812E2BEFCFE3
:100540008FB7F894EC912E2B2C938FBFEACF3FB747
:10055000F8948091BC029091BD02A091BE02B0912E
:10056000BF0226B5A89B05C02F3F19F00196A11D1B
:10057000B11D3FBFBA2FA92F982F8827BC01CD01ED
:10058000620F711D811D911D42E0660F771F881F4C
:10059000991F4A95D1F708958F929F92AF92BF927B
:1005A000CF92DF92EF92FF924B015C010E94A70273
:1005B0006B017C010E94A7026C197D098E099F09BD
:1005C000683E734081059105A8F321E0821A9108E5
:1005D000A108B10888EEC80E83E0D81EE11CF11C0A
:1005E00081149104A104B10429F7FF90EF90DF90EA
:1005F000CF90BF90AF909F908F9008952FB7F894B1
:100600006091B8027091B9028091BA029091BB02D8
:100610002FBF08950F931F93CF93DF93C82FD62F2B
:1006200086E0C89FF0011124ED5CFC4F11A2878D7C
:1006300090A181309105F1F058F082309105F1F1EF
:10064000039709F440C0DF91CF911F910F91089556
:100650006623C9F361E070E08C2F0E9480010E9444
:10066000FE0260938B0370938C0380938D039093B1
:100670008E03E9CF0E94FE0200918B0310918C0340
:1006800020918D0330918E03AB01BC01401B510BB7
:10069000620B730B80919D0390919E03B0E0A0E0EC
:1006A00084179507A607B70748F462E070E08C2F1F
:1006B000DF91CF911F910F910C94800163E070E066
:1006C000D111C1CFF4CF70E060E0F1CF862F642F5D
:1006D0000C946B02862F642F0C943D02862F0C9491
:1006E0001402089508958091B20291E089278093C1
:1006F000B2020895E82FF0E0EE0FFF1FE45FFE4F17
:10070000718360838230F9F028F4882341F08130CE
:1007100071F00895833021F1843079F1089580914A
:1007200069008C7F482B40936900E89A0895809176
:100730006900837F440F551F440F551F482B40937A
:100740006900E99A0895809169008F7C34E0440F34
:10075000551F3A95E1F7482B40936900EA9A0895AE
:10076000809169008F7326E0440F551F2A95E1F7A9
:10077000482B40936900EB9A089580916A008F7C22
:1007800094E0440F551F9A95E1F7482B40936A0077
:10079000EE9A0895089540918F0250919002209111
:1007A0008D0230918E0242175307B4F49091E80005
:1007B0009570E1F39091E80092FD19C08093F100EB
:1007C00080918F029091900201968F739927892BC7
:1007D00019F48EEF8093E80080918F02909190023F
:1007E00001969093900280938F0281E0089580E0BB
:1007F0000895EF92FF920F931F93CF93DF93F82EFC
:10080000192FE62E042F81E0860F880F0E94CB035C
:1008100083E00E94CB03CF2DD12FEC0EFD2EF11CD7
:10082000CE15DF05B9F007FF13C0FE0184910E94C9
:10083000CB03182F80E00E94CB03812321968111E6
:10084000EFCFDF91CF911F910F91FF90EF9008951F
:100850008881EDCF81E0F5CFDF92EF92FF920F9389
:100860001F93CF93DF93D82E8A01EB017B01E40E17
:10087000F51ECE15DF0559F0D7FE12C0FE0184919A
:100880000E94CB0321968111F4CF0FEF1FEFC80117
:10089000DF91CF911F910F91FF90EF90DF9008951E
:1008A0008881EECF0F931F93CF93DF931F92CDB725
:1008B000DEB782E0898342E450E06CEA70E080E8D1
:1008C0000E942C040E94B401DC0112960D911C912F
:1008D0000115110589F0D801ED91FC910280F38199
:1008E000E02DBE016F5F7F4FC801099597FD04C0E1
:1008F000F80100851185ECCF89810F90DF91CF91B0
:100900001F910F910895615030F02091F100FC018A
:1009100020830196F8CF289A84E68093CE0208952A
:100920008F929F92AF92BF92CF92DF92EF92FF92FF
:100930000F931F93CF93DF936C017B018A0180910A
:100940000B01882309F45CC08091CF02882309F44D
:1009500057C08091930280FF05C08091E0008260C3
:100960008093E000E801B12C8AEFA82E93E0892E55
:100970002AE3922E209711F4BB20D9F10E94A30103
:1009800081110AC0AA94AA20D9F161E070E080E048
:1009900090E00E94CC02EECF8C171D0611F00CF0F7
:1009A0008C2F9FB7F8948092E9002091E80025FDF4
:1009B00002C09FBFDFCF282F30E0C21BD30BF7014F
:1009C000815020F041914093F100FACFE20EF31EE6
:1009D000BB2021F09092E800B12CEBCF8091E80091
:1009E00085FDE7CF9092E800BB24B394209709F3EC
:1009F000F3CF5D9A84E680939202101611063CF0C4
:100A000081E090E0F6019383828310E000E0C8016A
:100A1000DF91CF911F910F91FF90EF90DF90CF90DA
:100A2000BF90AF909F908F900895CF93DF931F92C8
:100A3000CDB7DEB76983DC01ED91FC910280F381D3
:100A4000E02D41E050E0BE016F5F7F4F09950F90B0
:100A5000DF91CF9108950F931F93CF93DF938C0174
:100A6000D0E0C0E0F801EC0FFD1F6491662341F077
:100A700080ED92E00E941505892B11F02196F2CFAE
:100A8000CE01DF91CF911F910F91089583E0809364
:100A9000E9008091F200882319F08AE38093E8004E
:100AA00008950E94A30190E00895CF93DF931F92D1
:100AB000CDB7DEB7FC018485958597FD08C02FEF83
:100AC0003FEF358724870F90DF91CF910895CE01B6
:100AD00001960E945601019719F4898190E0F3CFA5
:100AE0008FEF9FEFF0CF0F931F93CF93DF931F9262
:100AF000CDB7DEB78C01FC018485958597FF0BC0CF
:100B0000CE0101960E945601019771F4898190E00F
:100B1000F80195878487F801848595850F90DF918A
:100B2000CF911F910F9108958FEF9FEFF1CFFC01AF
:100B30008485958597FD0BC09FB7F89482E08093DC
:100B4000E9008091F2009FBF90E0019608959FB761
:100B5000F89482E08093E9008091F2009FBF90E0DA
:100B6000089520914302260F3327331F2132310588
:100B7000ECF420916702FC0190E080E0243069F001
:100B800082E00895A09143022191AC014D5D5D4F3B
:100B9000A40FB52FB11D2C930196861798F3809161
:100BA0004302680F6093430280E0089581E0089556
:100BB0001092670281E0809369021092680261E0FE
:100BC00082E00E943D0261E083E00E943D02E9EB89
:100BD000F0E080818E7F808380818D7F808388E4B8
:100BE0008093B80085E48093BC000895CF93DF9391
:100BF00091E0909322028823B9F0C091B800D0917F
:100C0000BA008091BC008A7B8093BC0060E082E0E7
:100C10000E943D0260E083E00E943D020E94D805F0
:100C2000D093BA00C093B800DF91CF910895089592
:100C3000E0919C0280919B02E81730F4F0E0E350D1
:100C4000FE4F808190E008958FEF9FEF089590917F
:100C50009C0280919B022FEF3FEF981748F4E92FF9
:100C6000F0E0E350FE4F208130E09F5F90939C02C4
:100C7000C901089580919B0290919C02891B990B58
:100C80000895CF92DF92EF92FF920F931F93CF932D
:100C9000DF937C01CB018A012091FC01222389F0A2
:100CA000EB016B01C40ED51ECC15DD0569F0699111
:100CB000D701ED91FC910190F081E02DC7010995DC
:100CC000F3CF642F0E94B105C801DF91CF911F912E
:100CD0000F91FF90EF90DF90CF900895CF93DF9327
:100CE0001F92CDB7DEB769832091FC012223F9F072
:100CF00020919902203258F021E030E0FC0133834A
:100D0000228390E080E00F90DF91CF910895809151
:100D10009A02E82FF0E0E452FE4F998190838F5FB2
:100D200080939A028093990281E090E0ECCF61E099
:100D3000CE0101960E94B105F7CF90E080E00895C2
:100D40009C0197FF02C0295F3F4F43E035952795EF
:100D50004A95E1F7F901E858FE4F208130E068E05C
:100D600070E00E944D14A90102C0559547958A95DF
:100D7000E2F7CA01817008954F925F926F927F925D
:100D80008F929F92AF92BF92CF92DF92EF92FF929B
:100D90000F931F93CF93DF937C0180912F0397E0F4
:100DA000692E05E4813019F085E0682E0BE0D0E073
:100DB000C0E010E0A62CB12C650121E0C21AD108D8
:100DC0008091CC029091CD02C817D9070CF09CC03D
:100DD000CE010E94A0060C2C01C0880F0A94EAF7ED
:100DE0001695182B011354C0CC19DD09D7FD8CC002
:100DF00081E090E00C2C01C0880F0A94EAF7782E6D
:100E0000709410E000E0912C812CCE01880D991D8A
:100E10002091CC023091CD0282179307ECF50E940D
:100E2000A0060C2C01C0880F0A94EAF71695182B1F
:100E30008FEF881A980AC401B5010E944D14892BBE
:100E400021F70C3608F060C0112331F190E080E00A
:100E500020E0612F70E0AB01082E02C05595479548
:100E60000A94E2F74170240F01968830910599F7B2
:100E700020FF4AC0172180912F03813059F080E371
:100E8000F701E00FF11D180F10830F5F10E0BDCFC9
:100E9000219696CF80E2F4CF802F90E0E80EF91EE5
:100EA000F7011082F2E0EF1AF108F70120812F33E9
:100EB00059F5502E492E069D3001112480912F03A3
:100EC00005E0813009F407E0F12CE12C10E0580135
:100ED000F1E0AF1AB108EA14FB04D4F46701912CD5
:100EE000812CC614D70454F4C6018C0F9D1F0E9498
:100EF000A006880E911CC00ED11EF3CF80FC04C04A
:100F00002FEFE21AF20AE7CF55245A9444244A9468
:100F1000852D942DDF91CF911F910F91FF90EF9030
:100F2000DF90CF90BF90AF909F908F907F906F9009
:100F30005F904F900895462FFC0197FD379623E070
:100F4000F595E7952A95E1F768E070E00E944D1469
:100F500021E030E0B90102C0660F771F8A95E2F701
:100F6000CB01E858FE4F9081442319F0892B8083F0
:100F7000089580958923FBCF8091CC029091CD027A
:100F8000803293408CF46091B2028091CC029091B7
:100F9000CD020E949B078091CC029091CD020196D8
:100FA0009093CD028093CC0208958F929F92AF923E
:100FB000BF920F931F93CF93DF93CDB7DEB7A19767
:100FC0000FB6F894DEBF0FBECDBF19A2423008F4B1
:100FD0004AE08E010F5D1F4F842E912CB12CA12C65
:100FE000A50194010E946114E62FB901CA01EA30FB
:100FF00044F5E05DD801EE938D01232B242B252BA6
:1010000079F790E080E0109769F0FD0101900020F1
:10101000E9F73197AF014A1B5B0BBD0180ED92E010
:101020000E949004A1960FB6F894DEBF0FBECDBF0C
:10103000DF91CF911F910F91BF90AF909F908F90B4
:101040000895E95CD7CF42E050E063E771E080EDBE
:1010500092E00C9490042F923F924F925F926F9285
:101060007F928F929F92AF92BF92CF92DF92EF9238
:10107000FF920F931F93CF93DF93CDB7DEB7A09767
:101080000FB6F894DEBF0FBECDBF9091770121E07F
:10109000290F20937701453608F016C1042F10E080
:1010A000680127E0C20ED11C31E2C316D10408F05A
:1010B0000BC12EE7298322E02A834B838C839D83F7
:1010C000A801CE0106960E948914A8014C5F5F4FCB
:1010D000CE0101967C01FC018FEF9FEF21819227C9
:1010E00028E0BC01880F991F77FF04C031E28327F5
:1010F00030E193272150A9F731969F012E193F091E
:101100002417350758F3E6E0F0E0EC0FFD1FE00F81
:10111000F11F9083FE01E00FF11F878318E001E0CB
:1011200092E0892EBB24BA9425EEA22E35EC932EA4
:101130000093FC0188E08093760110929A0210924D
:101140009902A601B70180E293E00E944106209037
:10115000990290E2E1E0921508F497C03090760190
:101160000E94A7022B013C0180916702811167C098
:101170008092670200936902B092660210928B021D
:1011800020928A02ECEDF1E0AAE6B2E02812B6C0A5
:1011900010928C0280918C02330C382A30928C028F
:1011A00080916802813009F0ADC0109268020E94FF
:1011B000A7022B013C0180918C028093BB0080919F
:1011C0001E0290911F02A0912002B0912102892B52
:1011D0008A2B8B2BA1F00E94A70220911E02309136
:1011E0001F0240912002509121026419750986095D
:1011F0009709261737074807590708F441C0809117
:10120000BC0083FDD8CF9092BC000E94A7022B01A6
:101210003C0180916702823009F477C080916602B8
:10122000E0E08F3F91F180916602E2E0803269F167
:1012300080916602E3E0803341F1E4E026C08091D2
:101240001E0290911F02A0912002B0912102892BD1
:101250008A2B8B2B09F488CF0E94A70220911E02B3
:1012600030911F02409120025091210264197509AA
:1012700086099709261737074807590708F074CFDA
:1012800080911D020E94F605E5E010929A021092EC
:1012900099021092FC01EE2309F459C0E53051F097
:1012A000F0E0EE0FFF1FE056FD4F80819181019627
:1012B00091838083A89569E170E080E090E00E94CE
:1012C000CC02115009F034CF80E0A0960FB6F8940C
:1012D000DEBF0FBECDBFDF91CF911F910F91FF9069
:1012E000EF90DF90CF90BF90AF909F908F907F90C6
:1012F0006F905F904F903F902F90089591919D93A4
:101300008F5F44CFA092BC0080CF80911E0290914D
:101310001F02A0912002B0912102892B8A2B8B2BD6
:1013200009F477CF0E94A70220911E0230911F027C
:10133000409120025091210264197509860997098C
:10134000261737074807590708F063CF99CF81E080
:10135000BCCF0E942B0881110AC02091B0023091AD
:10136000B1022F5F3F4F3093B1022093B002089536
:1013700085ED8093BC0080911E0290911F02A09188
:101380002002B09121020796A11DB11D23E0B69560
:10139000A795979587952A95D1F72091BC0024FDB4
:1013A00003C010926702089540911E0250911F02DF
:1013B0006091200270912102452B462B472B69F347
:1013C0000097A105B10541F02AE22A95F1F700C086
:1013D0000197A109B109E1CF80911D020C94F60596
:1013E0001F920F920FB60F9211242F933F938F935A
:1013F0009F93AF93BF938091B8029091B902A0914F
:10140000BA02B091BB023091B70223E0230F2D370F
:1014100058F50196A11DB11D2093B7028093B80223
:101420009093B902A093BA02B093BB028091BC0220
:101430009091BD02A091BE02B091BF020196A11D84
:10144000B11D8093BC029093BD02A093BE02B093E5
:10145000BF02BF91AF919F918F913F912F910F90BC
:101460000FBE0F901F90189526E8230F0296A11D1E
:10147000B11DD2CF1F920F920FB60F9211242F934E
:101480003F934F935F936F937F938F939F93AF930C
:10149000BF93EF93FF93E0911401F091150109952B
:1014A000FF91EF91BF91AF919F918F917F916F913C
:1014B0005F914F913F912F910F900FBE0F901F9012
:1014C00018951F920F920FB60F9211242F933F93EE
:1014D0004F935F936F937F938F939F93AF93BF933C
:1014E000EF93FF93E0911201F09113010995FF91A1
:1014F000EF91BF91AF919F918F917F916F915F918C
:101500004F913F912F910F900FBE0F901F90189504
:101510001F920F920FB60F9211242F933F934F9368
:101520005F936F937F938F939F93AF93BF93EF934B
:10153000FF93E0911001F09111010995FF91EF9156
:10154000BF91AF919F918F917F916F915F914F91DB
:101550003F912F910F900FBE0F901F9018951F92E3
:101560000F920FB60F9211242F933F934F935F93D7
:101570006F937F938F939F93AF93BF93EF93FF935B
:10158000E0910E01F0910F010995FF91EF91BF914C
:10159000AF919F918F917F916F915F914F913F910B
:1015A0002F910F900FBE0F901F9018951F920F92C2
:1015B0000FB60F9211242F933F934F935F936F9326
:1015C0007F938F939F93AF93BF93EF93FF93E0919C
:1015D0000C01F0910D010995FF91EF91BF91AF9131
:1015E0009F918F917F916F915F914F913F912F913B
:1015F0000F900FBE0F901F9018951F920F920FB66D
:101600000F9211248F939F938091E1009091E100BC
:10161000937F9093E10083FF0FC01092E90091E067
:101620009093EB001092EC0092E39093ED001092F7
:10163000CF0298E09093F00082FF22C093E0909355
:10164000E9009091F200992319F09AE39093E80051
:1016500090919202992341F090919202915090932F
:101660009202911101C05D989091CE02992341F0B0
:101670009091CE0291509093CE02911101C0289882
:1016800084FF18C08091E2008E7E81608093E2002A
:101690008091E1008F7E8093E100809193028E7EA5
:1016A0008061809393029F918F910F900FBE0F9056
:1016B0001F90189580FFF7CF8091E2008E7E8061A9
:1016C0008093E2008091E1008E7E8093E100809122
:1016D00093028E7E8160E5CF1F920F920FB60F921C
:1016E0001124CF92DF92EF92FF920F931F932F93CB
:1016F0003F934F935F936F937F938F939F93AF939A
:10170000BF93EF93FF93CF93DF93CDB7DEB76C9783
:10171000DEBFCDBF1092E9008091E80083FF25C0B5
:1017200068E0CE0145960E94830482EF8093E80032
:101730008D8987FF39C09091E80090FFFCCF982FEA
:10174000907609F034C19E894F89588D2F89F88C85
:10175000911131C0803861F5809194028093F1003D
:101760001092F1008EEF8093E8006C960FB6F8941B
:10177000DEBF0FBECDBFDF91CF91FF91EF91BF9143
:10178000AF919F918F917F916F915F914F913F9119
:101790002F911F910F91FF90EF90DF90CF900F90BE
:1017A0000FBE0F901F9018959EEF9093E800C7CF43
:1017B0001092F100D5CF913059F48111D3CF41303F
:1017C000510581F6809194028D7F80939402CACF57
:1017D000933049F48111C6CF4130510519F68091FB
:1017E00094028260F2CF953041F48091E80080FF4E
:1017F000FCCF20682093E300B5CF963009F0A9C054
:101800000B8D1C8D22E01092E90010929002109234
:101810008F02F2122EC010928E0210928D020E9440
:1018200052041F8299E09983FA8291E09E8390EAA4
:1018300098879AEF998720918F0230919002275FC5
:101840003F4F3C832B838D831092E90010929002CE
:1018500010928F0210938E0200938D0249E050E0A7
:10186000BE016F5F7F4F80E00E942C040E945204F3
:1018700079CF10938E0200938D020E94B401DC0197
:1018800012960D911C910115110509F451C1D80151
:10189000ED91FC910480F581E02DBE016B5E7F4FE0
:1018A000C8010995009709F03EC1F801008511852E
:1018B000EACFF3E0FF120EC08F89882309F440C0FD
:1018C000823061F440E860E180E191E00E94F90338
:1018D000811148CF81E28093EB0047CF813029F41A
:1018E00040E86BE084E091E0F1CF833099F70E940B
:1018F000B401DC011296ED90FC908E010F5F1F4F3A
:101900006801E114F10479F0D701ED91FC910680B2
:10191000F781E02DB801C7010995080F111DF701E6
:10192000E084F184EECFD8011C92F60101900020F2
:10193000E9F73197BF016C197D0940E0C601C6CFB8
:101940006EEE70E0FB01449150E080E80E942C04B0
:1019500009CF973009F4BECF983021F481E080930D
:10196000F10000CF993009F0FDCE837009F0B2CFBD
:10197000EFE3F1E081E031E096E32191222371F081
:101980008093E9003093EB00DF0111972C912093B5
:10199000EC009093ED008F5F873079F78EE78093AE
:1019A000EA001092EA008F898093CF02DBCE8B8D04
:1019B0009C8D1092E9001092900210928F029093E9
:1019C0008E0280938D02898D811192C08E899D89AE
:1019D000913A49F4813209F07DCF47E050E064E06C
:1019E00071E080E0B3CF913209F074CF833269F4B3
:1019F0008F89988DB0E0A0E0809300019093010161
:101A0000A0930201B0930301ADCE803269F48091BE
:101A1000E80082FFFCCF67E084E091E00E9483044D
:101A20008BEF8093E8009ECE823209F09BCE8F89A7
:101A300080930B01EEEFFFE7859194918B3F9C4DD6
:101A400051F1E0E0F8E08091040190910501A0914E
:101A50000601B0910701803B9440A105B105F1F466
:101A600080910B0180FD1AC0EE3F8AE0F80789F5EE
:101A700087E797E79183808380916000809391024C
:101A800088E19BE00FB6F894A895809360000FBEA4
:101A90009093600067CEEEEFFAE0D5CF8081918120
:101AA0008737974709F05ECEA895809160008861DE
:101AB000809360008091910280936000EE3F2AE065
:101AC000F20789F08091FE0A9091FF0A918380834A
:101AD00049CE808191818737980751F29093FF0A10
:101AE0008093FE0AC5CF1092FF0A1092FE0A3ACEEA
:101AF0000E94B401DC0112960D911C910115110593
:101B000009F4E8CED801ED91FC910190F081E02D2F
:101B1000BE016B5E7F4FC8010995811123CEF8018C
:101B200000851185EBCF181619060CF41BCED2CE0A
:101B3000F1E0FF12BECE62EF70E004CF1F920F9271
:101B40000FB60F9211242F933F934F935F936F9390
:101B50007F938F939F93AF93BF93EF93FF93809166
:101B6000B900887F803609F44AC0F0F5883209F45C
:101B7000A7C018F5803109F49BC0B8F4882309F494
:101B8000F9C0883009F494C0FF91EF91BF91AF91F3
:101B90009F918F917F916F915F914F913F912F9185
:101BA0000F900FBE0F901F901895883109F488C0D0
:101BB000803251F78093660214C0803409F49DC0CE
:101BC00040F48033B9F38833F9F68093660285ECEC
:101BD000B0C0803509F485C0883509F496C08834D2
:101BE00099F60E94B809D0CF883909F48CC038F52D
:101BF000883729F050F4883611F0803729F683E0D1
:101C0000809367021092650257C0883809F47BC040
:101C1000803919F0803809F0B7CF809165028032A1
:101C200008F071C0E091650281E08E0F809365023B
:101C30008091BB00F0E0EB5BFD4F80833DC0803BBB
:101C400039F0E0F4803A09F479C0883A09F09CCF81
:101C500084E0809367021092440210924302E09164
:101C60009702F091980209958091430281110FC06B
:101C700081E0809343021092230209C0803C09F462
:101C8000A6CF883C09F4A3CF883B09F07DCFE09133
:101C9000440281E08E0F80934402F0E0ED5DFD4F41
:101CA00080818093BB00909144028091430229C0BF
:101CB00080918C028093BB0085EC8093BC0064CF44
:101CC00090918B0280918A02981758F5E0918B02CF
:101CD00081E08E0F80938B02F0E0E659FD4F80810A
:101CE000E9CFE0918B0281E08E0F80938B0280918F
:101CF000BB00F0E0E659FD4F808390918B0280910C
:101D00008A029817C8F285E8D8CFE0918B0281E06B
:101D10008E0F80938B028091BB00F0E0E659FD4F5F
:101D200080838091690281115CCF81E08093680299
:101D300084EA8093BC001092670226CF85EC8093E2
:101D4000BC001092670280916502803230F4E0910D
:101D50006502F0E0EB5BFD4F10826091650270E080
:101D6000E0919502F091960285E492E00995109237
:101D700065020ACF1092660234CF1092D3021092FD
:101D8000D20288EE93E0A0E0B0E08093D40290937A
:101D9000D502A093D602B093D70229E431E0309364
:101DA000D1022093D0022FEF3FEF3093DD0220933A
:101DB000DC02109223031092220380932403909359
:101DC0002503A0932603B09327038BE591E090931E
:101DD000210380932003109235031092390310924F
:101DE000380310923A038DE691E090933403809388
:101DF0003303EFE4F3E010821482138215823696E7
:101E000083E0EB38F807B9F78EE191E09093960301
:101E10008093950387E191E09093980380939703D3
:101E200084E08093990387E080939A0382E291E0B3
:101E300090939403809393038AE090E090939C03A3
:101E400080939B0384EF91E090939E0380939D0386
:101E50001092A1031092A00310928F03109290038E
:101E6000109291031092920310929F0386E1809347
:101E70002C0310922D0381E080932E0310923103E6
:101E800010923003109232030895CF93DF93CDB7B1
:101E9000DEB7C458D1090FB6F894DEBF0FBECDBF70
:101EA000789484B5826084BD84B5816084BD85B535
:101EB000826085BD85B5816085BD80916E00816041
:101EC00080936E00109281008091810082608093E7
:101ED00081008091810081608093810080918000E9
:101EE0008160809380008091910082608093910056
:101EF0008091910081608093910080919000816039
:101F0000809390008091C10084608093C100809193
:101F1000C10082608093C1008091C1008160809384
:101F2000C1008091C30081608093C3008091C00094
:101F300082608093C0008091C20081608093C20063
:101F400080917A00846080937A0080917A00826028
:101F500080937A0080917A00816080937A008091EA
:101F60007A00806880937A001092CF0210929402D7
:101F7000109293028091D70081608093D70080EA0D
:101F80008093D80089B5806189BD89B5826089BD9B
:101F900009B400FEFDCF61E070E080E090E00E94B7
:101FA000CC028091D8008F7C80618093D800809192
:101FB000E000807F8093E0008091E1008E7E80933E
:101FC000E1008DE08093E200559A209A5D98289870
:101FD00060ED77E080E090E00E94CC028FEF9FEF11
:101FE0009093DD028093DC0282E080932F0360E017
:101FF00080912D030E946B0260E080912E030E946D
:102000006B0260E080912C030E946B0280912D0393
:10201000882309F4ABC0813009F4AAC0823009F4E6
:10202000A9C0833009F4A8C0873039F484E041E0C6
:1020300050E063E773E00E947A0380912E038823C7
:1020400009F49CC0813009F49BC0823009F49AC025
:10205000833009F499C0873039F484E042E050E0DD
:102060006CEB77E00E947A0310929C0210929B0224
:1020700010929A02109299020E94D80581E793E08B
:10208000909398028093970282E793E09093960250
:102090008093950262E085E00E946B0262E084E03A
:1020A0000E946B0261E085E10E946B0261E085E1C4
:1020B0000E943D0260E085E10E943D0283EC90E0D9
:1020C0000197F1F785E00E941402892B31F484E036
:1020D0000E94140211E0892B09F410E061E085E10F
:1020E0000E943D021093160110939E0210929D02D1
:1020F0000E94FE026093B3027093B4028093B50213
:102100009093B60285E5111101C084E4898313E040
:102110009E012F5F3F4F790141E0B70181E20E94AC
:10212000A909882399F181E080939D0288E198E2D2
:102130000FB6F894A895809360000FBE909360004E
:10214000812C912C5401839480ED92E00E9497059C
:10215000892B09F47AC080ED92E00E949705892BC3
:10216000F9F080ED92E00E945505F5CF82E05FCF57
:1021700083E05DCF81E05BCF80E059CF82E06ECF1E
:1021800083E06CCF81E06ACF80E068CF64E670E0E6
:1021900080E090E00E94CC02115009F0BDCFC6CF84
:1021A0008FE791E00E942B050E94230884E791E0CD
:1021B0000E942B0580919E02882309F41AC181E6B2
:1021C00091E00E942B0584E691E00E942B0580910E
:1021D0009D02882309F410C181E591E00E942B053E
:1021E00085E591E00E942B0580911601882309F472
:1021F00006C186E291E00E942B0582E491E00E94F4
:102200002B056091B0027091B10290E080E04AE04D
:102210000E94D50787E391E00E942B056091AE02F2
:102220007091AF0290E080E04AE00E94D50789E219
:1022300091E00E942B056091A20370E090E080E0A5
:102240004AE00E94D5070E94230880919F028111D5
:1022500025C02091A20330E08BE48983C90164E6A4
:1022600070E00E943914605D6A83EAE0F0E0C90121
:10227000BF010E943914282FCB01BF010E943914DD
:10228000805D8B83205D2C8344E0B70184E20E9453
:102290002B08882319F081E080939F020E94FE02A0
:1022A0002B013C012091B0023091B1028091AA0231
:1022B0009091AB02A091AC02B091AD020097A10544
:1022C000B10571F0B301A201481B590B6A0B7B0BDE
:1022D000DB01CA0180339547A105B10508F4BEC2F0
:1022E000283E63E0360710F027EE33E081E489836F
:1022F000C90164E670E00E943914605D6A83EAE017
:10230000F0E0C901BF010E943914282FCB01BF01A1
:102310000E943914805D8B83205D2C8344E0B701DB
:1023200084E20E942B08882381F08091B002909172
:10233000B1029093AF028093AE024092AA025092F3
:10234000AB026092AC027092AD0202EA12E051E37D
:10235000752E69E4662E7AE0C72ED12CF8018191A2
:1023600091918F018436910510F083E690E06982A7
:102370007A82B6010E943914605D6B83805D8C8324
:1023800044E0B70184E20E942B087394F5E37F12C6
:10239000E5CF81E080939F030E94FE0200918F03AE
:1023A000109190032091910330919203AB01BC01F5
:1023B000401B510B620B730B80919B0390919C030C
:1023C000B0E0A0E084179507A607B70708F081C121
:1023D00010E0809199031817A8F4E0919503F0910B
:1023E0009603E10FF11D62E080810E946B021F5F86
:1023F000F0CF8CE591E0E5CE8EE491E0EFCE81E286
:1024000091E0F9CE312C80919A03381608F062C021
:10241000032D10E0E0919703F0919803E00FF11F76
:1024200061E080810E946B02E0919703F091980334
:10243000E00FF11F60E080810E943D02D501C401E0
:10244000032C04C0880F991FAA1FBB1F0A94D2F740
:102450002C013C0160947094212C809199032816E2
:1024600010F5C22CD12CE0919503F0919603EC0D60
:10247000FD1D80810E94140296012C5F3F4FF901DF
:10248000EE0FFF1FED5CFC4F892B41F480819181A1
:1024900084299529918380832394DFCF8081918142
:1024A00086219721F7CFE0919703F0919803E00FF1
:1024B000F11F61E080810E943D028091970390911D
:1024C0009803080F191F60E0F80180810E946B02D9
:1024D000339499CF03E313E08FE693E06801F601AC
:1024E000278D30A1232B31F4148E2FEF3FEF368F41
:1024F000258F11A236E0C30ED11C8C159D0579F7EE
:10250000512C80919903581608F053C0412C652C2A
:10251000712C660C771CA301455C5C4F3A0120913D
:102520009A03421608F043C0F30160817181042CC4
:1025300002C0769567950A94E2F7529E90011124A5
:10254000240D311DE3E3F3E080E0458D568D241723
:10255000350709F48CC18F5F36968A30B1F760FF7A
:1025600024C0E3E3F3E090E080E0448D411118C023
:10257000E0919303F0919403E20FF31F408156E042
:10258000589FF001599FF00D1124ED5CFC4F448FD2
:10259000368F258F10A2178E61E00E940A0305C0B6
:1025A000019636968A30910501F74394B8CF53943B
:1025B000A8CF712CF80181A18111782E0A5F1F4FDD
:1025C000C016D106B9F70E94FE0260938F03709384
:1025D00090038093910390939203772009F479C03C
:1025E00080915403882309F474C080915203909120
:1025F0005303019709F06DC080914F0381116CC0A6
:102600008091320381111EC080912C030E9414021C
:10261000019799F480913203811114C080912C03A9
:102620000E941402019749F41092CD021092CC023C
:102630001092B20281E080933203809132038823AA
:1026400009F458C080912C030E9414028C01892B3C
:1026500009F050C080913203882309F444C01092DD
:102660003203C7010E94BC0621E030E03093310301
:102670002093300397FF92C0D12CC12C8091CC02C3
:102680009091CD0297FD019695958795C816D9062C
:102690000CF079C0C6010E94A006782E8091CC0271
:1026A0009091CD028C199D0901970E94A006682F78
:1026B000C6010E949B078091CC029091CD028C199B
:1026C0009D09672D01970E949B07FFEFCF1ADF0A34
:1026D000D5CF10929F0394CF898341E0B70180E268
:1026E0000E94A9098DCF80912C030E9414020197AA
:1026F00009F0B5CF0E94FE022B013C0160E085E1AC
:102700000E943D028091B3029091B402A091B50263
:10271000B091B602A3019201281B390B4A0B5B0B47
:10272000DA01C901C297A105B10500F18091160136
:10273000882309F47AC085E00E941402892BB1F045
:1027400084E00E941402892B89F4109216014092B1
:10275000B3025092B4026092B5027092B60284E461
:10276000898341E0B70181E20E94A90961E085E126
:102770000E943D02A89580E090E0892B09F4E4CC0A
:102780000E940000E1CCC7010E94BC0697FD16C064
:1027900022E030E03093310320933003009709F4B6
:1027A000A9CFF701419198012F5F3F4FB9014B33FA
:1027B00051F0890128173907A9F79CCF10923103EE
:1027C0001092300397CFD701A20FB31F28173907F4
:1027D0000CF090CF4D91F90131964D3321F5EE0D6E
:1027E000FF1DAF014E195F09481759070CF082CF42
:1027F00041914F33B1F76E0D7F1D0095020F09F423
:1028000079CF093108F008E1402F50E0CE0183591B
:102810009F4F0E948914402FBE0163597F4F82E26F
:102820000E94A90967CF9F01D1CF85E00E941402C1
:10283000892B09F09BCF84E00E941402892B09F4B4
:1028400095CF81E0809316014092B3025092B4027A
:102850006092B5027092B60285E582CF8091AE0299
:102860009091AF022817390709F493CD39CD6170E3
:1028700094CEAA1BBB1B51E107C0AA1FBB1FA61702
:10288000B70710F0A61BB70B881F991F5A95A9F719
:1028900080959095BC01CD01089597FB072E16F405
:1028A000009407D077FD09D00E94391407FC05D0A9
:1028B0003EF4909581959F4F0895709561957F4F57
:1028C0000895A1E21A2EAA1BBB1BFD010DC0AA1F71
:1028D000BB1FEE1FFF1FA217B307E407F50720F089
:1028E000A21BB30BE40BF50B661F771F881F991F04
:1028F0001A9469F760957095809590959B01AC014D
:10290000BD01CF010895EE0FFF1F0590F491E02D5A
:102910000994FB01DC0102C001900D92415050402E
:08292000D8F70895F894FFCFE9
:10292800FFFFFFFF00E1000000000000CA03CA0328
:10293800CA03CA03CA03010A0B0C0D1213140908AF
:102948000706313233414243443435364546474819
:10295800373839494A4B4C2A30234D4E4F5000C125
:102968008081000000000000001505900451054614
:1029780005970555057305000000006E0641069D84
:102988000617063A06270618060000000066036ABE
:06299800036E030D0A00AE
:00000001FF
