:100000000C94D5000C94110C0C94EA0B0C94C30BBB
:100010000C949C0B0C94FD000C94FD000C94750B3F
:100020000C94FD000C94FD000C948A080C94F908C3
:100030000C94FD000C94FD000C94FD000C94FD004C
:100040000C94FD000C94FD000C94FD000C94FD003C
:100050000C94FD000C94FD000C94FD000C942B0BF3
:100060000C94FD000C94FD000C94FD000C94FD001C
:100070000C94FD000C94FD000C94FD000C94FD000C
:100080000C94FD000C94FD000C94FD000C94FD00FC
:100090000C94380C0C94FD000C94FD000C94FD00A5
:1000A0000C94FD000C94FD000C94FD000000000079
:1000B000240027002A002D00300000000000250049
:1000C00028002B002E003100000000002300260035
:1000D00029002C002F000404040404030405020278
:1000E00002020403020202020606060606060404D1
:1000F0000202020404040802011040804010204063
:10010000804080080204018040201002011080100D
:10011000204040200000000200090F0000030401FD
:10012000000C0000000000000000000000000000C3
:10013000000000080B000202020000090400000198
:10014000020200000524001001052401010104241D
:10015000020605240600010705810310004009047A
:100160000100020A00000007050202400000070526
:1001700083024000000403090412010002EF02019F
:100180004041234580000101020301417264756909
:100190006E6F204C4C43004D696C6C656E6E6975DA
:1001A0006D20416C70686100570D11241FBECFEFA8
:1001B000DAE0DEBFCDBF11E0A0E0B1E0EAE2F3E2B9
:1001C00002C005900D92AA37B107D9F723E0AAE73C
:1001D000B1E001C01D92AC38B207E1F710E0C5ED07
:1001E000D0E004C02197FE010E947911C43DD107DF
:1001F000C9F70E94DF0D0C9493110C94000096E057
:10020000899FD0011124A35EBC4F90967C936E937E
:100210005F9791E091969C939197E0918A03F0917A
:100220008B0390918903992339F0309751F0811114
:1002300008C0809139030994309719F05C968C912D
:10024000FACF0895CF92DF92EF92FF920F931F9310
:1002500096E0899FF0011124E35EFC4F11A2278DE7
:1002600030A12130310551F178F02230310509F407
:1002700051C02330310509F452C01F910F91FF90F6
:10028000EF90DF90CF9008956623B9F361E070E0BE
:100290000E94FF002FB7F89480916402909165024C
:1002A000A0916602B09167022FBF8093750390936F
:1002B0007603A0937703B0937803DFCF9FB7F894CA
:1002C000C0906402D0906502E0906602F0906702F0
:1002D0009FBF0091750310917603209177033091B1
:1002E0007803C01AD10AE20AF30A00918703109139
:1002F000880330E020E00C151D052E053F0550F465
:1003000062E070E01F910F91FF90EF90DF90CF902F
:100310000C94FF006111B1CF63E070E0F3CF70E0A7
:1003200060E0F0CFFC0180916302882311F13FB7B8
:10033000F89482E08093E9002091F200822F90E00F
:100340001816190614F481E090E0882339F0289AF1
:1003500044E6409362024091F1004083222339F049
:100360002091F200211103C02BE62093E8003FBF4B
:1003700008958FEF9FEF08952FB7F89483E080934F
:10038000E9009091E800892F807295FF04C0909158
:10039000F20080E4891B2FBF089580915A028111D9
:1003A0000DC082E08093560284E080935702109241
:1003B00059021092580281E080935A0286E592E039
:1003C0000895CF93DF931F92CDB7DEB76983DC0129
:1003D000ED91FC910280F381E02D41E050E0BE01FF
:1003E0006F5F7F4F09950F90DF91CF91089583E064
:1003F0008093E9008091F200882319F08AE38093CA
:10040000E80008950E94BC0190E00895CF93DF9327
:100410001F92CDB7DEB7FC018485958597FD08C096
:100420002FEF3FEF358724870F90DF91CF9108950D
:10043000CE0101960E949201019719F4898190E002
:10044000F3CF8FEF9FEFF0CF0F931F93CF93DF93F7
:100450001F92CDB7DEB78C01FC018485958597FF8F
:100460000BC0CE0101960E949201019771F489811F
:1004700090E0F80195878487F801848595850F9031
:10048000DF91CF911F910F9108958FEF9FEFF1CFE3
:10049000FC018485958597FD0BC09FB7F89482E099
:1004A0008093E9008091F2009FBF90E0019608954B
:1004B0009FB7F89482E08093E9008091F2009FBF9B
:1004C00090E00895409150025091510220914E02C7
:1004D00030914F0242175307B4F49091E8009570A1
:1004E000E1F39091E80092FD19C08093F1008091B2
:1004F00050029091510201968F739927892B19F41C
:100500008EEF8093E8008091500290915102019605
:10051000909351028093500281E0089580E0089505
:10052000EF92FF920F931F93CF93DF93F82E192F23
:10053000E62E042F81E0860F880F0E94620283E07E
:100540000E946202CF2DD12FEC0EFD2EF11CCE1594
:10055000DF05B9F007FF13C0FE0184910E9462021B
:10056000182F80E00E946202812321968111EFCF33
:10057000DF91CF911F910F91FF90EF9008958881A7
:10058000EDCF81E0F5CFDF92EF92FF920F931F93B3
:10059000CF93DF93D82E8A01EB017B01E40EF51E89
:1005A000CE15DF0559F0D7FE12C0FE0184910E94DE
:1005B000620221968111F4CF0FEF1FEFC801DF9186
:1005C000CF911F910F91FF90EF90DF900895888158
:1005D000EECF0F931F93CF93DF931F92CDB7DEB76C
:1005E00082E0898342E450E063E371E080E80E94A6
:1005F000C3020E94CD01DC0112960D911C910115E0
:10060000110589F0D801ED91FC910280F381E02D74
:10061000BE016F5F7F4FC801099597FD04C0F801C7
:1006200000851185ECCF89810F90DF91CF911F91CB
:100630000F910895615030F02091F100FC0120836A
:100640000196F8CF289A84E680936202089581503B
:100650008F3008F047C0E82FF0E0EF5CFC4F0C94BF
:1006600079114E035203400346034A037203720397
:10067000720355035B035F036303690372036D0336
:10068000809180008F778093800008958091800012
:100690008F7DF9CF80918000877FF5CF84B58F77EC
:1006A00084BD089584B58F7DFBCF809190008F77B6
:1006B000809390000895809190008F7DF9CF809174
:1006C0009000877FF5CF8091C0008F778093C00026
:1006D00008958091C0008F7DF9CF8091C200877FFF
:1006E0008093C2000895CF93DF93282F30E0F90163
:1006F000EC5EFE4F8491F901EB50FF4FD491F9016C
:10070000EA52FF4FC491CC23A1F081110E9427032C
:10071000EC2FF0E0EE0FFF1FE853FF4FA591B491CF
:10072000EC91ED2381E090E009F480E0DF91CF913E
:10073000089580E090E0FACF1F93CF93DF93282FA6
:1007400030E0F901EC5EFE4F8491F901EB50FF4F70
:10075000D491F901EA52FF4FC491CC23A9F0162F8E
:1007600081110E942703EC2FF0E0EE0FFF1FE654EB
:10077000FF4FA591B4918FB7F894EC91111108C077
:10078000D095DE23DC938FBFDF91CF911F91089529
:10079000DE2BF8CFCF93DF9390E0FC01EB50FF4FBF
:1007A00024918A529F4FFC0184918823C9F090E0E4
:1007B000880F991FFC01E455FF4FA591B491FC01EE
:1007C000E654FF4FC591D49161110DC09FB7F894C5
:1007D0008C91209582238C938881282328839FBF26
:1007E000DF91CF910895623051F49FB7F8943C9116
:1007F000822F809583238C93E8812E2BEFCF8FB7A8
:10080000F894EC912E2B2C938FBFEACF3FB7F8943E
:1008100080914A0290914B02A0914C02B0914D02FE
:1008200026B5A89B05C02F3F19F00196A11DB11D4B
:100830003FBFBA2FA92F982F8827BC01CD01620F87
:10084000711D811D911D42E0660F771F881F991F42
:100850004A95D1F708958F929F92AF92BF92CF920F
:10086000DF92EF92FF924B015C010E9406046B0144
:100870007C010E9406046C197D098E099F09683E5F
:10088000734081059105A8F321E0821A9108A1081F
:10089000B10888EEC80E83E0D81EE11CF11C81145B
:1008A0009104A104B10429F7FF90EF90DF90CF905D
:1008B000BF90AF909F908F9008958F929F92AF922C
:1008C000BF92CF92DF92EF92FF920F931F93CF933D
:1008D000DF936C017B018A0180911601882309F462
:1008E0005CC080916302882309F457C0809155024F
:1008F00080FF05C08091E00082608093E000E80105
:10090000B12C8AEFA82E93E0892E2AE3922E20970D
:1009100011F4BB20D9F10E94BC0181110AC0AA9434
:10092000AA20D9F161E070E080E090E00E942B0401
:10093000EECF8C171D0611F00CF08C2F9FB7F8949A
:100940008092E9002091E80025FD02C09FBFDFCF23
:10095000282F30E0C21BD30BF701815020F04191CA
:100960004093F100FACFE20EF31EBB2021F09092EB
:10097000E800B12CEBCF8091E80085FDE7CF9092A5
:10098000E800BB24B394209709F3F3CF5D9A84E683
:1009900080935402101611063CF081E090E0F601BD
:1009A0009383828310E000E0C801DF91CF911F9113
:1009B0000F91FF90EF90DF90CF90BF90AF909F90FE
:1009C0008F900895862F642F0C94CA03862F642F6E
:1009D0000C949C03862F0C947303089508958091C2
:1009E000480291E08927809348020895E82FF0E0BB
:1009F000EE0FFF1FE050FF4F718360838230F9F0EC
:100A000028F4882341F0813071F00895833021F17A
:100A1000843079F10895809169008C7F482B409350
:100A20006900E89A089580916900837F440F551FFB
:100A3000440F551F482B40936900E99A089580910F
:100A400069008F7C34E0440F551F3A95E1F7482B3D
:100A500040936900EA9A0895809169008F7326E0B7
:100A6000440F551F2A95E1F7482B40936900EB9AF4
:100A7000089580916A008F7C94E0440F551F9A95E9
:100A8000E1F7482B40936A00EE9A0895089520916B
:100A90001F02260F3327331F21323105ECF420913A
:100AA0009002FC0190E080E0243069F082E008953B
:100AB000A0911F022191AC0141505E4FA40FB52FB0
:100AC000B11D2C930196861798F380911F02680F31
:100AD00060931F0280E0089581E0089510929002D3
:100AE00081E080938F0210926A0261E082E00E94AE
:100AF0009C0361E083E00E949C03E9EBF0E08081CD
:100B00008E7F808380818D7F808388E48093B8008E
:100B100085E48093BC000895CF93DF9391E0909398
:100B2000FE018823B9F0C091B800D091BA0080913D
:100B3000BC008A7B8093BC0060E082E00E949C0342
:100B400060E083E00E949C030E946E05D093BA008F
:100B5000C093B800DF91CF910895CF92DF92EF92CA
:100B6000FF920F931F93CF93DF93D091B90281E04F
:100B7000D13208F09CC0C091B8020E9406046B01FB
:100B80007C018091900281116CC082E08093900280
:100B900081E080938F028FEF80938E0210928D02FE
:100BA000D0938C02A8E9B2E0ECE6F2E080E0D81342
:100BB0008DC010926B0280916B02CC0FC82BC0933A
:100BC0006B0280916A02813009F084C010926A023F
:100BD0000E9406046B017C0180916B028093BB0034
:100BE0008091920290919302A0919402B09195020B
:100BF000892B8A2B8B2BA1F00E9406040091920274
:100C00001091930220919402309195026C197D0904
:100C10008E099F09061717072807390708F442C0ED
:100C20008091BC0083FDD8CF85EC8093BC000E94EE
:100C300006046B017C0180919002823009F44CC063
:100C400080918E028F3F09F469C080918E028032BC
:100C500009F466C080918E02803309F463C084E099
:100C600026C08091920290919302A0919402B0913B
:100C70009502892B8A2B8B2B09F483CF0E940604C3
:100C8000009192021091930220919402309195026A
:100C90006C197D098E099F09061717072807390760
:100CA00008F06FCF809191020E948C0585E0109230
:100CB00097021092B90210929602DF91CF911F9184
:100CC0000F91FF90EF90DF90CF9008959D919193B9
:100CD0008F5F6DCF85EEA9CF8091920290919302A4
:100CE000A0919402B0919502892B8A2B8B2B09F449
:100CF000A2CF0E94060400919202109193022091CB
:100D00009402309195026C197D098E099F0906178E
:100D100017072807390708F08ECFC4CF80E0C7CF68
:100D200082E0C5CF83E0C3CF0895E0914702809170
:100D30004602E81730F4F0E0E252FE4F808190E086
:100D400008958FEF9FEF089590914702809146029A
:100D50002FEF3FEF981748F4E92FF0E0E252FE4FF3
:100D6000208130E09F5F90934702C90108958091F0
:100D7000460290914702891B990B0895CF92DF920A
:100D8000EF92FF920F931F93CF93DF937C01CB01E0
:100D90008A0120919602222389F0EB016B01C40E97
:100DA000D51ECC15DD0569F06991D701ED91FC9157
:100DB0000190F081E02DC7010995F3CF642F0E94C7
:100DC0004705C801DF91CF911F910F91FF90EF90E0
:100DD000DF90CF900895CF93DF931F92CDB7DEB70A
:100DE0006983209196022223F9F02091B9022032E2
:100DF00058F021E030E0FC013383228390E080E072
:100E00000F90DF91CF91089580919702E82FF0E045
:100E1000E856FD4F998190838F5F8093970280936E
:100E2000B90281E090E0ECCF61E0CE0101960E9432
:100E30004705F7CF90E080E008959C0197FF02C03E
:100E4000295F3F4F43E0359527954A95E1F7F90132
:100E5000E658FE4F208130E068E070E00E946511A6
:100E6000A90102C0559547958A95E2F7CA0181709C
:100E700008954F925F926F927F928F929F92AF925E
:100E8000BF92CF92DF92EF92FF920F931F93CF9377
:100E9000DF937C018091190397E0692E05E481308E
:100EA00019F085E0682E0BE0D0E0C0E010E0A62C41
:100EB000B12C650121E0C21AD1088091680290919D
:100EC0006902C817D9070CF09CC0CE010E941D070B
:100ED0000C2C01C0880F0A94EAF71695182B011301
:100EE00054C0CC19DD09D7FD8CC081E090E00C2CFA
:100EF00001C0880F0A94EAF7782E709410E000E0A1
:100F0000912C812CCE01880D991D20916802309181
:100F1000690282179307ECF50E941D070C2C01C093
:100F2000880F0A94EAF71695182B8FEF881A980AFB
:100F3000C401B5010E946511892B21F70C3608F018
:100F400060C0112331F190E080E020E0612F70E07B
:100F5000AB01082E02C0559547950A94E2F74170FF
:100F6000240F01968830910599F720FF4AC0172178
:100F700080911903813059F080E3F701E00FF11DF2
:100F8000180F10830F5F10E0BDCF219696CF80E23F
:100F9000F4CF802F90E0E80EF91EF7011082F2E006
:100FA000EF1AF108F70120812F3359F5502E492E01
:100FB000069D300111248091190305E0813009F468
:100FC00007E0F12CE12C10E05801F1E0AF1AB10874
:100FD000EA14FB04D4F46701912C812CC614D704C5
:100FE00054F4C6018C0F9D1F0E941D07880E911C92
:100FF000C00ED11EF3CF80FC04C02FEFE21AF20A1C
:10100000E7CF55245A9444244A94852D942DDF919A
:10101000CF911F910F91FF90EF90DF90CF90BF90F5
:10102000AF909F908F907F906F905F904F900895BA
:10103000462FFC0197FD379623E0F595E7952A9515
:10104000E1F768E070E00E94651121E030E0B9014D
:1010500002C0660F771F8A95E2F7CB01E658FE4F74
:101060009081442319F0892B8083089580958923EA
:10107000FBCF8091680290916902803293408CF49A
:101080006091480280916802909169020E9418085C
:101090008091680290916902019690936902809311
:1010A0006802089585ED8093BC0080919202909132
:1010B0009302A0919402B09195020796A11DB11DD3
:1010C00023E0B695A795979587952A95D1F7209116
:1010D000BC0024FD03C0109290020895409192023A
:1010E000509193026091940270919502452B462B8A
:1010F000472B69F30097A105B10541F02AE22A9533
:10110000F1F700C00197A109B109E1CF80919102E7
:101110000C948C051F920F920FB60F9211248F938F
:101120009F938091E1009091E100937F9093E10083
:1011300083FF0FC01092E90091E09093EB001092B2
:10114000EC0092E39093ED001092630298E090938C
:10115000F00082FF22C093E09093E9009091F200AA
:10116000992319F09AE39093E800909154029923FF
:1011700041F090915402915090935402911101C00A
:101180005D9890916202992341F090916202915092
:1011900090936202911101C0289884FF18C0809139
:1011A000E2008E7E81608093E2008091E1008F7E7C
:1011B0008093E100809155028E7E8061809355027C
:1011C0009F918F910F900FBE0F901F90189580FFE9
:1011D000F7CF8091E2008E7E80618093E200809163
:1011E000E1008E7E8093E100809155028E7E8160C9
:1011F000E5CF1F920F920FB60F921124CF92DF927C
:10120000EF92FF920F931F932F933F934F935F9310
:101210006F937F938F939F93AF93BF93EF93FF93BE
:10122000CF93DF93CDB7DEB76C97DEBFCDBF109203
:10123000E9008091E80083FF25C068E0CE01459673
:101240000E941A0382EF8093E8008D8987FF39C0DE
:101250009091E80090FFFCCF982F907609F034C170
:101260009E894F89588D2F89F88C911131C0803813
:1012700061F5809153028093F1001092F1008EEF9E
:101280008093E8006C960FB6F894DEBF0FBECDBF1A
:10129000DF91CF91FF91EF91BF91AF919F918F918E
:1012A0007F916F915F914F913F912F911F910F917E
:1012B000FF90EF90DF90CF900F900FBE0F901F9098
:1012C00018959EEF9093E800C7CF1092F100D5CF0C
:1012D000913059F48111D3CF4130510581F680917D
:1012E00053028D7F80935302CACF933049F481110A
:1012F000C6CF4130510519F6809153028260F2CF7A
:10130000953041F48091E80080FFFCCF2068209365
:10131000E300B5CF963009F0A9C00B8D1C8D22E0FB
:101320001092E9001092510210925002F2122EC057
:1013300010924F0210924E020E94E9021F8299E021
:101340009983FA8291E09E8390EA98879AEF998731
:101350002091500230915102275F3F4F3C832B83F5
:101360008D831092E9001092510210925002109356
:101370004F0200934E0249E050E0BE016F5F7F4F85
:1013800080E00E94C3020E94E90279CF10934F02CD
:1013900000934E020E94CD01DC0112960D911C912A
:1013A0000115110509F451C1D801ED91FC9104809A
:1013B000F581E02DBE016B5E7F4FC8010995009756
:1013C00009F03EC1F80100851185EACFF3E0FF1274
:1013D0000EC08F89882309F440C0823061F440E850
:1013E00060E187E991E00E949002811148CF81E29B
:1013F0008093EB0047CF813029F440E86BE08BE825
:1014000091E0F1CF833099F70E94CD01DC01129673
:10141000ED90FC908E010F5F1F4F6801E114F10405
:1014200079F0D701ED91FC910680F781E02DB801AC
:10143000C7010995080F111DF701E084F184EECF73
:10144000D8011C92F60101900020E9F73197BF0105
:101450006C197D0940E0C601C6CF65E771E0FB016C
:10146000449150E080E80E94C30209CF973009F40C
:10147000BECF983021F481E08093F10000CF993005
:1014800009F0FDCE837009F0B2CFEFE3F1E081E027
:1014900031E096E32191222371F08093E9003093AB
:1014A000EB00DF0111972C912093EC009093ED005D
:1014B0008F5F873079F78EE78093EA001092EA0019
:1014C0008F8980936302DBCE8B8D9C8D1092E90017
:1014D000109251021092500290934F0280934E024C
:1014E000898D811192C08E899D89913A49F481320A
:1014F00009F07DCF47E050E06FE071E080E0B3CFCE
:10150000913209F074CF833269F48F89988DB0E0FD
:10151000A0E080930B0190930C01A0930D01B09378
:101520000E01ADCE803269F48091E80082FFFCCFDD
:1015300067E08FE091E00E941A038BEF8093E80050
:101540009ECE823209F09BCE8F8980931601EEEFFA
:10155000FFE7859194918B3F9C4D51F1E0E0F8E0DD
:1015600080910F0190911001A0911101B091120191
:10157000803B9440A105B105F1F48091160180FDF6
:101580001AC0EE3F8AE0F80789F587E797E791836D
:101590008083809160008093520288E19BE00FB6C7
:1015A000F894A895809360000FBE9093600067CE7A
:1015B000EEEFFAE0D5CF808191818737974709F028
:1015C0005ECEA895809160008861809360008091D4
:1015D000520280936000EE3F2AE0F20789F080918A
:1015E000FE0A9091FF0A9183808349CE8081918188
:1015F0008737980751F29093FF0A8093FE0AC5CF70
:101600001092FF0A1092FE0A3ACE0E94CD01DC0130
:1016100012960D911C910115110509F4E8CED8011F
:10162000ED91FC910190F081E02DBE016B5E7F4F4A
:10163000C8010995811123CEF80100851185EBCFF2
:10164000181619060CF41BCED2CEF1E0FF12BECE56
:1016500069E771E004CF1F920F920FB60F92112429
:101660002F933F938F939F93AF93BF938091640287
:1016700090916502A0916602B09167023091490293
:1016800023E0230F2D3758F50196A11DB11D20939E
:1016900049028093640290936502A0936602B0931E
:1016A000670280914A0290914B02A0914C02B09146
:1016B0004D020196A11DB11D80934A0290934B02E9
:1016C000A0934C02B0934D02BF91AF919F918F9127
:1016D0003F912F910F900FBE0F901F90189526E805
:1016E000230F0296A11DB11DD2CF1F920F920FB6EC
:1016F0000F9211242F933F934F935F936F937F9398
:101700008F939F93AF93BF93EF93FF93E091080163
:10171000F09109010995FF91EF91BF91AF919F91D0
:101720008F917F916F915F914F913F912F910F908A
:101730000FBE0F901F9018951F920F920FB60F9229
:1017400011242F933F934F935F936F937F938F93C6
:101750009F93AF93BF93EF93FF93E0910601F091B6
:1017600007010995FF91EF91BF91AF919F918F91E3
:101770007F916F915F914F913F912F910F900FBE8D
:101780000F901F9018951F920F920FB60F92112471
:101790002F933F934F935F936F937F938F939F9379
:1017A000AF93BF93EF93FF93E0910401F091050194
:1017B0000995FF91EF91BF91AF919F918F917F918B
:1017C0006F915F914F913F912F910F900FBE0F90AE
:1017D0001F9018951F920F920FB60F9211242F93FE
:1017E0003F934F935F936F937F938F939F93AF93A9
:1017F000BF93EF93FF93E0910201F09103010995EC
:10180000FF91EF91BF91AF919F918F917F916F91D8
:101810005F914F913F912F910F900FBE0F901F90AE
:1018200018951F920F920FB60F9211242F933F938A
:101830004F935F936F937F938F939F93AF93BF93D8
:10184000EF93FF93E0910001F09101010995FF9161
:10185000EF91BF91AF919F918F917F916F915F9128
:101860004F913F912F910F900FBE0F901F901895A1
:101870001F920F920FB60F9211242F933F934F9305
:101880005F936F937F938F939F93AF93BF93EF93E8
:10189000FF938091B900887F803609F44AC0F0F543
:1018A000883209F4A7C018F5803109F49BC0B8F458
:1018B000882309F4F9C0883009F494C0FF91EF91AE
:1018C000BF91AF919F918F917F916F915F914F9158
:1018D0003F912F910F900FBE0F901F901895883158
:1018E00009F488C0803251F780938E0214C080348E
:1018F00009F49DC040F48033B9F38833F9F680933E
:101900008E0285ECB0C0803509F485C0883509F4B5
:1019100096C0883499F60E945208D0CF883909F4CD
:101920008CC038F5883729F050F4883611F08037AC
:1019300029F683E0809390021092410257C08838C4
:1019400009F47BC0803919F0803809F0B7CF809155
:101950004102803208F071C0E091410281E08E0FB7
:10196000809341028091BB00F0E0EF5DFD4F8083EA
:101970003DC0803B39F0E0F4803A09F479C0883A00
:1019800009F09CCF84E08093900210922002109284
:101990001F02E0914402F0914502099580911F02D7
:1019A00081110FC081E080931F021092FF0109C0D6
:1019B000803C09F4A6CF883C09F4A3CF883B09F00A
:1019C0007DCFE091200281E08E0F80932002F0E035
:1019D000E150FE4F80818093BB0090912002809166
:1019E0001F0229C080916B028093BB0085EC80931D
:1019F000BC0064CF90918D0280918C02981758F5AD
:101A0000E0918D0281E08E0F80938D02F0E0E45929
:101A1000FD4F8081E9CFE0918D0281E08E0F8093B0
:101A20008D028091BB00F0E0E459FD4F80839091DE
:101A30008D0280918C029817C8F285E8D8CFE0918A
:101A40008D0281E08E0F80938D028091BB00F0E0CB
:101A5000E459FD4F808380918F0281115CCF81E03A
:101A600080936A0284EA8093BC001092900226CF91
:101A700085EC8093BC0010929002809141028032EC
:101A800030F4E0914102F0E0EF5DFD4F1082609193
:101A9000410270E0E0914202F091430281E292E063
:101AA0000995109241020ACF10928E0234CF109203
:101AB000BD021092BC0288EE93E0A0E0B0E08093FB
:101AC000BE029093BF02A093C002B093C10229E46A
:101AD00031E03093BB022093BA022FEF3FEF3093F7
:101AE000C7022093C60210920D0310920C0380933C
:101AF0000E0390930F03A0931003B09311038BE593
:101B000091E090930B0380930A0310921F031092AD
:101B1000230310922203109224038DE691E0909308
:101B20001E0380931D03E9E3F3E010821482138205
:101B30001582369683E0E537F807B9F78EE191E034
:101B40009093800380937F0387E191E090938203D9
:101B50008093810384E08093830387E080938403F0
:101B600082E291E090937E0380937D038AE090E08F
:101B7000909386038093850384EF91E0909388038C
:101B80008093870310928B0310928A03109279033B
:101B900010927A0310927B0310927C0310928903B7
:101BA00086E1809316031092170381E08093180357
:101BB00010921B0310921A0310921C030895CF93E6
:101BC000DF93CDB7DEB7CC56D1090FB6F894DEBFA0
:101BD0000FBECDBF789484B5826084BD84B581602A
:101BE00084BD85B5826085BD85B5816085BD8091E8
:101BF0006E00816080936E00109281008091810060
:101C00008260809381008091810081608093810057
:101C1000809180008160809380008091910082603B
:101C200080939100809191008160809391008091D8
:101C300090008160809390008091C10084608093C7
:101C4000C1008091C10082608093C1008091C10079
:101C500081608093C1008091C30081608093C30044
:101C60008091C00082608093C0008091C20081603A
:101C70008093C20080917A00846080937A00809182
:101C80007A00826080937A0080917A0081608093EC
:101C90007A0080917A00806880937A0010926302C3
:101CA00010925302109255028091D7008160809368
:101CB000D70080EA8093D80089B5806189BD89B555
:101CC000826089BD09B400FEFDCF61E070E080E074
:101CD00090E00E942B048091D8008F7C80618093DB
:101CE000D8008091E000807F8093E0008091E10047
:101CF0008E7E8093E1008DE08093E200559A209AD9
:101D00005D98289860ED77E080E090E00E942B04D9
:101D100082E08093190360E0809117030E94CA0358
:101D200060E0809118030E94CA0360E0809116036E
:101D30000E94CA0380911703882309F490C0813060
:101D400009F48FC0823009F48EC0833009F48DC04D
:101D5000873039F484E041E050E06FEE74E00E9497
:101D6000F60480911803882309F481C0813009F4B6
:101D700080C0823009F47FC0833009F47EC0873090
:101D800039F484E042E050E069E378E00E94F60430
:101D90001092470210924602109297021092B902D6
:101DA0000E946E058DEE94E090934502809344026C
:101DB0008EEE94E0909343028093420262E085E0CD
:101DC0000E94CA0362E084E00E94CA0361E085E1E8
:101DD0000E94CA0361E085E10E949C0366E0462EF2
:101DE0009E012F5F3F4F790172E0272E312C77241F
:101DF0007394709289038FB7F89440916402509164
:101E0000650260916602709167028FBF80917903CD
:101E100090917A03A0917B03B0917C03481B590BEE
:101E20006A0B7B0B8091850390918603B0E0A0E064
:101E300084179507A607B70708F091C110E08091B5
:101E400083031817E0F4E0917F03F0918003E10F22
:101E5000F11D62E080810E94CA031F5FF0CF82E023
:101E60007ACF83E078CF81E076CF80E074CF82E0D4
:101E700089CF83E087CF81E085CF80E083CF612C5D
:101E800080918403681608F063C0C62CD12CE091C1
:101E90008103F0918203EC0DFD1D61E080810E94C1
:101EA000CA03E0918103F0918203EC0DFD1D60E017
:101EB00080810E949C0381E090E0A0E0B0E0062CCD
:101EC00004C0880F991FAA1FBB1F0A94D2F74C01A8
:101ED0005C01A094B094512C80918303581608F5AE
:101EE000052D10E0E0917F03F0918003E00FF11FDA
:101EF00080810E9473030C5F1F4F000F111FF801B8
:101F0000E35EFC4F892B41F48081918188299929D6
:101F1000918380835394E0CF808191818A219B219A
:101F2000F7CFE0918103F0918203EC0DFD1D61E09C
:101F300080810E949C038091810390918203C80E4E
:101F4000D91E60E0F60180810E94CA03639498CF95
:101F50004DE1C42E43E0D42E8601F801878D90A177
:101F6000892B31F4148E2FEF3FEF368F258F11A27E
:101F70000A5F1F4F33E00935130779F7B12C8091C1
:101F80008303B81608F052C0A12C8B2C912C880C1E
:101F9000991CC4018B5D9C4F4C0120918403A216B7
:101FA00008F042C0F401608171810A2C02C076956C
:101FB00067950A94E2F7B29E900111242A0D311D13
:101FC000EDE1F3E080E0458D568D2417350709F4E7
:101FD0007AC18F5F36968A30B1F760FF23C0EDE19A
:101FE000F3E090E080E0448D411117C0E0917D0363
:101FF000F0917E03E20FF31F4081489EF001499E5D
:10200000F00D1124E35EFC4F448F368F258F10A214
:10201000178E61E00E94220105C0019636968A3033
:10202000910509F7A394B9CFB394A9CF80E0F60145
:1020300091A19111892FF6E0CF0ED11C0C151D0531
:10204000B1F79FB7F8944091640250916502609196
:102050006602709167029FBF4093790350937A03A1
:1020600060937B0370937C03882309F478C080918C
:102070003E03882309F473C080913C0390913D0393
:10208000019709F06CC01091390311116BC0809158
:102090001C0381111DC0809116030E9473030197D8
:1020A00091F480911C03811113C0809116030E944A
:1020B0007303019741F41092690210926802109222
:1020C000480270921C0380911C03882309F466C0A7
:1020D000809116030E9473038C01892B09F05EC066
:1020E00080911C03882309F452C010921C03C7017D
:1020F0000E94390721E030E030931B0320931A033C
:1021000097FF90C0D12CC12C8091680290916902F8
:1021100097FD019695958795C816D9060CF079C05C
:10212000C6010E941D07B82E809168029091690235
:102130008C199D0901970E941D07682FC6010E94F6
:10214000180880916802909169028C199D096B2D85
:1021500001970E9418083FEFC31AD30AD5CF1092F7
:10216000890395CF709296021092B802109297024E
:102170001092B9026BE48AE093E00E94EB06612FB3
:102180008AE093E00E94EB060E94AD0580CF80912B
:1021900016030E947303019709F0A7CF61E085E160
:1021A0000E94CA0360E085E10E949C0380910A01BD
:1021B000882309F46DC085E00E947303892BC9F060
:1021C00084E00E947303892BA1F410920A0170929B
:1021D00096021092B802109297021092B90242E051
:1021E00050E063E771E08AE093E00E94BE060E943F
:1021F000AD0561E085E10E949C0360E085E10E94FD
:10220000CA0320E030E0232B09F4F3CD0E94000044
:10221000EECDC7010E94390797FD2FC030921B03F6
:1022200020921A03F70181918B3379F5F701E00FC2
:10223000F11FAF014E195F0981918D33D1F7D02E77
:10224000D094D40E709296021092B8021092970217
:102250001092B90263E48AE093E00E94EB064D2DF0
:1022600050E0B8016F5F7F4F6E0D7F1D8AE093E0F5
:102270000E94BE060E94AD0591CF10921B031092E2
:102280001A03019609F48ACFCDCF0F5F1F4FCBCF32
:1022900085E00E947303892B09F0ABCF84E00E9494
:1022A0007303892B09F4A5CF70920A0170929602EC
:1022B0001092B802109297021092B90242E050E0D8
:1022C00066E771E090CF6170A5CE97FB072E16F4FC
:1022D000009407D077FD09D00E947F1107FC05D03C
:1022E0003EF4909581959F4F0895709561957F4F2D
:1022F0000895EE0FFF1F0590F491E02D0994AA1B9D
:10230000BB1B51E107C0AA1FBB1FA617B70710F0E0
:10231000A61BB70B881F991F5A95A9F78095909512
:0A232000BC01CD010895F894FFCF31
:10232A004605460546054605460501FFFFFFFF002F
:10233A00E10000000000000A0B0C0D12131409083A
:10234A00070631323341424344343536454647481D
:10235A00373839494A4B4C2A30234D4E4F5000C129
:10236A00808100000000000000E1015D040202F724
:10237A000148020602240200000000EB06BE061A0B
:10238A00079406B706A406950600000000E204E6D4
:0A239A0004EA04484400485500001E
:00000001FF
